{
  "_format": "hh-sol-artifact-1",
  "contractName": "MusixverseGettersFacet",
  "sourceName": "contracts/Musixverse/facets/MusixverseGettersFacet.sol",
  "abi": [
    {
      "inputs": [],
      "name": "PLATFORM_ADDRESS",
      "outputs": [
        {
          "internalType": "address",
          "name": "",
          "type": "address"
        }
      ],
      "stateMutability": "view",
      "type": "function"
    },
    {
      "inputs": [],
      "name": "PLATFORM_FEE_PERCENTAGE",
      "outputs": [
        {
          "internalType": "uint8",
          "name": "",
          "type": "uint8"
        }
      ],
      "stateMutability": "view",
      "type": "function"
    },
    {
      "inputs": [],
      "name": "baseURI",
      "outputs": [
        {
          "internalType": "string",
          "name": "",
          "type": "string"
        }
      ],
      "stateMutability": "view",
      "type": "function"
    },
    {
      "inputs": [],
      "name": "contractURI",
      "outputs": [
        {
          "internalType": "string",
          "name": "",
          "type": "string"
        }
      ],
      "stateMutability": "view",
      "type": "function"
    },
    {
      "inputs": [
        {
          "internalType": "uint256",
          "name": "tokenId",
          "type": "uint256"
        }
      ],
      "name": "getCommentOnToken",
      "outputs": [
        {
          "internalType": "string",
          "name": "",
          "type": "string"
        }
      ],
      "stateMutability": "view",
      "type": "function"
    },
    {
      "inputs": [
        {
          "internalType": "uint256",
          "name": "tokenId",
          "type": "uint256"
        }
      ],
      "name": "getRoyaltyInfo",
      "outputs": [
        {
          "components": [
            {
              "internalType": "address payable",
              "name": "recipient",
              "type": "address"
            },
            {
              "internalType": "uint256",
              "name": "percentage",
              "type": "uint256"
            }
          ],
          "internalType": "struct RoyaltyInfo[]",
          "name": "",
          "type": "tuple[]"
        }
      ],
      "stateMutability": "view",
      "type": "function"
    },
    {
      "inputs": [
        {
          "internalType": "uint256",
          "name": "tokenId",
          "type": "uint256"
        }
      ],
      "name": "getToken",
      "outputs": [
        {
          "components": [
            {
              "internalType": "uint256",
              "name": "trackId",
              "type": "uint256"
            },
            {
              "internalType": "uint256",
              "name": "price",
              "type": "uint256"
            },
            {
              "internalType": "bool",
              "name": "onSale",
              "type": "bool"
            },
            {
              "internalType": "bool",
              "name": "soldOnce",
              "type": "bool"
            }
          ],
          "internalType": "struct Token",
          "name": "",
          "type": "tuple"
        }
      ],
      "stateMutability": "view",
      "type": "function"
    },
    {
      "inputs": [
        {
          "internalType": "uint256",
          "name": "trackId",
          "type": "uint256"
        }
      ],
      "name": "getTrack",
      "outputs": [
        {
          "components": [
            {
              "internalType": "string",
              "name": "metadataHash",
              "type": "string"
            },
            {
              "internalType": "string",
              "name": "unlockableContentHash",
              "type": "string"
            },
            {
              "internalType": "address",
              "name": "artistAddress",
              "type": "address"
            },
            {
              "internalType": "uint16",
              "name": "resaleRoyaltyPercentage",
              "type": "uint16"
            },
            {
              "internalType": "uint256",
              "name": "unlockTimestamp",
              "type": "uint256"
            },
            {
              "internalType": "uint256",
              "name": "listingPrice",
              "type": "uint256"
            },
            {
              "internalType": "uint256",
              "name": "minTokenId",
              "type": "uint256"
            },
            {
              "internalType": "uint256",
              "name": "maxTokenId",
              "type": "uint256"
            }
          ],
          "internalType": "struct Track",
          "name": "",
          "type": "tuple"
        }
      ],
      "stateMutability": "view",
      "type": "function"
    },
    {
      "inputs": [],
      "name": "mxvLatestTokenId",
      "outputs": [
        {
          "components": [
            {
              "internalType": "uint256",
              "name": "_value",
              "type": "uint256"
            }
          ],
          "internalType": "struct Counters.Counter",
          "name": "",
          "type": "tuple"
        }
      ],
      "stateMutability": "view",
      "type": "function"
    },
    {
      "inputs": [],
      "name": "name",
      "outputs": [
        {
          "internalType": "string",
          "name": "",
          "type": "string"
        }
      ],
      "stateMutability": "view",
      "type": "function"
    },
    {
      "inputs": [],
      "name": "symbol",
      "outputs": [
        {
          "internalType": "string",
          "name": "",
          "type": "string"
        }
      ],
      "stateMutability": "view",
      "type": "function"
    },
    {
      "inputs": [],
      "name": "totalTracks",
      "outputs": [
        {
          "components": [
            {
              "internalType": "uint256",
              "name": "_value",
              "type": "uint256"
            }
          ],
          "internalType": "struct Counters.Counter",
          "name": "",
          "type": "tuple"
        }
      ],
      "stateMutability": "view",
      "type": "function"
    },
    {
      "inputs": [
        {
          "internalType": "uint256",
          "name": "tokenId",
          "type": "uint256"
        }
      ],
      "name": "trackNFTs",
      "outputs": [
        {
          "components": [
            {
              "internalType": "string",
              "name": "metadataHash",
              "type": "string"
            },
            {
              "internalType": "string",
              "name": "unlockableContentHash",
              "type": "string"
            },
            {
              "internalType": "address",
              "name": "artistAddress",
              "type": "address"
            },
            {
              "internalType": "uint16",
              "name": "resaleRoyaltyPercentage",
              "type": "uint16"
            },
            {
              "internalType": "uint256",
              "name": "unlockTimestamp",
              "type": "uint256"
            },
            {
              "internalType": "uint256",
              "name": "listingPrice",
              "type": "uint256"
            },
            {
              "internalType": "uint256",
              "name": "minTokenId",
              "type": "uint256"
            },
            {
              "internalType": "uint256",
              "name": "maxTokenId",
              "type": "uint256"
            }
          ],
          "internalType": "struct Track",
          "name": "",
          "type": "tuple"
        }
      ],
      "stateMutability": "view",
      "type": "function"
    },
    {
      "inputs": [
        {
          "internalType": "uint256",
          "name": "mxvTokenId",
          "type": "uint256"
        }
      ],
      "name": "unlockableContentUri",
      "outputs": [
        {
          "internalType": "string",
          "name": "",
          "type": "string"
        }
      ],
      "stateMutability": "view",
      "type": "function"
    }
  ],
  "bytecode": "0x608060405234801561001057600080fd5b5061186b806100206000396000f3fe608060405234801561001057600080fd5b50600436106100ea5760003560e01c806395d89b411161008c578063bbc2848911610066578063bbc2848914610275578063e4b50cb814610293578063e8a3d485146102c3578063ef3c6106146102e1576100ea565b806395d89b41146101f7578063afb4b54014610215578063b76c632b14610245576100ea565b80635e9bf8bc116100c85780635e9bf8bc14610149578063629058ca146101795780636c0360eb146101a9578063831744ca146101c7576100ea565b806306fdde03146100ef578063155482321461010d57806340dee0b51461012b575b600080fd5b6100f76102ff565b60405161010491906114b6565b60405180910390f35b610115610393565b60405161012291906115ab565b60405180910390f35b6101336103ac565b6040516101409190611538565b60405180910390f35b610163600480360381019061015e919061108d565b6103d3565b60405161017091906114b6565b60405180910390f35b610193600480360381019061018e919061108d565b6105a8565b6040516101a0919061156e565b60405180910390f35b6101b16107f6565b6040516101be91906114b6565b60405180910390f35b6101e160048036038101906101dc919061108d565b61088b565b6040516101ee919061156e565b60405180910390f35b6101ff610af1565b60405161020c91906114b6565b60405180910390f35b61022f600480360381019061022a919061108d565b610b86565b60405161023c91906114b6565b60405180910390f35b61025f600480360381019061025a919061108d565b610c89565b60405161026c9190611494565b60405180910390f35b61027d610dd1565b60405161028a9190611479565b60405180910390f35b6102ad60048036038101906102a8919061108d565b610dfd565b6040516102ba9190611553565b60405180910390f35b6102cb610ed2565b6040516102d891906114b6565b60405180910390f35b6102e9610f67565b6040516102f69190611538565b60405180910390f35b6060600080018054610310906116f4565b80601f016020809104026020016040519081016040528092919081815260200182805461033c906116f4565b80156103895780601f1061035e57610100808354040283529160200191610389565b820191906000526020600020905b81548152906001019060200180831161036c57829003601f168201915b5050505050905090565b60008060040160009054906101000a900460ff16905090565b6103b4610f9c565b6000600801604051806020016040529081600082015481525050905090565b60606000821180156103f157506103ed6000600701610f8e565b8211155b610430576040517f08c379a0000000000000000000000000000000000000000000000000000000008152600401610427906114f8565b60405180910390fd5b3373ffffffffffffffffffffffffffffffffffffffff16600060040160019054906101000a900473ffffffffffffffffffffffffffffffffffffffff1673ffffffffffffffffffffffffffffffffffffffff16636352211e846040518263ffffffff1660e01b81526004016104a59190611590565b60206040518083038186803b1580156104bd57600080fd5b505afa1580156104d1573d6000803e3d6000fd5b505050506040513d601f19601f820116820180604052508101906104f59190611064565b73ffffffffffffffffffffffffffffffffffffffff161461054b576040517f08c379a0000000000000000000000000000000000000000000000000000000008152600401610542906114d8565b60405180910390fd5b60006003016000600901600080600a016000868152602001908152602001600020600001548152602001908152602001600020600101604051602001610592929190611455565b6040516020818303038152906040529050919050565b6105b0610faf565b6000821180156105cc57506105c86000600801610f8e565b8211155b61060b576040517f08c379a000000000000000000000000000000000000000000000000000000000815260040161060290611518565b60405180910390fd5b600060090160008381526020019081526020016000206040518061010001604052908160008201805461063d906116f4565b80601f0160208091040260200160405190810160405280929190818152602001828054610669906116f4565b80156106b65780601f1061068b576101008083540402835291602001916106b6565b820191906000526020600020905b81548152906001019060200180831161069957829003601f168201915b505050505081526020016001820180546106cf906116f4565b80601f01602080910402602001604051908101604052809291908181526020018280546106fb906116f4565b80156107485780601f1061071d57610100808354040283529160200191610748565b820191906000526020600020905b81548152906001019060200180831161072b57829003601f168201915b505050505081526020016002820160009054906101000a900473ffffffffffffffffffffffffffffffffffffffff1673ffffffffffffffffffffffffffffffffffffffff1673ffffffffffffffffffffffffffffffffffffffff1681526020016002820160149054906101000a900461ffff1661ffff1661ffff1681526020016003820154815260200160048201548152602001600582015481526020016006820154815250509050919050565b606060006003018054610808906116f4565b80601f0160208091040260200160405190810160405280929190818152602001828054610834906116f4565b80156108815780601f1061085657610100808354040283529160200191610881565b820191906000526020600020905b81548152906001019060200180831161086457829003601f168201915b5050505050905090565b610893610faf565b6000821180156108af57506108ab6000600701610f8e565b8211155b6108ee576040517f08c379a00000000000000000000000000000000000000000000000000000000081526004016108e5906114f8565b60405180910390fd5b6000600901600080600a01600085815260200190815260200160002060000154815260200190815260200160002060405180610100016040529081600082018054610938906116f4565b80601f0160208091040260200160405190810160405280929190818152602001828054610964906116f4565b80156109b15780601f10610986576101008083540402835291602001916109b1565b820191906000526020600020905b81548152906001019060200180831161099457829003601f168201915b505050505081526020016001820180546109ca906116f4565b80601f01602080910402602001604051908101604052809291908181526020018280546109f6906116f4565b8015610a435780601f10610a1857610100808354040283529160200191610a43565b820191906000526020600020905b815481529060010190602001808311610a2657829003601f168201915b505050505081526020016002820160009054906101000a900473ffffffffffffffffffffffffffffffffffffffff1673ffffffffffffffffffffffffffffffffffffffff1673ffffffffffffffffffffffffffffffffffffffff1681526020016002820160149054906101000a900461ffff1661ffff1661ffff1681526020016003820154815260200160048201548152602001600582015481526020016006820154815250509050919050565b606060006001018054610b03906116f4565b80601f0160208091040260200160405190810160405280929190818152602001828054610b2f906116f4565b8015610b7c5780601f10610b5157610100808354040283529160200191610b7c565b820191906000526020600020905b815481529060010190602001808311610b5f57829003601f168201915b5050505050905090565b6060600082118015610ba45750610ba06000600701610f8e565b8211155b610be3576040517f08c379a0000000000000000000000000000000000000000000000000000000008152600401610bda906114f8565b60405180910390fd5b6000600d0160008381526020019081526020016000208054610c04906116f4565b80601f0160208091040260200160405190810160405280929190818152602001828054610c30906116f4565b8015610c7d5780601f10610c5257610100808354040283529160200191610c7d565b820191906000526020600020905b815481529060010190602001808311610c6057829003601f168201915b50505050509050919050565b6060600082118015610ca75750610ca36000600701610f8e565b8211155b610ce6576040517f08c379a0000000000000000000000000000000000000000000000000000000008152600401610cdd906114f8565b60405180910390fd5b6000600c01600080600a016000858152602001908152602001600020600001548152602001908152602001600020805480602002602001604051908101604052809291908181526020016000905b82821015610dc657838290600052602060002090600202016040518060400160405290816000820160009054906101000a900473ffffffffffffffffffffffffffffffffffffffff1673ffffffffffffffffffffffffffffffffffffffff1673ffffffffffffffffffffffffffffffffffffffff16815260200160018201548152505081526020019060010190610d34565b505050509050919050565b60008060040160019054906101000a900473ffffffffffffffffffffffffffffffffffffffff16905090565b610e0561100e565b600082118015610e215750610e1d6000600701610f8e565b8211155b610e60576040517f08c379a0000000000000000000000000000000000000000000000000000000008152600401610e57906114f8565b60405180910390fd5b6000600a01600083815260200190815260200160002060405180608001604052908160008201548152602001600182015481526020016002820160009054906101000a900460ff161515151581526020016002820160019054906101000a900460ff1615151515815250509050919050565b606060006002018054610ee4906116f4565b80601f0160208091040260200160405190810160405280929190818152602001828054610f10906116f4565b8015610f5d5780601f10610f3257610100808354040283529160200191610f5d565b820191906000526020600020905b815481529060010190602001808311610f4057829003601f168201915b5050505050905090565b610f6f610f9c565b6000600701604051806020016040529081600082015481525050905090565b600081600001549050919050565b6040518060200160405280600081525090565b6040518061010001604052806060815260200160608152602001600073ffffffffffffffffffffffffffffffffffffffff168152602001600061ffff168152602001600081526020016000815260200160008152602001600081525090565b604051806080016040528060008152602001600081526020016000151581526020016000151581525090565b60008151905061104981611807565b92915050565b60008135905061105e8161181e565b92915050565b60006020828403121561107657600080fd5b60006110848482850161103a565b91505092915050565b60006020828403121561109f57600080fd5b60006110ad8482850161104f565b91505092915050565b60006110c283836112de565b60408301905092915050565b6110d78161165e565b82525050565b6110e68161164c565b82525050565b6110f58161164c565b82525050565b6000611106826115eb565b611110818561160e565b935061111b836115c6565b8060005b8381101561114c57815161113388826110b6565b975061113e83611601565b92505060018101905061111f565b5085935050505092915050565b61116281611670565b82525050565b6000611173826115f6565b61117d818561161f565b935061118d8185602086016116c1565b61119681611755565b840191505092915050565b60006111ac826115f6565b6111b68185611630565b93506111c68185602086016116c1565b6111cf81611755565b840191505092915050565b600081546111e7816116f4565b6111f18186611641565b9450600182166000811461120c576001811461121d57611250565b60ff19831686528186019350611250565b611226856115d6565b60005b8381101561124857815481890152600182019150602081019050611229565b838801955050505b50505092915050565b6000611266602983611630565b915061127182611766565b604082019050919050565b6000611289600983611630565b9150611294826117b5565b602082019050919050565b60006112ac600983611630565b91506112b7826117de565b602082019050919050565b6020820160008201516112d86000850182611428565b50505050565b6040820160008201516112f460008501826110ce565b5060208201516113076020850182611428565b50505050565b6080820160008201516113236000850182611428565b5060208201516113366020850182611428565b5060408201516113496040850182611159565b50606082015161135c6060850182611159565b50505050565b60006101008301600083015184820360008601526113808282611168565b9150506020830151848203602086015261139a8282611168565b91505060408301516113af60408601826110dd565b5060608301516113c26060860182611419565b5060808301516113d56080860182611428565b5060a08301516113e860a0860182611428565b5060c08301516113fb60c0860182611428565b5060e083015161140e60e0860182611428565b508091505092915050565b6114228161167c565b82525050565b611431816116aa565b82525050565b611440816116aa565b82525050565b61144f816116b4565b82525050565b600061146182856111da565b915061146d82846111da565b91508190509392505050565b600060208201905061148e60008301846110ec565b92915050565b600060208201905081810360008301526114ae81846110fb565b905092915050565b600060208201905081810360008301526114d081846111a1565b905092915050565b600060208201905081810360008301526114f181611259565b9050919050565b600060208201905081810360008301526115118161127c565b9050919050565b600060208201905081810360008301526115318161129f565b9050919050565b600060208201905061154d60008301846112c2565b92915050565b6000608082019050611568600083018461130d565b92915050565b600060208201905081810360008301526115888184611362565b905092915050565b60006020820190506115a56000830184611437565b92915050565b60006020820190506115c06000830184611446565b92915050565b6000819050602082019050919050565b60008190508160005260206000209050919050565b600081519050919050565b600081519050919050565b6000602082019050919050565b600082825260208201905092915050565b600082825260208201905092915050565b600082825260208201905092915050565b600081905092915050565b60006116578261168a565b9050919050565b60006116698261168a565b9050919050565b60008115159050919050565b600061ffff82169050919050565b600073ffffffffffffffffffffffffffffffffffffffff82169050919050565b6000819050919050565b600060ff82169050919050565b60005b838110156116df5780820151818401526020810190506116c4565b838111156116ee576000848401525b50505050565b6000600282049050600182168061170c57607f821691505b602082108114156117205761171f611726565b5b50919050565b7f4e487b7100000000000000000000000000000000000000000000000000000000600052602260045260246000fd5b6000601f19601f8301169050919050565b7f4d75737420626520746f6b656e206f776e657220746f2063616c6c207468697360008201527f2066756e6374696f6e0000000000000000000000000000000000000000000000602082015250565b7f546f6b656e20444e450000000000000000000000000000000000000000000000600082015250565b7f547261636b20444e450000000000000000000000000000000000000000000000600082015250565b6118108161164c565b811461181b57600080fd5b50565b611827816116aa565b811461183257600080fd5b5056fea26469706673582212202830f4fe6a23a46bf867e8f876a0476c813b3a01b713c75a984ccd965892941e64736f6c63430008040033",
  "linkReferences": {},
  "deployedLinkReferences": {}
}