{
  "_format": "hh-sol-artifact-1",
  "contractName": "MusixverseGettersFacet",
  "sourceName": "contracts/Musixverse/facets/MusixverseGettersFacet.sol",
  "abi": [
    {
      "inputs": [],
      "name": "PLATFORM_ADDRESS",
      "outputs": [
        {
          "internalType": "address",
          "name": "",
          "type": "address"
        }
      ],
      "stateMutability": "view",
      "type": "function"
    },
    {
      "inputs": [],
      "name": "PLATFORM_FEE_PERCENTAGE",
      "outputs": [
        {
          "internalType": "uint8",
          "name": "",
          "type": "uint8"
        }
      ],
      "stateMutability": "view",
      "type": "function"
    },
    {
      "inputs": [],
      "name": "baseURI",
      "outputs": [
        {
          "internalType": "string",
          "name": "",
          "type": "string"
        }
      ],
      "stateMutability": "view",
      "type": "function"
    },
    {
      "inputs": [],
      "name": "contractURI",
      "outputs": [
        {
          "internalType": "string",
          "name": "",
          "type": "string"
        }
      ],
      "stateMutability": "view",
      "type": "function"
    },
    {
      "inputs": [
        {
          "internalType": "uint256",
          "name": "tokenId",
          "type": "uint256"
        }
      ],
      "name": "getCommentOnToken",
      "outputs": [
        {
          "internalType": "string",
          "name": "",
          "type": "string"
        }
      ],
      "stateMutability": "view",
      "type": "function"
    },
    {
      "inputs": [
        {
          "internalType": "uint256",
          "name": "tokenId",
          "type": "uint256"
        }
      ],
      "name": "getRoyaltyInfo",
      "outputs": [
        {
          "components": [
            {
              "internalType": "address payable",
              "name": "recipient",
              "type": "address"
            },
            {
              "internalType": "uint256",
              "name": "percentage",
              "type": "uint256"
            }
          ],
          "internalType": "struct RoyaltyInfo[]",
          "name": "",
          "type": "tuple[]"
        }
      ],
      "stateMutability": "view",
      "type": "function"
    },
    {
      "inputs": [
        {
          "internalType": "uint256",
          "name": "tokenId",
          "type": "uint256"
        }
      ],
      "name": "getToken",
      "outputs": [
        {
          "components": [
            {
              "internalType": "uint256",
              "name": "trackId",
              "type": "uint256"
            },
            {
              "internalType": "uint256",
              "name": "price",
              "type": "uint256"
            },
            {
              "internalType": "bool",
              "name": "onSale",
              "type": "bool"
            },
            {
              "internalType": "bool",
              "name": "soldOnce",
              "type": "bool"
            }
          ],
          "internalType": "struct Token",
          "name": "",
          "type": "tuple"
        }
      ],
      "stateMutability": "view",
      "type": "function"
    },
    {
      "inputs": [],
      "name": "mxvLatestTokenId",
      "outputs": [
        {
          "components": [
            {
              "internalType": "uint256",
              "name": "_value",
              "type": "uint256"
            }
          ],
          "internalType": "struct Counters.Counter",
          "name": "",
          "type": "tuple"
        }
      ],
      "stateMutability": "view",
      "type": "function"
    },
    {
      "inputs": [],
      "name": "name",
      "outputs": [
        {
          "internalType": "string",
          "name": "",
          "type": "string"
        }
      ],
      "stateMutability": "view",
      "type": "function"
    },
    {
      "inputs": [],
      "name": "symbol",
      "outputs": [
        {
          "internalType": "string",
          "name": "",
          "type": "string"
        }
      ],
      "stateMutability": "view",
      "type": "function"
    },
    {
      "inputs": [],
      "name": "totalTracks",
      "outputs": [
        {
          "components": [
            {
              "internalType": "uint256",
              "name": "_value",
              "type": "uint256"
            }
          ],
          "internalType": "struct Counters.Counter",
          "name": "",
          "type": "tuple"
        }
      ],
      "stateMutability": "view",
      "type": "function"
    },
    {
      "inputs": [
        {
          "internalType": "uint256",
          "name": "mxvTokenId",
          "type": "uint256"
        }
      ],
      "name": "unlockableContentUri",
      "outputs": [
        {
          "internalType": "string",
          "name": "",
          "type": "string"
        }
      ],
      "stateMutability": "view",
      "type": "function"
    }
  ],
  "bytecode": "0x608060405234801561001057600080fd5b50611107806100206000396000f3fe608060405234801561001057600080fd5b50600436106100b45760003560e01c8063afb4b54011610071578063afb4b5401461017f578063b76c632b146101af578063bbc28489146101df578063e4b50cb8146101fd578063e8a3d4851461022d578063ef3c61061461024b576100b4565b806306fdde03146100b957806315548232146100d757806340dee0b5146100f55780635e9bf8bc146101135780636c0360eb1461014357806395d89b4114610161575b600080fd5b6100c1610269565b6040516100ce9190610ddc565b60405180910390f35b6100df6102fd565b6040516100ec9190610e8f565b60405180910390f35b6100fd610316565b60405161010a9190610e3e565b60405180910390f35b61012d60048036038101906101289190610ae4565b61033d565b60405161013a9190610ddc565b60405180910390f35b61014b610512565b6040516101589190610ddc565b60405180910390f35b6101696105a7565b6040516101769190610ddc565b60405180910390f35b61019960048036038101906101949190610ae4565b61063c565b6040516101a69190610ddc565b60405180910390f35b6101c960048036038101906101c49190610ae4565b61073f565b6040516101d69190610dba565b60405180910390f35b6101e7610887565b6040516101f49190610d9f565b60405180910390f35b61021760048036038101906102129190610ae4565b6108b3565b6040516102249190610e59565b60405180910390f35b610235610988565b6040516102429190610ddc565b60405180910390f35b610253610a1d565b6040516102609190610e3e565b60405180910390f35b606060008001805461027a90610fb9565b80601f01602080910402602001604051908101604052809291908181526020018280546102a690610fb9565b80156102f35780601f106102c8576101008083540402835291602001916102f3565b820191906000526020600020905b8154815290600101906020018083116102d657829003601f168201915b5050505050905090565b60008060040160009054906101000a900460ff16905090565b61031e610a52565b6000600801604051806020016040529081600082015481525050905090565b606060008211801561035b57506103576000600701610a44565b8211155b61039a576040517f08c379a000000000000000000000000000000000000000000000000000000000815260040161039190610e1e565b60405180910390fd5b3373ffffffffffffffffffffffffffffffffffffffff16600060040160019054906101000a900473ffffffffffffffffffffffffffffffffffffffff1673ffffffffffffffffffffffffffffffffffffffff16636352211e846040518263ffffffff1660e01b815260040161040f9190610e74565b60206040518083038186803b15801561042757600080fd5b505afa15801561043b573d6000803e3d6000fd5b505050506040513d601f19601f8201168201806040525081019061045f9190610abb565b73ffffffffffffffffffffffffffffffffffffffff16146104b5576040517f08c379a00000000000000000000000000000000000000000000000000000000081526004016104ac90610dfe565b60405180910390fd5b60006003016000600901600080600a0160008681526020019081526020016000206000015481526020019081526020016000206001016040516020016104fc929190610d7b565b6040516020818303038152906040529050919050565b60606000600301805461052490610fb9565b80601f016020809104026020016040519081016040528092919081815260200182805461055090610fb9565b801561059d5780601f106105725761010080835404028352916020019161059d565b820191906000526020600020905b81548152906001019060200180831161058057829003601f168201915b5050505050905090565b6060600060010180546105b990610fb9565b80601f01602080910402602001604051908101604052809291908181526020018280546105e590610fb9565b80156106325780601f1061060757610100808354040283529160200191610632565b820191906000526020600020905b81548152906001019060200180831161061557829003601f168201915b5050505050905090565b606060008211801561065a57506106566000600701610a44565b8211155b610699576040517f08c379a000000000000000000000000000000000000000000000000000000000815260040161069090610e1e565b60405180910390fd5b6000600d01600083815260200190815260200160002080546106ba90610fb9565b80601f01602080910402602001604051908101604052809291908181526020018280546106e690610fb9565b80156107335780601f1061070857610100808354040283529160200191610733565b820191906000526020600020905b81548152906001019060200180831161071657829003601f168201915b50505050509050919050565b606060008211801561075d57506107596000600701610a44565b8211155b61079c576040517f08c379a000000000000000000000000000000000000000000000000000000000815260040161079390610e1e565b60405180910390fd5b6000600c01600080600a016000858152602001908152602001600020600001548152602001908152602001600020805480602002602001604051908101604052809291908181526020016000905b8282101561087c57838290600052602060002090600202016040518060400160405290816000820160009054906101000a900473ffffffffffffffffffffffffffffffffffffffff1673ffffffffffffffffffffffffffffffffffffffff1673ffffffffffffffffffffffffffffffffffffffff168152602001600182015481525050815260200190600101906107ea565b505050509050919050565b60008060040160019054906101000a900473ffffffffffffffffffffffffffffffffffffffff16905090565b6108bb610a65565b6000821180156108d757506108d36000600701610a44565b8211155b610916576040517f08c379a000000000000000000000000000000000000000000000000000000000815260040161090d90610e1e565b60405180910390fd5b6000600a01600083815260200190815260200160002060405180608001604052908160008201548152602001600182015481526020016002820160009054906101000a900460ff161515151581526020016002820160019054906101000a900460ff1615151515815250509050919050565b60606000600201805461099a90610fb9565b80601f01602080910402602001604051908101604052809291908181526020018280546109c690610fb9565b8015610a135780601f106109e857610100808354040283529160200191610a13565b820191906000526020600020905b8154815290600101906020018083116109f657829003601f168201915b5050505050905090565b610a25610a52565b6000600701604051806020016040529081600082015481525050905090565b600081600001549050919050565b6040518060200160405280600081525090565b604051806080016040528060008152602001600081526020016000151581526020016000151581525090565b600081519050610aa0816110a3565b92915050565b600081359050610ab5816110ba565b92915050565b600060208284031215610acd57600080fd5b6000610adb84828501610a91565b91505092915050565b600060208284031215610af657600080fd5b6000610b0484828501610aa6565b91505092915050565b6000610b198383610cca565b60408301905092915050565b610b2e81610f31565b82525050565b610b3d81610f1f565b82525050565b6000610b4e82610ecf565b610b588185610ef2565b9350610b6383610eaa565b8060005b83811015610b94578151610b7b8882610b0d565b9750610b8683610ee5565b925050600181019050610b67565b5085935050505092915050565b610baa81610f43565b82525050565b6000610bbb82610eda565b610bc58185610f03565b9350610bd5818560208601610f86565b610bde8161101a565b840191505092915050565b60008154610bf681610fb9565b610c008186610f14565b94506001821660008114610c1b5760018114610c2c57610c5f565b60ff19831686528186019350610c5f565b610c3585610eba565b60005b83811015610c5757815481890152600182019150602081019050610c38565b838801955050505b50505092915050565b6000610c75602983610f03565b9150610c808261102b565b604082019050919050565b6000610c98600983610f03565b9150610ca38261107a565b602082019050919050565b602082016000820151610cc46000850182610d4e565b50505050565b604082016000820151610ce06000850182610b25565b506020820151610cf36020850182610d4e565b50505050565b608082016000820151610d0f6000850182610d4e565b506020820151610d226020850182610d4e565b506040820151610d356040850182610ba1565b506060820151610d486060850182610ba1565b50505050565b610d5781610f6f565b82525050565b610d6681610f6f565b82525050565b610d7581610f79565b82525050565b6000610d878285610be9565b9150610d938284610be9565b91508190509392505050565b6000602082019050610db46000830184610b34565b92915050565b60006020820190508181036000830152610dd48184610b43565b905092915050565b60006020820190508181036000830152610df68184610bb0565b905092915050565b60006020820190508181036000830152610e1781610c68565b9050919050565b60006020820190508181036000830152610e3781610c8b565b9050919050565b6000602082019050610e536000830184610cae565b92915050565b6000608082019050610e6e6000830184610cf9565b92915050565b6000602082019050610e896000830184610d5d565b92915050565b6000602082019050610ea46000830184610d6c565b92915050565b6000819050602082019050919050565b60008190508160005260206000209050919050565b600081519050919050565b600081519050919050565b6000602082019050919050565b600082825260208201905092915050565b600082825260208201905092915050565b600081905092915050565b6000610f2a82610f4f565b9050919050565b6000610f3c82610f4f565b9050919050565b60008115159050919050565b600073ffffffffffffffffffffffffffffffffffffffff82169050919050565b6000819050919050565b600060ff82169050919050565b60005b83811015610fa4578082015181840152602081019050610f89565b83811115610fb3576000848401525b50505050565b60006002820490506001821680610fd157607f821691505b60208210811415610fe557610fe4610feb565b5b50919050565b7f4e487b7100000000000000000000000000000000000000000000000000000000600052602260045260246000fd5b6000601f19601f8301169050919050565b7f4d75737420626520746f6b656e206f776e657220746f2063616c6c207468697360008201527f2066756e6374696f6e0000000000000000000000000000000000000000000000602082015250565b7f546f6b656e20444e450000000000000000000000000000000000000000000000600082015250565b6110ac81610f1f565b81146110b757600080fd5b50565b6110c381610f6f565b81146110ce57600080fd5b5056fea26469706673582212200a22affe93cede091b8c2b15e3697d937a982808cb84109364c0144dae8e757164736f6c63430008040033",
  "linkReferences": {},
  "deployedLinkReferences": {}
}