{
  "_format": "hh-sol-artifact-1",
  "contractName": "LibMusixverse",
  "sourceName": "contracts/Musixverse/libraries/LibMusixverse.sol",
  "abi": [
    {
      "inputs": [
        {
          "components": [
            {
              "internalType": "uint16",
              "name": "amount",
              "type": "uint16"
            },
            {
              "internalType": "uint256",
              "name": "price",
              "type": "uint256"
            },
            {
              "internalType": "string",
              "name": "URIHash",
              "type": "string"
            },
            {
              "internalType": "string",
              "name": "unlockableContentURIHash",
              "type": "string"
            },
            {
              "internalType": "address[]",
              "name": "collaborators",
              "type": "address[]"
            },
            {
              "internalType": "uint16[]",
              "name": "percentageContributions",
              "type": "uint16[]"
            },
            {
              "internalType": "uint16",
              "name": "resaleRoyaltyPercentage",
              "type": "uint16"
            },
            {
              "internalType": "bool",
              "name": "onSale",
              "type": "bool"
            },
            {
              "internalType": "uint256",
              "name": "unlockTimestamp",
              "type": "uint256"
            }
          ],
          "internalType": "struct TrackNftCreationData",
          "name": "data",
          "type": "tuple"
        }
      ],
      "name": "checkForMinting",
      "outputs": [],
      "stateMutability": "view",
      "type": "function"
    },
    {
      "inputs": [
        {
          "internalType": "address[]",
          "name": "collaborators",
          "type": "address[]"
        },
        {
          "internalType": "uint16[]",
          "name": "percentageContributions",
          "type": "uint16[]"
        }
      ],
      "name": "checkForRoyalties",
      "outputs": [],
      "stateMutability": "pure",
      "type": "function"
    },
    {
      "inputs": [
        {
          "components": [
            {
              "internalType": "string",
              "name": "metadataHash",
              "type": "string"
            },
            {
              "internalType": "string",
              "name": "unlockableContentHash",
              "type": "string"
            },
            {
              "internalType": "address",
              "name": "artistAddress",
              "type": "address"
            },
            {
              "internalType": "uint16",
              "name": "resaleRoyaltyPercentage",
              "type": "uint16"
            },
            {
              "internalType": "uint256",
              "name": "unlockTimestamp",
              "type": "uint256"
            },
            {
              "internalType": "uint256",
              "name": "listingPrice",
              "type": "uint256"
            },
            {
              "internalType": "uint256",
              "name": "minTokenId",
              "type": "uint256"
            },
            {
              "internalType": "uint256",
              "name": "maxTokenId",
              "type": "uint256"
            }
          ],
          "internalType": "struct Track",
          "name": "trackNFT",
          "type": "tuple"
        },
        {
          "components": [
            {
              "internalType": "uint256",
              "name": "trackId",
              "type": "uint256"
            },
            {
              "internalType": "uint256",
              "name": "price",
              "type": "uint256"
            },
            {
              "internalType": "bool",
              "name": "onSale",
              "type": "bool"
            },
            {
              "internalType": "bool",
              "name": "soldOnce",
              "type": "bool"
            }
          ],
          "internalType": "struct Token",
          "name": "token",
          "type": "tuple"
        },
        {
          "internalType": "address",
          "name": "prevOwner",
          "type": "address"
        }
      ],
      "name": "checkForSale",
      "outputs": [],
      "stateMutability": "view",
      "type": "function"
    },
    {
      "inputs": [
        {
          "internalType": "address payable",
          "name": "PLATFORM_ADDRESS",
          "type": "address"
        },
        {
          "internalType": "uint256",
          "name": "tokenId",
          "type": "uint256"
        }
      ],
      "name": "isNFTOwner",
      "outputs": [],
      "stateMutability": "view",
      "type": "function"
    },
    {
      "inputs": [
        {
          "components": [
            {
              "internalType": "string",
              "name": "metadataHash",
              "type": "string"
            },
            {
              "internalType": "string",
              "name": "unlockableContentHash",
              "type": "string"
            },
            {
              "internalType": "address",
              "name": "artistAddress",
              "type": "address"
            },
            {
              "internalType": "uint16",
              "name": "resaleRoyaltyPercentage",
              "type": "uint16"
            },
            {
              "internalType": "uint256",
              "name": "unlockTimestamp",
              "type": "uint256"
            },
            {
              "internalType": "uint256",
              "name": "listingPrice",
              "type": "uint256"
            },
            {
              "internalType": "uint256",
              "name": "minTokenId",
              "type": "uint256"
            },
            {
              "internalType": "uint256",
              "name": "maxTokenId",
              "type": "uint256"
            }
          ],
          "internalType": "struct Track",
          "name": "trackNFT",
          "type": "tuple"
        }
      ],
      "name": "isPastUnlockTimestamp",
      "outputs": [],
      "stateMutability": "view",
      "type": "function"
    }
  ],
  "bytecode": "0x61374a610053600b82828239805160001a607314610046577f4e487b7100000000000000000000000000000000000000000000000000000000600052600060045260246000fd5b30600052607381538281f3fe73000000000000000000000000000000000000000030146080604052600436106100be5760003560e01c8063a8ef5c7f1161007b578063a8ef5c7f146101dc578063b4196759146101f8578063cd2aeaaa14610214578063d54eaf2614610230578063e5ef44681461024c578063f23becbf14610289576100be565b80630e0c4f88146100c357806322997d56146100df5780633b8a23c31461011d5780634ceeab121461015a578063537a61a7146101975780635c868675146101b3575b600080fd5b6100dd60048036038101906100d89190612461565b6102a5565b005b8180156100eb57600080fd5b5061010660048036038101906101019190612175565b6102ee565b604051610114929190612c6c565b60405180910390f35b81801561012957600080fd5b50610144600480360381019061013f9190612532565b6103ba565b6040516101519190612c36565b60405180910390f35b81801561016657600080fd5b50610181600480360381019061017c91906121ec565b61071b565b60405161018e91906129d0565b60405180910390f35b6101b160048036038101906101ac91906124a2565b610a60565b005b8180156101bf57600080fd5b506101da60048036038101906101d591906125a9565b610b68565b005b6101f660048036038101906101f19190612644565b610ce9565b005b610212600480360381019061020d9190612420565b610d44565b005b61022e60048036038101906102299190612139565b611021565b005b61024a600480360381019061024591906122f2565b61111b565b005b81801561025857600080fd5b50610273600480360381019061026e9190612263565b611134565b6040516102809190612a14565b60405180910390f35b6102a3600480360381019061029e9190612341565b611214565b005b806080015142116102eb576040517f08c379a00000000000000000000000000000000000000000000000000000000081526004016102e290612a56565b60405180910390fd5b50565b6000806102fc87878561111b565b60008560008881526020019081526020016000209050600081600101549050858260010181905550818760008a815260200190815260200160002060008201548160000155600182015481600101556002820160009054906101000a900460ff168160020160006101000a81548160ff0219169083151502179055506002820160019054906101000a900460ff168160020160016101000a81548160ff02191690831515021790555090505080869350935050509550959350505050565b6103c2611b92565b60006103cc6113d5565b90506103d88784610ce9565b600084600089815260200190815260200160002060405180608001604052908160008201548152602001600182015481526020016002820160009054906101000a900460ff161515151581526020016002820160019054906101000a900460ff161515151581525050905060008660008760008c815260200190815260200160002060000154815260200190815260200160002060405180610100016040529081600082018054610488906130a6565b80601f01602080910402602001604051908101604052809291908181526020018280546104b4906130a6565b80156105015780601f106104d657610100808354040283529160200191610501565b820191906000526020600020905b8154815290600101906020018083116104e457829003601f168201915b5050505050815260200160018201805461051a906130a6565b80601f0160208091040260200160405190810160405280929190818152602001828054610546906130a6565b80156105935780601f1061056857610100808354040283529160200191610593565b820191906000526020600020905b81548152906001019060200180831161057657829003601f168201915b505050505081526020016002820160009054906101000a900473ffffffffffffffffffffffffffffffffffffffff1673ffffffffffffffffffffffffffffffffffffffff1673ffffffffffffffffffffffffffffffffffffffff1681526020016002820160149054906101000a900461ffff1661ffff1661ffff168152602001600382015481526020016004820154815260200160058201548152602001600682015481525050905060008360040160019054906101000a900473ffffffffffffffffffffffffffffffffffffffff1673ffffffffffffffffffffffffffffffffffffffff16636352211e8b6040518263ffffffff1660e01b815260040161069b9190612c51565b60206040518083038186803b1580156106b357600080fd5b505afa1580156106c7573d6000803e3d6000fd5b505050506040513d601f19601f820116820180604052508101906106eb9190612110565b90506106f8828483610a60565b60006107088b8b8587868d6113da565b9050809550505050505095945050505050565b600061072886868461111b565b60008460008560008981526020019081526020016000206000015481526020019081526020016000206040518061010001604052908160008201805461076d906130a6565b80601f0160208091040260200160405190810160405280929190818152602001828054610799906130a6565b80156107e65780601f106107bb576101008083540402835291602001916107e6565b820191906000526020600020905b8154815290600101906020018083116107c957829003601f168201915b505050505081526020016001820180546107ff906130a6565b80601f016020809104026020016040519081016040528092919081815260200182805461082b906130a6565b80156108785780601f1061084d57610100808354040283529160200191610878565b820191906000526020600020905b81548152906001019060200180831161085b57829003601f168201915b505050505081526020016002820160009054906101000a900473ffffffffffffffffffffffffffffffffffffffff1673ffffffffffffffffffffffffffffffffffffffff1673ffffffffffffffffffffffffffffffffffffffff1681526020016002820160149054906101000a900461ffff1661ffff1661ffff168152602001600382015481526020016004820154815260200160058201548152602001600682015481525050905060008460008881526020019081526020016000209050610940826102a5565b600115158160020160009054906101000a900460ff16151514156109805760008160020160006101000a81548160ff0219169083151502179055506109bd565b600015158160020160009054906101000a900460ff16151514156109bc5760018160020160006101000a81548160ff0219169083151502179055505b5b8085600089815260200190815260200160002060008201548160000155600182015481600101556002820160009054906101000a900460ff168160020160006101000a81548160ff0219169083151502179055506002820160019054906101000a900460ff168160020160016101000a81548160ff0219169083151502179055509050508060020160009054906101000a900460ff169250505095945050505050565b610a69836102a5565b8160400151610aad576040517f08c379a0000000000000000000000000000000000000000000000000000000008152600401610aa490612a76565b60405180910390fd5b3373ffffffffffffffffffffffffffffffffffffffff168173ffffffffffffffffffffffffffffffffffffffff161415610b1c576040517f08c379a0000000000000000000000000000000000000000000000000000000008152600401610b1390612b76565b60405180910390fd5b8160200151341015610b63576040517f08c379a0000000000000000000000000000000000000000000000000000000008152600401610b5a90612b16565b60405180910390fd5b505050565b60005b85859050811015610ce0578160008881526020019081526020016000206040518060400160405280888885818110610bcc577f4e487b7100000000000000000000000000000000000000000000000000000000600052603260045260246000fd5b9050602002016020810190610be191906120e7565b73ffffffffffffffffffffffffffffffffffffffff168152602001868685818110610c35577f4e487b7100000000000000000000000000000000000000000000000000000000600052603260045260246000fd5b9050602002016020810190610c4a9190612509565b61ffff16815250908060018154018082558091505060019003906000526020600020906002020160009091909190915060008201518160000160006101000a81548173ffffffffffffffffffffffffffffffffffffffff021916908373ffffffffffffffffffffffffffffffffffffffff1602179055506020820151816001015550508080610cd890613109565b915050610b6b565b50505050505050565b600082118015610d015750610cfd816118b2565b8211155b610d40576040517f08c379a0000000000000000000000000000000000000000000000000000000008152600401610d3790612c16565b60405180910390fd5b5050565b6000610d4e6113d5565b90508060040160019054906101000a900473ffffffffffffffffffffffffffffffffffffffff1673ffffffffffffffffffffffffffffffffffffffff166391d148548260060154336040518363ffffffff1660e01b8152600401610db39291906129eb565b60206040518083038186803b158015610dcb57600080fd5b505afa158015610ddf573d6000803e3d6000fd5b505050506040513d601f19601f82011682018060405250810190610e0391906123f7565b610e42576040517f08c379a0000000000000000000000000000000000000000000000000000000008152600401610e3990612ad6565b60405180910390fd5b6000826000016020810190610e579190612509565b61ffff1611610e9b576040517f08c379a0000000000000000000000000000000000000000000000000000000008152600401610e9290612bb6565b60405180910390fd5b6000826020013511610ee2576040517f08c379a0000000000000000000000000000000000000000000000000000000008152600401610ed990612bf6565b60405180910390fd5b6000828060400190610ef49190612d43565b90501415610f37576040517f08c379a0000000000000000000000000000000000000000000000000000000008152600401610f2e90612b96565b60405180910390fd5b818060a00190610f479190612cec565b9050828060800190610f599190612c95565b905014610f9b576040517f08c379a0000000000000000000000000000000000000000000000000000000008152600401610f9290612a96565b60405180910390fd5b60008260c0016020810190610fb09190612509565b61ffff161015610ff5576040517f08c379a0000000000000000000000000000000000000000000000000000000008152600401610fec90612a36565b60405180910390fd5b61101d8280608001906110089190612c95565b848060a001906110189190612cec565b611214565b5050565b3373ffffffffffffffffffffffffffffffffffffffff168273ffffffffffffffffffffffffffffffffffffffff16636352211e836040518263ffffffff1660e01b81526004016110719190612c51565b60206040518083038186803b15801561108957600080fd5b505afa15801561109d573d6000803e3d6000fd5b505050506040513d601f19601f820116820180604052508101906110c19190612110565b73ffffffffffffffffffffffffffffffffffffffff1614611117576040517f08c379a000000000000000000000000000000000000000000000000000000000815260040161110e90612b36565b60405180910390fd5b5050565b6111258282610ce9565b61112f8383611021565b505050565b606061114186868461111b565b60008360008781526020019081526020016000208054611160906130a6565b80601f016020809104026020016040519081016040528092919081815260200182805461118c906130a6565b80156111d95780601f106111ae576101008083540402835291602001916111d9565b820191906000526020600020905b8154815290600101906020018083116111bc57829003601f168201915b50505050509050848460008881526020019081526020016000209080519060200190611206929190611bba565b508091505095945050505050565b81819050848490501461125c576040517f08c379a000000000000000000000000000000000000000000000000000000000815260040161125390612a96565b60405180910390fd5b60005b848490508110156113ce57600073ffffffffffffffffffffffffffffffffffffffff168585838181106112bb577f4e487b7100000000000000000000000000000000000000000000000000000000600052603260045260246000fd5b90506020020160208101906112d091906120e7565b73ffffffffffffffffffffffffffffffffffffffff161415611327576040517f08c379a000000000000000000000000000000000000000000000000000000000815260040161131e90612bd6565b60405180910390fd5b6000838383818110611362577f4e487b7100000000000000000000000000000000000000000000000000000000600052603260045260246000fd5b90506020020160208101906113779190612509565b61ffff16116113bb576040517f08c379a00000000000000000000000000000000000000000000000000000000081526004016113b290612b56565b60405180910390fd5b80806113c690613109565b91505061125f565b5050505050565b600090565b6113e2611b92565b60006113ec6113d5565b9050600061142a606461141c8460040160009054906101000a900460ff1660ff16346118c090919063ffffffff16565b6118d690919063ffffffff16565b905060008061145d606461144f8b6060015161ffff16346118c090919063ffffffff16565b6118d690919063ffffffff16565b905060008073ffffffffffffffffffffffffffffffffffffffff168b73ffffffffffffffffffffffffffffffffffffffff161415611620576114c38560040160019054906101000a900473ffffffffffffffffffffffffffffffffffffffff16856118ec565b8860600151156115a3576114fc8560040160019054906101000a900473ffffffffffffffffffffffffffffffffffffffff168d846119e0565b61155560646115478c606001518860040160009054906101000a900460ff1660ff166115289190612e54565b60646115349190612f17565b61ffff16346118c090919063ffffffff16565b6118d690919063ffffffff16565b90508773ffffffffffffffffffffffffffffffffffffffff166108fc829081150290604051600060405180830381858888f1935050505015801561159d573d6000803e3d6000fd5b5061161b565b6115e960646115db8760040160009054906101000a900460ff1660646115c99190612f7f565b60ff16346118c090919063ffffffff16565b6118d690919063ffffffff16565b905061161a8560040160019054906101000a900473ffffffffffffffffffffffffffffffffffffffff168d836119e0565b5b6117fb565b61165a606461164c8760040160159054906101000a900460ff1660ff16876118c090919063ffffffff16565b6118d690919063ffffffff16565b92506116668b846118ec565b82846116729190612f4b565b93506116a28560040160019054906101000a900473ffffffffffffffffffffffffffffffffffffffff16856118ec565b886060015115611782576116db8560040160019054906101000a900473ffffffffffffffffffffffffffffffffffffffff168d846119e0565b61173460646117268c606001518860040160009054906101000a900460ff1660ff166117079190612e54565b60646117139190612f17565b61ffff16346118c090919063ffffffff16565b6118d690919063ffffffff16565b90508773ffffffffffffffffffffffffffffffffffffffff166108fc829081150290604051600060405180830381858888f1935050505015801561177c573d6000803e3d6000fd5b506117fa565b6117c860646117ba8760040160009054906101000a900460ff1660646117a89190612f7f565b60ff16346118c090919063ffffffff16565b6118d690919063ffffffff16565b90506117f98560040160019054906101000a900473ffffffffffffffffffffffffffffffffffffffff168d836119e0565b5b5b8860600151611880576001896060019015159081151581525050888760008e8152602001908152602001600020600082015181600001556020820151816001015560408201518160020160006101000a81548160ff02191690831515021790555060608201518160020160016101000a81548160ff0219169083151502179055509050505b604051806080016040528084815260200185815260200183815260200182815250955050505050509695505050505050565b600081600001549050919050565b600081836118ce9190612ebd565b905092915050565b600081836118e49190612e8c565b905092915050565b8047101561192f576040517f08c379a000000000000000000000000000000000000000000000000000000000815260040161192690612af6565b60405180910390fd5b60008273ffffffffffffffffffffffffffffffffffffffff1682604051611955906129bb565b60006040518083038185875af1925050503d8060008114611992576040519150601f19603f3d011682016040523d82523d6000602084013e611997565b606091505b50509050806119db576040517f08c379a00000000000000000000000000000000000000000000000000000000081526004016119d290612ab6565b60405180910390fd5b505050565b60008373ffffffffffffffffffffffffffffffffffffffff1663b76c632b846040518263ffffffff1660e01b8152600401611a1b9190612c51565b60006040518083038186803b158015611a3357600080fd5b505afa158015611a47573d6000803e3d6000fd5b505050506040513d6000823e3d601f19601f82011682018060405250810190611a7091906123b6565b905060005b8151811015611b8b576000611aea6064611adc858581518110611ac1577f4e487b7100000000000000000000000000000000000000000000000000000000600052603260045260246000fd5b602002602001015160200151876118c090919063ffffffff16565b6118d690919063ffffffff16565b9050828281518110611b25577f4e487b7100000000000000000000000000000000000000000000000000000000600052603260045260246000fd5b60200260200101516000015173ffffffffffffffffffffffffffffffffffffffff166108fc829081150290604051600060405180830381858888f19350505050158015611b76573d6000803e3d6000fd5b50508080611b8390613109565b915050611a75565b5050505050565b6040518060800160405280600081526020016000815260200160008152602001600081525090565b828054611bc6906130a6565b90600052602060002090601f016020900481019282611be85760008555611c2f565b82601f10611c0157805160ff1916838001178555611c2f565b82800160010185558215611c2f579182015b82811115611c2e578251825591602001919060010190611c13565b5b509050611c3c9190611c40565b5090565b5b80821115611c59576000816000905550600101611c41565b5090565b6000611c70611c6b84612dbf565b612d9a565b90508083825260208201905082856040860282011115611c8f57600080fd5b60005b85811015611cbf5781611ca58882611ed6565b845260208401935060408301925050600181019050611c92565b5050509392505050565b6000611cdc611cd784612deb565b612d9a565b905082815260208101848484011115611cf457600080fd5b611cff848285613064565b509392505050565b600081359050611d168161362e565b92915050565b600081519050611d2b8161362e565b92915050565b600081359050611d4081613645565b92915050565b600081519050611d5581613645565b92915050565b60008083601f840112611d6d57600080fd5b8235905067ffffffffffffffff811115611d8657600080fd5b602083019150836020820283011115611d9e57600080fd5b9250929050565b600082601f830112611db657600080fd5b8151611dc6848260208601611c5d565b91505092915050565b60008083601f840112611de157600080fd5b8235905067ffffffffffffffff811115611dfa57600080fd5b602083019150836020820283011115611e1257600080fd5b9250929050565b600081359050611e288161365c565b92915050565b600081519050611e3d8161365c565b92915050565b600081359050611e5281613673565b92915050565b600081359050611e678161368a565b92915050565b600081359050611e7c816136a1565b92915050565b600081359050611e91816136b8565b92915050565b600082601f830112611ea857600080fd5b8135611eb8848260208601611cc9565b91505092915050565b600081359050611ed0816136cf565b92915050565b600060408284031215611ee857600080fd5b611ef26040612d9a565b90506000611f0284828501611d46565b6000830152506020611f16848285016120d2565b60208301525092915050565b600060808284031215611f3457600080fd5b611f3e6080612d9a565b90506000611f4e848285016120bd565b6000830152506020611f62848285016120bd565b6020830152506040611f7684828501611e19565b6040830152506060611f8a84828501611e19565b60608301525092915050565b60006101208284031215611fa957600080fd5b81905092915050565b60006101008284031215611fc557600080fd5b611fd0610100612d9a565b9050600082013567ffffffffffffffff811115611fec57600080fd5b611ff884828501611e97565b600083015250602082013567ffffffffffffffff81111561201857600080fd5b61202484828501611e97565b602083015250604061203884828501611d07565b604083015250606061204c848285016120a8565b6060830152506080612060848285016120bd565b60808301525060a0612074848285016120bd565b60a08301525060c0612088848285016120bd565b60c08301525060e061209c848285016120bd565b60e08301525092915050565b6000813590506120b7816136e6565b92915050565b6000813590506120cc816136fd565b92915050565b6000815190506120e1816136fd565b92915050565b6000602082840312156120f957600080fd5b600061210784828501611d07565b91505092915050565b60006020828403121561212257600080fd5b600061213084828501611d1c565b91505092915050565b6000806040838503121561214c57600080fd5b600061215a85828601611d31565b925050602061216b858286016120bd565b9150509250929050565b600080600080600060a0868803121561218d57600080fd5b600061219b88828901611d31565b95505060206121ac888289016120bd565b94505060406121bd88828901611e6d565b93505060606121ce888289016120bd565b92505060806121df88828901611ec1565b9150509295509295909350565b600080600080600060a0868803121561220457600080fd5b600061221288828901611d31565b9550506020612223888289016120bd565b945050604061223488828901611e82565b935050606061224588828901611e6d565b925050608061225688828901611ec1565b9150509295509295909350565b600080600080600060a0868803121561227b57600080fd5b600061228988828901611d31565b955050602061229a888289016120bd565b945050604086013567ffffffffffffffff8111156122b757600080fd5b6122c388828901611e97565b93505060606122d488828901611e58565b92505060806122e588828901611ec1565b9150509295509295909350565b60008060006060848603121561230757600080fd5b600061231586828701611d31565b9350506020612326868287016120bd565b925050604061233786828701611ec1565b9150509250925092565b6000806000806040858703121561235757600080fd5b600085013567ffffffffffffffff81111561237157600080fd5b61237d87828801611d5b565b9450945050602085013567ffffffffffffffff81111561239c57600080fd5b6123a887828801611dcf565b925092505092959194509250565b6000602082840312156123c857600080fd5b600082015167ffffffffffffffff8111156123e257600080fd5b6123ee84828501611da5565b91505092915050565b60006020828403121561240957600080fd5b600061241784828501611e2e565b91505092915050565b60006020828403121561243257600080fd5b600082013567ffffffffffffffff81111561244c57600080fd5b61245884828501611f96565b91505092915050565b60006020828403121561247357600080fd5b600082013567ffffffffffffffff81111561248d57600080fd5b61249984828501611fb2565b91505092915050565b600080600060c084860312156124b757600080fd5b600084013567ffffffffffffffff8111156124d157600080fd5b6124dd86828701611fb2565b93505060206124ee86828701611f22565b92505060a06124ff86828701611d07565b9150509250925092565b60006020828403121561251b57600080fd5b6000612529848285016120a8565b91505092915050565b600080600080600060a0868803121561254a57600080fd5b6000612558888289016120bd565b955050602061256988828901611d31565b945050604061257a88828901611e82565b935050606061258b88828901611e6d565b925050608061259c88828901611ec1565b9150509295509295909350565b600080600080600080608087890312156125c257600080fd5b60006125d089828a016120bd565b965050602087013567ffffffffffffffff8111156125ed57600080fd5b6125f989828a01611d5b565b9550955050604087013567ffffffffffffffff81111561261857600080fd5b61262489828a01611dcf565b9350935050606061263789828a01611e43565b9150509295509295509295565b6000806040838503121561265757600080fd5b6000612665858286016120bd565b925050602061267685828601611ec1565b9150509250929050565b61268981612fb3565b82525050565b61269881612fd7565b82525050565b6126a781612fe3565b82525050565b60006126b882612e1c565b6126c28185612e43565b93506126d2818560208601613073565b6126db8161320e565b840191505092915050565b60006126f3603a83612e32565b91506126fe8261321f565b604082019050919050565b6000612716602f83612e32565b91506127218261326e565b604082019050919050565b6000612739601c83612e32565b9150612744826132bd565b602082019050919050565b600061275c604183612e32565b9150612767826132e6565b606082019050919050565b600061277f603a83612e32565b915061278a8261335b565b604082019050919050565b60006127a2603083612e32565b91506127ad826133aa565b604082019050919050565b60006127c5601d83612e32565b91506127d0826133f9565b602082019050919050565b60006127e8602483612e32565b91506127f382613422565b604082019050919050565b600061280b603883612e32565b915061281682613471565b604082019050919050565b600061282e602583612e32565b9150612839826134c0565b604082019050919050565b6000612851602183612e32565b915061285c8261350f565b604082019050919050565b6000612874600083612e27565b915061287f8261355e565b600082019050919050565b6000612897601783612e32565b91506128a282613561565b602082019050919050565b60006128ba601183612e32565b91506128c58261358a565b602082019050919050565b60006128dd601b83612e32565b91506128e8826135b3565b602082019050919050565b6000612900601c83612e32565b915061290b826135dc565b602082019050919050565b6000612923601883612e32565b915061292e82613605565b602082019050919050565b60808201600082015161294f60008501826129ac565b50602082015161296260208501826129ac565b50604082015161297560408501826129ac565b50606082015161298860608501826129ac565b50505050565b6129978161304d565b82525050565b6129a68161304d565b82525050565b6129b58161304d565b82525050565b60006129c682612867565b9150819050919050565b60006020820190506129e5600083018461268f565b92915050565b6000604082019050612a00600083018561269e565b612a0d6020830184612680565b9392505050565b60006020820190508181036000830152612a2e81846126ad565b905092915050565b60006020820190508181036000830152612a4f816126e6565b9050919050565b60006020820190508181036000830152612a6f81612709565b9050919050565b60006020820190508181036000830152612a8f8161272c565b9050919050565b60006020820190508181036000830152612aaf8161274f565b9050919050565b60006020820190508181036000830152612acf81612772565b9050919050565b60006020820190508181036000830152612aef81612795565b9050919050565b60006020820190508181036000830152612b0f816127b8565b9050919050565b60006020820190508181036000830152612b2f816127db565b9050919050565b60006020820190508181036000830152612b4f816127fe565b9050919050565b60006020820190508181036000830152612b6f81612821565b9050919050565b60006020820190508181036000830152612b8f81612844565b9050919050565b60006020820190508181036000830152612baf8161288a565b9050919050565b60006020820190508181036000830152612bcf816128ad565b9050919050565b60006020820190508181036000830152612bef816128d0565b9050919050565b60006020820190508181036000830152612c0f816128f3565b9050919050565b60006020820190508181036000830152612c2f81612916565b9050919050565b6000608082019050612c4b6000830184612939565b92915050565b6000602082019050612c66600083018461298e565b92915050565b6000604082019050612c81600083018561299d565b612c8e602083018461299d565b9392505050565b60008083356001602003843603038112612cae57600080fd5b80840192508235915067ffffffffffffffff821115612ccc57600080fd5b602083019250602082023603831315612ce457600080fd5b509250929050565b60008083356001602003843603038112612d0557600080fd5b80840192508235915067ffffffffffffffff821115612d2357600080fd5b602083019250602082023603831315612d3b57600080fd5b509250929050565b60008083356001602003843603038112612d5c57600080fd5b80840192508235915067ffffffffffffffff821115612d7a57600080fd5b602083019250600182023603831315612d9257600080fd5b509250929050565b6000612da4612db5565b9050612db082826130d8565b919050565b6000604051905090565b600067ffffffffffffffff821115612dda57612dd96131df565b5b602082029050602081019050919050565b600067ffffffffffffffff821115612e0657612e056131df565b5b612e0f8261320e565b9050602081019050919050565b600081519050919050565b600081905092915050565b600082825260208201905092915050565b600082825260208201905092915050565b6000612e5f8261301f565b9150612e6a8361301f565b92508261ffff03821115612e8157612e80613152565b5b828201905092915050565b6000612e978261304d565b9150612ea28361304d565b925082612eb257612eb1613181565b5b828204905092915050565b6000612ec88261304d565b9150612ed38361304d565b9250817fffffffffffffffffffffffffffffffffffffffffffffffffffffffffffffffff0483118215151615612f0c57612f0b613152565b5b828202905092915050565b6000612f228261301f565b9150612f2d8361301f565b925082821015612f4057612f3f613152565b5b828203905092915050565b6000612f568261304d565b9150612f618361304d565b925082821015612f7457612f73613152565b5b828203905092915050565b6000612f8a82613057565b9150612f9583613057565b925082821015612fa857612fa7613152565b5b828203905092915050565b6000612fbe8261302d565b9050919050565b6000612fd08261302d565b9050919050565b60008115159050919050565b6000819050919050565b6000819050919050565b6000819050919050565b6000819050919050565b6000819050919050565b6000819050919050565b600061ffff82169050919050565b600073ffffffffffffffffffffffffffffffffffffffff82169050919050565b6000819050919050565b600060ff82169050919050565b82818337600083830152505050565b60005b83811015613091578082015181840152602081019050613076565b838111156130a0576000848401525b50505050565b600060028204905060018216806130be57607f821691505b602082108114156130d2576130d16131b0565b5b50919050565b6130e18261320e565b810181811067ffffffffffffffff82111715613100576130ff6131df565b5b80604052505050565b60006131148261304d565b91507fffffffffffffffffffffffffffffffffffffffffffffffffffffffffffffffff82141561314757613146613152565b5b600182019050919050565b7f4e487b7100000000000000000000000000000000000000000000000000000000600052601160045260246000fd5b7f4e487b7100000000000000000000000000000000000000000000000000000000600052601260045260246000fd5b7f4e487b7100000000000000000000000000000000000000000000000000000000600052602260045260246000fd5b7f4e487b7100000000000000000000000000000000000000000000000000000000600052604160045260246000fd5b6000601f19601f8301169050919050565b7f726573616c65526f79616c747950657263656e74616765206d7573742062652060008201527f67726561746572207468616e206f7220657175616c20746f2030000000000000602082015250565b7f4c69624d7573697876657273653a204f6e6c792063616c6c61626c65206f6e2060008201527f756e6c6f636b656420746f6b656e730000000000000000000000000000000000602082015250565b7f546f6b656e206e6f7420617661696c61626c6520666f722073616c6500000000600082015250565b7f636f6c6c61626f7261746f727320616e642070657263656e74616765436f6e7460008201527f7269627574696f6e73206d757374206265207468652073616d65206c656e677460208201527f6800000000000000000000000000000000000000000000000000000000000000604082015250565b7f416464726573733a20756e61626c6520746f2073656e642076616c75652c207260008201527f6563697069656e74206d61792068617665207265766572746564000000000000602082015250565b7f4c6962204d7573697876657273653a2043616c6c657220646f6573206e6f742060008201527f68617665206d696e74657220726f6c6500000000000000000000000000000000602082015250565b7f416464726573733a20696e73756666696369656e742062616c616e6365000000600082015250565b7f4e6f7420656e6f7567682076616c756520666f7220746865207472616e73616360008201527f74696f6e00000000000000000000000000000000000000000000000000000000602082015250565b7f4c69624d7573697876657273653a204d75737420626520746f6b656e206f776e60008201527f657220746f2063616c6c20746869732066756e6374696f6e0000000000000000602082015250565b7f526f79616c74792070657263656e746167652073686f756c6420626520706f7360008201527f6974697665000000000000000000000000000000000000000000000000000000602082015250565b7f596f752063616e6e6f7420707572636861736520796f7572206f776e20736f6e60008201527f6700000000000000000000000000000000000000000000000000000000000000602082015250565b50565b7f55524948617368206d7573742062652070726573656e74000000000000000000600082015250565b7f4e6f20746f6b656e7320746f206d696e74000000000000000000000000000000600082015250565b7f526563697069656e742073686f756c642062652070726573656e740000000000600082015250565b7f5072696365206d7573742062652067726561746572207468616e203000000000600082015250565b7f4c69624d7573697876657273653a20546f6b656e20444e450000000000000000600082015250565b61363781612fb3565b811461364257600080fd5b50565b61364e81612fc5565b811461365957600080fd5b50565b61366581612fd7565b811461367057600080fd5b50565b61367c81612fed565b811461368757600080fd5b50565b61369381612ff7565b811461369e57600080fd5b50565b6136aa81613001565b81146136b557600080fd5b50565b6136c18161300b565b81146136cc57600080fd5b50565b6136d881613015565b81146136e357600080fd5b50565b6136ef8161301f565b81146136fa57600080fd5b50565b6137068161304d565b811461371157600080fd5b5056fea2646970667358221220c0c766ca23a854a24611b548dc97afed199eff64ddb534e7e7d6003d5b2ec64764736f6c63430008040033",
  "linkReferences": {},
  "deployedLinkReferences": {}
}