{
  "_format": "hh-sol-artifact-1",
  "contractName": "LibMusixverse",
  "sourceName": "contracts/Musixverse/libraries/LibMusixverse.sol",
  "abi": [
    {
      "inputs": [
        {
          "components": [
            {
              "internalType": "uint16",
              "name": "amount",
              "type": "uint16"
            },
            {
              "internalType": "uint256",
              "name": "price",
              "type": "uint256"
            },
            {
              "internalType": "string",
              "name": "URIHash",
              "type": "string"
            },
            {
              "internalType": "string",
              "name": "unlockableContentURIHash",
              "type": "string"
            },
            {
              "internalType": "address[]",
              "name": "collaborators",
              "type": "address[]"
            },
            {
              "internalType": "uint16[]",
              "name": "percentageContributions",
              "type": "uint16[]"
            },
            {
              "internalType": "uint16",
              "name": "resaleRoyaltyPercentage",
              "type": "uint16"
            },
            {
              "internalType": "bool",
              "name": "onSale",
              "type": "bool"
            },
            {
              "internalType": "uint256",
              "name": "unlockTimestamp",
              "type": "uint256"
            }
          ],
          "internalType": "struct TrackNftCreationData",
          "name": "data",
          "type": "tuple"
        }
      ],
      "name": "checkForMinting",
      "outputs": [],
      "stateMutability": "view",
      "type": "function"
    },
    {
      "inputs": [
        {
          "internalType": "address[]",
          "name": "collaborators",
          "type": "address[]"
        },
        {
          "internalType": "uint16[]",
          "name": "percentageContributions",
          "type": "uint16[]"
        }
      ],
      "name": "checkForRoyalties",
      "outputs": [],
      "stateMutability": "pure",
      "type": "function"
    },
    {
      "inputs": [
        {
          "components": [
            {
              "internalType": "string",
              "name": "metadataHash",
              "type": "string"
            },
            {
              "internalType": "string",
              "name": "unlockableContentHash",
              "type": "string"
            },
            {
              "internalType": "address",
              "name": "artistAddress",
              "type": "address"
            },
            {
              "internalType": "uint16",
              "name": "resaleRoyaltyPercentage",
              "type": "uint16"
            },
            {
              "internalType": "uint256",
              "name": "unlockTimestamp",
              "type": "uint256"
            },
            {
              "internalType": "uint256",
              "name": "listingPrice",
              "type": "uint256"
            },
            {
              "internalType": "uint256",
              "name": "minTokenId",
              "type": "uint256"
            },
            {
              "internalType": "uint256",
              "name": "maxTokenId",
              "type": "uint256"
            }
          ],
          "internalType": "struct Track",
          "name": "trackNFT",
          "type": "tuple"
        },
        {
          "components": [
            {
              "internalType": "uint256",
              "name": "trackId",
              "type": "uint256"
            },
            {
              "internalType": "uint256",
              "name": "price",
              "type": "uint256"
            },
            {
              "internalType": "bool",
              "name": "onSale",
              "type": "bool"
            },
            {
              "internalType": "bool",
              "name": "soldOnce",
              "type": "bool"
            }
          ],
          "internalType": "struct Token",
          "name": "token",
          "type": "tuple"
        },
        {
          "internalType": "address",
          "name": "prevOwner",
          "type": "address"
        }
      ],
      "name": "checkForSale",
      "outputs": [],
      "stateMutability": "view",
      "type": "function"
    },
    {
      "inputs": [
        {
          "internalType": "address payable",
          "name": "PLATFORM_ADDRESS",
          "type": "address"
        },
        {
          "internalType": "uint256",
          "name": "tokenId",
          "type": "uint256"
        }
      ],
      "name": "isNFTOwner",
      "outputs": [],
      "stateMutability": "view",
      "type": "function"
    },
    {
      "inputs": [
        {
          "components": [
            {
              "internalType": "string",
              "name": "metadataHash",
              "type": "string"
            },
            {
              "internalType": "string",
              "name": "unlockableContentHash",
              "type": "string"
            },
            {
              "internalType": "address",
              "name": "artistAddress",
              "type": "address"
            },
            {
              "internalType": "uint16",
              "name": "resaleRoyaltyPercentage",
              "type": "uint16"
            },
            {
              "internalType": "uint256",
              "name": "unlockTimestamp",
              "type": "uint256"
            },
            {
              "internalType": "uint256",
              "name": "listingPrice",
              "type": "uint256"
            },
            {
              "internalType": "uint256",
              "name": "minTokenId",
              "type": "uint256"
            },
            {
              "internalType": "uint256",
              "name": "maxTokenId",
              "type": "uint256"
            }
          ],
          "internalType": "struct Track",
          "name": "trackNFT",
          "type": "tuple"
        }
      ],
      "name": "isPastUnlockTimestamp",
      "outputs": [],
      "stateMutability": "view",
      "type": "function"
    }
  ],
  "bytecode": "0x6136ca610053600b82828239805160001a607314610046577f4e487b7100000000000000000000000000000000000000000000000000000000600052600060045260246000fd5b30600052607381538281f3fe73000000000000000000000000000000000000000030146080604052600436106100be5760003560e01c8063a8ef5c7f1161007b578063a8ef5c7f146101c8578063b4196759146101e4578063cd2aeaaa14610200578063d54eaf261461021c578063e5ef446814610238578063f23becbf14610275576100be565b80630e0c4f88146100c357806322997d56146100df5780633b8a23c31461011d5780634ceeab1214610146578063537a61a7146101835780635c8686751461019f575b600080fd5b6100dd60048036038101906100d89190612460565b610291565b005b8180156100eb57600080fd5b5061010660048036038101906101019190612174565b6102da565b604051610114929190612bec565b60405180910390f35b81801561012957600080fd5b50610144600480360381019061013f9190612531565b6103a6565b005b81801561015257600080fd5b5061016d600480360381019061016891906121eb565b6106f5565b60405161017a919061296b565b60405180910390f35b61019d600480360381019061019891906124a1565b610a3a565b005b8180156101ab57600080fd5b506101c660048036038101906101c191906125a8565b610b42565b005b6101e260048036038101906101dd9190612643565b610cc3565b005b6101fe60048036038101906101f9919061241f565b610d1e565b005b61021a60048036038101906102159190612138565b610ffb565b005b610236600480360381019061023191906122f1565b6110f5565b005b81801561024457600080fd5b5061025f600480360381019061025a9190612262565b61110e565b60405161026c91906129af565b60405180910390f35b61028f600480360381019061028a9190612340565b6111ee565b005b806080015142116102d7576040517f08c379a00000000000000000000000000000000000000000000000000000000081526004016102ce906129f1565b60405180910390fd5b50565b6000806102e88787856110f5565b60008560008881526020019081526020016000209050600081600101549050858260010181905550818760008a815260200190815260200160002060008201548160000155600182015481600101556002820160009054906101000a900460ff168160020160006101000a81548160ff0219169083151502179055506002820160019054906101000a900460ff168160020160016101000a81548160ff02191690831515021790555090505080869350935050509550959350505050565b60006103b06113af565b90506103bc8683610cc3565b600083600088815260200190815260200160002060405180608001604052908160008201548152602001600182015481526020016002820160009054906101000a900460ff161515151581526020016002820160019054906101000a900460ff161515151581525050905060008560008660008b81526020019081526020016000206000015481526020019081526020016000206040518061010001604052908160008201805461046c90613026565b80601f016020809104026020016040519081016040528092919081815260200182805461049890613026565b80156104e55780601f106104ba576101008083540402835291602001916104e5565b820191906000526020600020905b8154815290600101906020018083116104c857829003601f168201915b505050505081526020016001820180546104fe90613026565b80601f016020809104026020016040519081016040528092919081815260200182805461052a90613026565b80156105775780601f1061054c57610100808354040283529160200191610577565b820191906000526020600020905b81548152906001019060200180831161055a57829003601f168201915b505050505081526020016002820160009054906101000a900473ffffffffffffffffffffffffffffffffffffffff1673ffffffffffffffffffffffffffffffffffffffff1673ffffffffffffffffffffffffffffffffffffffff1681526020016002820160149054906101000a900461ffff1661ffff1661ffff168152602001600382015481526020016004820154815260200160058201548152602001600682015481525050905060008360040160019054906101000a900473ffffffffffffffffffffffffffffffffffffffff1673ffffffffffffffffffffffffffffffffffffffff16636352211e8a6040518263ffffffff1660e01b815260040161067f9190612bd1565b60206040518083038186803b15801561069757600080fd5b505afa1580156106ab573d6000803e3d6000fd5b505050506040513d601f19601f820116820180604052508101906106cf919061210f565b90506106dc828483610a3a565b6106ea89898486858b6113b4565b505050505050505050565b60006107028686846110f5565b60008460008560008981526020019081526020016000206000015481526020019081526020016000206040518061010001604052908160008201805461074790613026565b80601f016020809104026020016040519081016040528092919081815260200182805461077390613026565b80156107c05780601f10610795576101008083540402835291602001916107c0565b820191906000526020600020905b8154815290600101906020018083116107a357829003601f168201915b505050505081526020016001820180546107d990613026565b80601f016020809104026020016040519081016040528092919081815260200182805461080590613026565b80156108525780601f1061082757610100808354040283529160200191610852565b820191906000526020600020905b81548152906001019060200180831161083557829003601f168201915b505050505081526020016002820160009054906101000a900473ffffffffffffffffffffffffffffffffffffffff1673ffffffffffffffffffffffffffffffffffffffff1673ffffffffffffffffffffffffffffffffffffffff1681526020016002820160149054906101000a900461ffff1661ffff1661ffff16815260200160038201548152602001600482015481526020016005820154815260200160068201548152505090506000846000888152602001908152602001600020905061091a82610291565b600115158160020160009054906101000a900460ff161515141561095a5760008160020160006101000a81548160ff021916908315150217905550610997565b600015158160020160009054906101000a900460ff16151514156109965760018160020160006101000a81548160ff0219169083151502179055505b5b8085600089815260200190815260200160002060008201548160000155600182015481600101556002820160009054906101000a900460ff168160020160006101000a81548160ff0219169083151502179055506002820160019054906101000a900460ff168160020160016101000a81548160ff0219169083151502179055509050508060020160009054906101000a900460ff169250505095945050505050565b610a4383610291565b8160400151610a87576040517f08c379a0000000000000000000000000000000000000000000000000000000008152600401610a7e90612a11565b60405180910390fd5b3373ffffffffffffffffffffffffffffffffffffffff168173ffffffffffffffffffffffffffffffffffffffff161415610af6576040517f08c379a0000000000000000000000000000000000000000000000000000000008152600401610aed90612b11565b60405180910390fd5b8160200151341015610b3d576040517f08c379a0000000000000000000000000000000000000000000000000000000008152600401610b3490612ab1565b60405180910390fd5b505050565b60005b85859050811015610cba578160008881526020019081526020016000206040518060400160405280888885818110610ba6577f4e487b7100000000000000000000000000000000000000000000000000000000600052603260045260246000fd5b9050602002016020810190610bbb91906120e6565b73ffffffffffffffffffffffffffffffffffffffff168152602001868685818110610c0f577f4e487b7100000000000000000000000000000000000000000000000000000000600052603260045260246000fd5b9050602002016020810190610c249190612508565b61ffff16815250908060018154018082558091505060019003906000526020600020906002020160009091909190915060008201518160000160006101000a81548173ffffffffffffffffffffffffffffffffffffffff021916908373ffffffffffffffffffffffffffffffffffffffff1602179055506020820151816001015550508080610cb290613089565b915050610b45565b50505050505050565b600082118015610cdb5750610cd7816118d9565b8211155b610d1a576040517f08c379a0000000000000000000000000000000000000000000000000000000008152600401610d1190612bb1565b60405180910390fd5b5050565b6000610d286113af565b90508060040160019054906101000a900473ffffffffffffffffffffffffffffffffffffffff1673ffffffffffffffffffffffffffffffffffffffff166391d148548260060154336040518363ffffffff1660e01b8152600401610d8d929190612986565b60206040518083038186803b158015610da557600080fd5b505afa158015610db9573d6000803e3d6000fd5b505050506040513d601f19601f82011682018060405250810190610ddd91906123f6565b610e1c576040517f08c379a0000000000000000000000000000000000000000000000000000000008152600401610e1390612a71565b60405180910390fd5b6000826000016020810190610e319190612508565b61ffff1611610e75576040517f08c379a0000000000000000000000000000000000000000000000000000000008152600401610e6c90612b51565b60405180910390fd5b6000826020013511610ebc576040517f08c379a0000000000000000000000000000000000000000000000000000000008152600401610eb390612b91565b60405180910390fd5b6000828060400190610ece9190612cc3565b90501415610f11576040517f08c379a0000000000000000000000000000000000000000000000000000000008152600401610f0890612b31565b60405180910390fd5b818060a00190610f219190612c6c565b9050828060800190610f339190612c15565b905014610f75576040517f08c379a0000000000000000000000000000000000000000000000000000000008152600401610f6c90612a31565b60405180910390fd5b60008260c0016020810190610f8a9190612508565b61ffff161015610fcf576040517f08c379a0000000000000000000000000000000000000000000000000000000008152600401610fc6906129d1565b60405180910390fd5b610ff7828060800190610fe29190612c15565b848060a00190610ff29190612c6c565b6111ee565b5050565b3373ffffffffffffffffffffffffffffffffffffffff168273ffffffffffffffffffffffffffffffffffffffff16636352211e836040518263ffffffff1660e01b815260040161104b9190612bd1565b60206040518083038186803b15801561106357600080fd5b505afa158015611077573d6000803e3d6000fd5b505050506040513d601f19601f8201168201806040525081019061109b919061210f565b73ffffffffffffffffffffffffffffffffffffffff16146110f1576040517f08c379a00000000000000000000000000000000000000000000000000000000081526004016110e890612ad1565b60405180910390fd5b5050565b6110ff8282610cc3565b6111098383610ffb565b505050565b606061111b8686846110f5565b6000836000878152602001908152602001600020805461113a90613026565b80601f016020809104026020016040519081016040528092919081815260200182805461116690613026565b80156111b35780601f10611188576101008083540402835291602001916111b3565b820191906000526020600020905b81548152906001019060200180831161119657829003601f168201915b505050505090508484600088815260200190815260200160002090805190602001906111e0929190611bb9565b508091505095945050505050565b818190508484905014611236576040517f08c379a000000000000000000000000000000000000000000000000000000000815260040161122d90612a31565b60405180910390fd5b60005b848490508110156113a857600073ffffffffffffffffffffffffffffffffffffffff16858583818110611295577f4e487b7100000000000000000000000000000000000000000000000000000000600052603260045260246000fd5b90506020020160208101906112aa91906120e6565b73ffffffffffffffffffffffffffffffffffffffff161415611301576040517f08c379a00000000000000000000000000000000000000000000000000000000081526004016112f890612b71565b60405180910390fd5b600083838381811061133c577f4e487b7100000000000000000000000000000000000000000000000000000000600052603260045260246000fd5b90506020020160208101906113519190612508565b61ffff1611611395576040517f08c379a000000000000000000000000000000000000000000000000000000000815260040161138c90612af1565b60405180910390fd5b80806113a090613089565b915050611239565b5050505050565b600090565b60006113be6113af565b9050600073ffffffffffffffffffffffffffffffffffffffff168673ffffffffffffffffffffffffffffffffffffffff1614156115f857600061143160646114238460040160009054906101000a900460ff1660ff16346118e790919063ffffffff16565b6118fd90919063ffffffff16565b90506114618260040160019054906101000a900473ffffffffffffffffffffffffffffffffffffffff1682611913565b84606001511561157757600061149b606461148d896060015161ffff16346118e790919063ffffffff16565b6118fd90919063ffffffff16565b90506114cc8360040160019054906101000a900473ffffffffffffffffffffffffffffffffffffffff168a83611a07565b600061152760646115198a606001518760040160009054906101000a900460ff1660ff166114fa9190612dd4565b60646115069190612e97565b61ffff16346118e790919063ffffffff16565b6118fd90919063ffffffff16565b90508573ffffffffffffffffffffffffffffffffffffffff166108fc829081150290604051600060405180830381858888f1935050505015801561156f573d6000803e3d6000fd5b5050506115f2565b60006115bf60646115b18560040160009054906101000a900460ff16606461159f9190612eff565b60ff16346118e790919063ffffffff16565b6118fd90919063ffffffff16565b90506115f08360040160019054906101000a900473ffffffffffffffffffffffffffffffffffffffff168a83611a07565b505b5061184b565b600061163460646116268460040160009054906101000a900460ff1660ff16346118e790919063ffffffff16565b6118fd90919063ffffffff16565b9050600061167260646116648560040160159054906101000a900460ff1660ff16856118e790919063ffffffff16565b6118fd90919063ffffffff16565b905061167e8882611913565b6116b78360040160019054906101000a900473ffffffffffffffffffffffffffffffffffffffff1682846116b29190612ecb565b611913565b8560600151156117cd5760006116f160646116e38a6060015161ffff16346118e790919063ffffffff16565b6118fd90919063ffffffff16565b90506117228460040160019054906101000a900473ffffffffffffffffffffffffffffffffffffffff168b83611a07565b600061177d606461176f8b606001518860040160009054906101000a900460ff1660ff166117509190612dd4565b606461175c9190612e97565b61ffff16346118e790919063ffffffff16565b6118fd90919063ffffffff16565b90508673ffffffffffffffffffffffffffffffffffffffff166108fc829081150290604051600060405180830381858888f193505050501580156117c5573d6000803e3d6000fd5b505050611848565b600061181560646118078660040160009054906101000a900460ff1660646117f59190612eff565b60ff16346118e790919063ffffffff16565b6118fd90919063ffffffff16565b90506118468460040160019054906101000a900473ffffffffffffffffffffffffffffffffffffffff168b83611a07565b505b50505b83606001516118d057600184606001901515908115158152505083826000898152602001908152602001600020600082015181600001556020820151816001015560408201518160020160006101000a81548160ff02191690831515021790555060608201518160020160016101000a81548160ff0219169083151502179055509050505b50505050505050565b600081600001549050919050565b600081836118f59190612e3d565b905092915050565b6000818361190b9190612e0c565b905092915050565b80471015611956576040517f08c379a000000000000000000000000000000000000000000000000000000000815260040161194d90612a91565b60405180910390fd5b60008273ffffffffffffffffffffffffffffffffffffffff168260405161197c90612956565b60006040518083038185875af1925050503d80600081146119b9576040519150601f19603f3d011682016040523d82523d6000602084013e6119be565b606091505b5050905080611a02576040517f08c379a00000000000000000000000000000000000000000000000000000000081526004016119f990612a51565b60405180910390fd5b505050565b60008373ffffffffffffffffffffffffffffffffffffffff1663b76c632b846040518263ffffffff1660e01b8152600401611a429190612bd1565b60006040518083038186803b158015611a5a57600080fd5b505afa158015611a6e573d6000803e3d6000fd5b505050506040513d6000823e3d601f19601f82011682018060405250810190611a9791906123b5565b905060005b8151811015611bb2576000611b116064611b03858581518110611ae8577f4e487b7100000000000000000000000000000000000000000000000000000000600052603260045260246000fd5b602002602001015160200151876118e790919063ffffffff16565b6118fd90919063ffffffff16565b9050828281518110611b4c577f4e487b7100000000000000000000000000000000000000000000000000000000600052603260045260246000fd5b60200260200101516000015173ffffffffffffffffffffffffffffffffffffffff166108fc829081150290604051600060405180830381858888f19350505050158015611b9d573d6000803e3d6000fd5b50508080611baa90613089565b915050611a9c565b5050505050565b828054611bc590613026565b90600052602060002090601f016020900481019282611be75760008555611c2e565b82601f10611c0057805160ff1916838001178555611c2e565b82800160010185558215611c2e579182015b82811115611c2d578251825591602001919060010190611c12565b5b509050611c3b9190611c3f565b5090565b5b80821115611c58576000816000905550600101611c40565b5090565b6000611c6f611c6a84612d3f565b612d1a565b90508083825260208201905082856040860282011115611c8e57600080fd5b60005b85811015611cbe5781611ca48882611ed5565b845260208401935060408301925050600181019050611c91565b5050509392505050565b6000611cdb611cd684612d6b565b612d1a565b905082815260208101848484011115611cf357600080fd5b611cfe848285612fe4565b509392505050565b600081359050611d15816135ae565b92915050565b600081519050611d2a816135ae565b92915050565b600081359050611d3f816135c5565b92915050565b600081519050611d54816135c5565b92915050565b60008083601f840112611d6c57600080fd5b8235905067ffffffffffffffff811115611d8557600080fd5b602083019150836020820283011115611d9d57600080fd5b9250929050565b600082601f830112611db557600080fd5b8151611dc5848260208601611c5c565b91505092915050565b60008083601f840112611de057600080fd5b8235905067ffffffffffffffff811115611df957600080fd5b602083019150836020820283011115611e1157600080fd5b9250929050565b600081359050611e27816135dc565b92915050565b600081519050611e3c816135dc565b92915050565b600081359050611e51816135f3565b92915050565b600081359050611e668161360a565b92915050565b600081359050611e7b81613621565b92915050565b600081359050611e9081613638565b92915050565b600082601f830112611ea757600080fd5b8135611eb7848260208601611cc8565b91505092915050565b600081359050611ecf8161364f565b92915050565b600060408284031215611ee757600080fd5b611ef16040612d1a565b90506000611f0184828501611d45565b6000830152506020611f15848285016120d1565b60208301525092915050565b600060808284031215611f3357600080fd5b611f3d6080612d1a565b90506000611f4d848285016120bc565b6000830152506020611f61848285016120bc565b6020830152506040611f7584828501611e18565b6040830152506060611f8984828501611e18565b60608301525092915050565b60006101208284031215611fa857600080fd5b81905092915050565b60006101008284031215611fc457600080fd5b611fcf610100612d1a565b9050600082013567ffffffffffffffff811115611feb57600080fd5b611ff784828501611e96565b600083015250602082013567ffffffffffffffff81111561201757600080fd5b61202384828501611e96565b602083015250604061203784828501611d06565b604083015250606061204b848285016120a7565b606083015250608061205f848285016120bc565b60808301525060a0612073848285016120bc565b60a08301525060c0612087848285016120bc565b60c08301525060e061209b848285016120bc565b60e08301525092915050565b6000813590506120b681613666565b92915050565b6000813590506120cb8161367d565b92915050565b6000815190506120e08161367d565b92915050565b6000602082840312156120f857600080fd5b600061210684828501611d06565b91505092915050565b60006020828403121561212157600080fd5b600061212f84828501611d1b565b91505092915050565b6000806040838503121561214b57600080fd5b600061215985828601611d30565b925050602061216a858286016120bc565b9150509250929050565b600080600080600060a0868803121561218c57600080fd5b600061219a88828901611d30565b95505060206121ab888289016120bc565b94505060406121bc88828901611e6c565b93505060606121cd888289016120bc565b92505060806121de88828901611ec0565b9150509295509295909350565b600080600080600060a0868803121561220357600080fd5b600061221188828901611d30565b9550506020612222888289016120bc565b945050604061223388828901611e81565b935050606061224488828901611e6c565b925050608061225588828901611ec0565b9150509295509295909350565b600080600080600060a0868803121561227a57600080fd5b600061228888828901611d30565b9550506020612299888289016120bc565b945050604086013567ffffffffffffffff8111156122b657600080fd5b6122c288828901611e96565b93505060606122d388828901611e57565b92505060806122e488828901611ec0565b9150509295509295909350565b60008060006060848603121561230657600080fd5b600061231486828701611d30565b9350506020612325868287016120bc565b925050604061233686828701611ec0565b9150509250925092565b6000806000806040858703121561235657600080fd5b600085013567ffffffffffffffff81111561237057600080fd5b61237c87828801611d5a565b9450945050602085013567ffffffffffffffff81111561239b57600080fd5b6123a787828801611dce565b925092505092959194509250565b6000602082840312156123c757600080fd5b600082015167ffffffffffffffff8111156123e157600080fd5b6123ed84828501611da4565b91505092915050565b60006020828403121561240857600080fd5b600061241684828501611e2d565b91505092915050565b60006020828403121561243157600080fd5b600082013567ffffffffffffffff81111561244b57600080fd5b61245784828501611f95565b91505092915050565b60006020828403121561247257600080fd5b600082013567ffffffffffffffff81111561248c57600080fd5b61249884828501611fb1565b91505092915050565b600080600060c084860312156124b657600080fd5b600084013567ffffffffffffffff8111156124d057600080fd5b6124dc86828701611fb1565b93505060206124ed86828701611f21565b92505060a06124fe86828701611d06565b9150509250925092565b60006020828403121561251a57600080fd5b6000612528848285016120a7565b91505092915050565b600080600080600060a0868803121561254957600080fd5b6000612557888289016120bc565b955050602061256888828901611d30565b945050604061257988828901611e81565b935050606061258a88828901611e6c565b925050608061259b88828901611ec0565b9150509295509295909350565b600080600080600080608087890312156125c157600080fd5b60006125cf89828a016120bc565b965050602087013567ffffffffffffffff8111156125ec57600080fd5b6125f889828a01611d5a565b9550955050604087013567ffffffffffffffff81111561261757600080fd5b61262389828a01611dce565b9350935050606061263689828a01611e42565b9150509295509295509295565b6000806040838503121561265657600080fd5b6000612664858286016120bc565b925050602061267585828601611ec0565b9150509250929050565b61268881612f33565b82525050565b61269781612f57565b82525050565b6126a681612f63565b82525050565b60006126b782612d9c565b6126c18185612dc3565b93506126d1818560208601612ff3565b6126da8161318e565b840191505092915050565b60006126f2603a83612db2565b91506126fd8261319f565b604082019050919050565b6000612715602f83612db2565b9150612720826131ee565b604082019050919050565b6000612738601c83612db2565b91506127438261323d565b602082019050919050565b600061275b604183612db2565b915061276682613266565b606082019050919050565b600061277e603a83612db2565b9150612789826132db565b604082019050919050565b60006127a1603083612db2565b91506127ac8261332a565b604082019050919050565b60006127c4601d83612db2565b91506127cf82613379565b602082019050919050565b60006127e7602483612db2565b91506127f2826133a2565b604082019050919050565b600061280a603883612db2565b9150612815826133f1565b604082019050919050565b600061282d602583612db2565b915061283882613440565b604082019050919050565b6000612850602183612db2565b915061285b8261348f565b604082019050919050565b6000612873600083612da7565b915061287e826134de565b600082019050919050565b6000612896601783612db2565b91506128a1826134e1565b602082019050919050565b60006128b9601183612db2565b91506128c48261350a565b602082019050919050565b60006128dc601b83612db2565b91506128e782613533565b602082019050919050565b60006128ff601c83612db2565b915061290a8261355c565b602082019050919050565b6000612922601883612db2565b915061292d82613585565b602082019050919050565b61294181612fcd565b82525050565b61295081612fcd565b82525050565b600061296182612866565b9150819050919050565b6000602082019050612980600083018461268e565b92915050565b600060408201905061299b600083018561269d565b6129a8602083018461267f565b9392505050565b600060208201905081810360008301526129c981846126ac565b905092915050565b600060208201905081810360008301526129ea816126e5565b9050919050565b60006020820190508181036000830152612a0a81612708565b9050919050565b60006020820190508181036000830152612a2a8161272b565b9050919050565b60006020820190508181036000830152612a4a8161274e565b9050919050565b60006020820190508181036000830152612a6a81612771565b9050919050565b60006020820190508181036000830152612a8a81612794565b9050919050565b60006020820190508181036000830152612aaa816127b7565b9050919050565b60006020820190508181036000830152612aca816127da565b9050919050565b60006020820190508181036000830152612aea816127fd565b9050919050565b60006020820190508181036000830152612b0a81612820565b9050919050565b60006020820190508181036000830152612b2a81612843565b9050919050565b60006020820190508181036000830152612b4a81612889565b9050919050565b60006020820190508181036000830152612b6a816128ac565b9050919050565b60006020820190508181036000830152612b8a816128cf565b9050919050565b60006020820190508181036000830152612baa816128f2565b9050919050565b60006020820190508181036000830152612bca81612915565b9050919050565b6000602082019050612be66000830184612938565b92915050565b6000604082019050612c016000830185612947565b612c0e6020830184612947565b9392505050565b60008083356001602003843603038112612c2e57600080fd5b80840192508235915067ffffffffffffffff821115612c4c57600080fd5b602083019250602082023603831315612c6457600080fd5b509250929050565b60008083356001602003843603038112612c8557600080fd5b80840192508235915067ffffffffffffffff821115612ca357600080fd5b602083019250602082023603831315612cbb57600080fd5b509250929050565b60008083356001602003843603038112612cdc57600080fd5b80840192508235915067ffffffffffffffff821115612cfa57600080fd5b602083019250600182023603831315612d1257600080fd5b509250929050565b6000612d24612d35565b9050612d308282613058565b919050565b6000604051905090565b600067ffffffffffffffff821115612d5a57612d5961315f565b5b602082029050602081019050919050565b600067ffffffffffffffff821115612d8657612d8561315f565b5b612d8f8261318e565b9050602081019050919050565b600081519050919050565b600081905092915050565b600082825260208201905092915050565b600082825260208201905092915050565b6000612ddf82612f9f565b9150612dea83612f9f565b92508261ffff03821115612e0157612e006130d2565b5b828201905092915050565b6000612e1782612fcd565b9150612e2283612fcd565b925082612e3257612e31613101565b5b828204905092915050565b6000612e4882612fcd565b9150612e5383612fcd565b9250817fffffffffffffffffffffffffffffffffffffffffffffffffffffffffffffffff0483118215151615612e8c57612e8b6130d2565b5b828202905092915050565b6000612ea282612f9f565b9150612ead83612f9f565b925082821015612ec057612ebf6130d2565b5b828203905092915050565b6000612ed682612fcd565b9150612ee183612fcd565b925082821015612ef457612ef36130d2565b5b828203905092915050565b6000612f0a82612fd7565b9150612f1583612fd7565b925082821015612f2857612f276130d2565b5b828203905092915050565b6000612f3e82612fad565b9050919050565b6000612f5082612fad565b9050919050565b60008115159050919050565b6000819050919050565b6000819050919050565b6000819050919050565b6000819050919050565b6000819050919050565b6000819050919050565b600061ffff82169050919050565b600073ffffffffffffffffffffffffffffffffffffffff82169050919050565b6000819050919050565b600060ff82169050919050565b82818337600083830152505050565b60005b83811015613011578082015181840152602081019050612ff6565b83811115613020576000848401525b50505050565b6000600282049050600182168061303e57607f821691505b6020821081141561305257613051613130565b5b50919050565b6130618261318e565b810181811067ffffffffffffffff821117156130805761307f61315f565b5b80604052505050565b600061309482612fcd565b91507fffffffffffffffffffffffffffffffffffffffffffffffffffffffffffffffff8214156130c7576130c66130d2565b5b600182019050919050565b7f4e487b7100000000000000000000000000000000000000000000000000000000600052601160045260246000fd5b7f4e487b7100000000000000000000000000000000000000000000000000000000600052601260045260246000fd5b7f4e487b7100000000000000000000000000000000000000000000000000000000600052602260045260246000fd5b7f4e487b7100000000000000000000000000000000000000000000000000000000600052604160045260246000fd5b6000601f19601f8301169050919050565b7f726573616c65526f79616c747950657263656e74616765206d7573742062652060008201527f67726561746572207468616e206f7220657175616c20746f2030000000000000602082015250565b7f4c69624d7573697876657273653a204f6e6c792063616c6c61626c65206f6e2060008201527f756e6c6f636b656420746f6b656e730000000000000000000000000000000000602082015250565b7f546f6b656e206e6f7420617661696c61626c6520666f722073616c6500000000600082015250565b7f636f6c6c61626f7261746f727320616e642070657263656e74616765436f6e7460008201527f7269627574696f6e73206d757374206265207468652073616d65206c656e677460208201527f6800000000000000000000000000000000000000000000000000000000000000604082015250565b7f416464726573733a20756e61626c6520746f2073656e642076616c75652c207260008201527f6563697069656e74206d61792068617665207265766572746564000000000000602082015250565b7f4c6962204d7573697876657273653a2043616c6c657220646f6573206e6f742060008201527f68617665206d696e74657220726f6c6500000000000000000000000000000000602082015250565b7f416464726573733a20696e73756666696369656e742062616c616e6365000000600082015250565b7f4e6f7420656e6f7567682076616c756520666f7220746865207472616e73616360008201527f74696f6e00000000000000000000000000000000000000000000000000000000602082015250565b7f4c69624d7573697876657273653a204d75737420626520746f6b656e206f776e60008201527f657220746f2063616c6c20746869732066756e6374696f6e0000000000000000602082015250565b7f526f79616c74792070657263656e746167652073686f756c6420626520706f7360008201527f6974697665000000000000000000000000000000000000000000000000000000602082015250565b7f596f752063616e6e6f7420707572636861736520796f7572206f776e20736f6e60008201527f6700000000000000000000000000000000000000000000000000000000000000602082015250565b50565b7f55524948617368206d7573742062652070726573656e74000000000000000000600082015250565b7f4e6f20746f6b656e7320746f206d696e74000000000000000000000000000000600082015250565b7f526563697069656e742073686f756c642062652070726573656e740000000000600082015250565b7f5072696365206d7573742062652067726561746572207468616e203000000000600082015250565b7f4c69624d7573697876657273653a20546f6b656e20444e450000000000000000600082015250565b6135b781612f33565b81146135c257600080fd5b50565b6135ce81612f45565b81146135d957600080fd5b50565b6135e581612f57565b81146135f057600080fd5b50565b6135fc81612f6d565b811461360757600080fd5b50565b61361381612f77565b811461361e57600080fd5b50565b61362a81612f81565b811461363557600080fd5b50565b61364181612f8b565b811461364c57600080fd5b50565b61365881612f95565b811461366357600080fd5b50565b61366f81612f9f565b811461367a57600080fd5b50565b61368681612fcd565b811461369157600080fd5b5056fea26469706673582212204ddc31dfa3e11496d3bf953218c3b11a4aed399e95da0f45fe8138603476f48364736f6c63430008040033",
  "linkReferences": {},
  "deployedLinkReferences": {}
}