{
    "_format": "hh-sol-artifact-1",
    "contractName": "MusixverseFacet",
    "sourceName": "contracts/Musixverse/facets/MusixverseFacet.sol",
    "abi": [
        {
            "inputs": [
                {
                    "internalType": "string",
                    "name": "baseURI_",
                    "type": "string"
                },
                {
                    "internalType": "string",
                    "name": "contractURI_",
                    "type": "string"
                }
            ],
            "stateMutability": "nonpayable",
            "type": "constructor"
        },
        {
            "anonymous": false,
            "inputs": [
                {
                    "indexed": true,
                    "internalType": "address",
                    "name": "account",
                    "type": "address"
                },
                {
                    "indexed": true,
                    "internalType": "address",
                    "name": "operator",
                    "type": "address"
                },
                {
                    "indexed": false,
                    "internalType": "bool",
                    "name": "approved",
                    "type": "bool"
                }
            ],
            "name": "ApprovalForAll",
            "type": "event"
        },
        {
            "anonymous": false,
            "inputs": [
                {
                    "indexed": true,
                    "internalType": "address",
                    "name": "caller",
                    "type": "address"
                },
                {
                    "indexed": true,
                    "internalType": "address",
                    "name": "artistAddress",
                    "type": "address"
                },
                {
                    "indexed": false,
                    "internalType": "string",
                    "name": "username",
                    "type": "string"
                },
                {
                    "indexed": true,
                    "internalType": "string",
                    "name": "indexedUsername",
                    "type": "string"
                }
            ],
            "name": "ArtistVerified",
            "type": "event"
        },
        {
            "anonymous": false,
            "inputs": [
                {
                    "indexed": false,
                    "internalType": "address",
                    "name": "account",
                    "type": "address"
                }
            ],
            "name": "Paused",
            "type": "event"
        },
        {
            "anonymous": false,
            "inputs": [
                {
                    "indexed": true,
                    "internalType": "address",
                    "name": "caller",
                    "type": "address"
                },
                {
                    "indexed": true,
                    "internalType": "uint256",
                    "name": "tokenId",
                    "type": "uint256"
                },
                {
                    "indexed": false,
                    "internalType": "string",
                    "name": "previousComment",
                    "type": "string"
                },
                {
                    "indexed": false,
                    "internalType": "string",
                    "name": "newComment",
                    "type": "string"
                }
            ],
            "name": "TokenCommentUpdated",
            "type": "event"
        },
        {
            "anonymous": false,
            "inputs": [
                {
                    "indexed": true,
                    "internalType": "address",
                    "name": "creator",
                    "type": "address"
                },
                {
                    "indexed": true,
                    "internalType": "uint256",
                    "name": "trackId",
                    "type": "uint256"
                },
                {
                    "indexed": true,
                    "internalType": "uint256",
                    "name": "tokenId",
                    "type": "uint256"
                },
                {
                    "indexed": false,
                    "internalType": "uint256",
                    "name": "price",
                    "type": "uint256"
                },
                {
                    "indexed": false,
                    "internalType": "uint256",
                    "name": "localTokenId",
                    "type": "uint256"
                }
            ],
            "name": "TokenCreated",
            "type": "event"
        },
        {
            "anonymous": false,
            "inputs": [
                {
                    "indexed": true,
                    "internalType": "address",
                    "name": "caller",
                    "type": "address"
                },
                {
                    "indexed": true,
                    "internalType": "uint256",
                    "name": "tokenId",
                    "type": "uint256"
                },
                {
                    "indexed": false,
                    "internalType": "bool",
                    "name": "onSale",
                    "type": "bool"
                }
            ],
            "name": "TokenOnSaleUpdated",
            "type": "event"
        },
        {
            "anonymous": false,
            "inputs": [
                {
                    "indexed": true,
                    "internalType": "address",
                    "name": "caller",
                    "type": "address"
                },
                {
                    "indexed": true,
                    "internalType": "uint256",
                    "name": "tokenId",
                    "type": "uint256"
                },
                {
                    "indexed": false,
                    "internalType": "uint256",
                    "name": "oldPrice",
                    "type": "uint256"
                },
                {
                    "indexed": false,
                    "internalType": "uint256",
                    "name": "newPrice",
                    "type": "uint256"
                }
            ],
            "name": "TokenPriceUpdated",
            "type": "event"
        },
        {
            "anonymous": false,
            "inputs": [
                {
                    "indexed": true,
                    "internalType": "uint256",
                    "name": "tokenId",
                    "type": "uint256"
                },
                {
                    "indexed": true,
                    "internalType": "address",
                    "name": "referrer",
                    "type": "address"
                },
                {
                    "indexed": false,
                    "internalType": "address",
                    "name": "previousOwner",
                    "type": "address"
                },
                {
                    "indexed": true,
                    "internalType": "address",
                    "name": "newOwner",
                    "type": "address"
                },
                {
                    "indexed": false,
                    "internalType": "uint256",
                    "name": "price",
                    "type": "uint256"
                }
            ],
            "name": "TokenPurchased",
            "type": "event"
        },
        {
            "anonymous": false,
            "inputs": [
                {
                    "indexed": true,
                    "internalType": "address",
                    "name": "creator",
                    "type": "address"
                },
                {
                    "indexed": true,
                    "internalType": "uint256",
                    "name": "trackId",
                    "type": "uint256"
                },
                {
                    "indexed": false,
                    "internalType": "uint256",
                    "name": "maxTokenId",
                    "type": "uint256"
                },
                {
                    "indexed": false,
                    "internalType": "uint256",
                    "name": "price",
                    "type": "uint256"
                },
                {
                    "indexed": false,
                    "internalType": "string",
                    "name": "URIHash",
                    "type": "string"
                },
                {
                    "indexed": true,
                    "internalType": "string",
                    "name": "indexedURIHash",
                    "type": "string"
                }
            ],
            "name": "TrackMinted",
            "type": "event"
        },
        {
            "anonymous": false,
            "inputs": [
                {
                    "indexed": true,
                    "internalType": "address",
                    "name": "operator",
                    "type": "address"
                },
                {
                    "indexed": true,
                    "internalType": "address",
                    "name": "from",
                    "type": "address"
                },
                {
                    "indexed": true,
                    "internalType": "address",
                    "name": "to",
                    "type": "address"
                },
                {
                    "indexed": false,
                    "internalType": "uint256[]",
                    "name": "ids",
                    "type": "uint256[]"
                },
                {
                    "indexed": false,
                    "internalType": "uint256[]",
                    "name": "values",
                    "type": "uint256[]"
                }
            ],
            "name": "TransferBatch",
            "type": "event"
        },
        {
            "anonymous": false,
            "inputs": [
                {
                    "indexed": true,
                    "internalType": "address",
                    "name": "operator",
                    "type": "address"
                },
                {
                    "indexed": true,
                    "internalType": "address",
                    "name": "from",
                    "type": "address"
                },
                {
                    "indexed": true,
                    "internalType": "address",
                    "name": "to",
                    "type": "address"
                },
                {
                    "indexed": false,
                    "internalType": "uint256",
                    "name": "id",
                    "type": "uint256"
                },
                {
                    "indexed": false,
                    "internalType": "uint256",
                    "name": "value",
                    "type": "uint256"
                }
            ],
            "name": "TransferSingle",
            "type": "event"
        },
        {
            "anonymous": false,
            "inputs": [
                {
                    "indexed": false,
                    "internalType": "string",
                    "name": "value",
                    "type": "string"
                },
                {
                    "indexed": true,
                    "internalType": "uint256",
                    "name": "id",
                    "type": "uint256"
                }
            ],
            "name": "URI",
            "type": "event"
        },
        {
            "anonymous": false,
            "inputs": [
                {
                    "indexed": false,
                    "internalType": "address",
                    "name": "account",
                    "type": "address"
                }
            ],
            "name": "Unpaused",
            "type": "event"
        },
        {
            "inputs": [
                {
                    "internalType": "string",
                    "name": "baseURI_",
                    "type": "string"
                },
                {
                    "internalType": "string",
                    "name": "contractURI_",
                    "type": "string"
                }
            ],
            "name": "__Musixverse_init_unchained",
            "outputs": [],
            "stateMutability": "nonpayable",
            "type": "function"
        },
        {
            "inputs": [
                {
                    "internalType": "address",
                    "name": "account",
                    "type": "address"
                },
                {
                    "internalType": "uint256",
                    "name": "id",
                    "type": "uint256"
                }
            ],
            "name": "balanceOf",
            "outputs": [
                {
                    "internalType": "uint256",
                    "name": "",
                    "type": "uint256"
                }
            ],
            "stateMutability": "view",
            "type": "function"
        },
        {
            "inputs": [
                {
                    "internalType": "address[]",
                    "name": "accounts",
                    "type": "address[]"
                },
                {
                    "internalType": "uint256[]",
                    "name": "ids",
                    "type": "uint256[]"
                }
            ],
            "name": "balanceOfBatch",
            "outputs": [
                {
                    "internalType": "uint256[]",
                    "name": "",
                    "type": "uint256[]"
                }
            ],
            "stateMutability": "view",
            "type": "function"
        },
        {
            "inputs": [
                {
                    "internalType": "address",
                    "name": "account",
                    "type": "address"
                },
                {
                    "internalType": "address",
                    "name": "operator",
                    "type": "address"
                }
            ],
            "name": "isApprovedForAll",
            "outputs": [
                {
                    "internalType": "bool",
                    "name": "",
                    "type": "bool"
                }
            ],
            "stateMutability": "view",
            "type": "function"
        },
        {
            "inputs": [
                {
                    "components": [
                        {
                            "internalType": "uint16",
                            "name": "amount",
                            "type": "uint16"
                        },
                        {
                            "internalType": "uint256",
                            "name": "price",
                            "type": "uint256"
                        },
                        {
                            "internalType": "string",
                            "name": "URIHash",
                            "type": "string"
                        },
                        {
                            "internalType": "string",
                            "name": "unlockableContentURIHash",
                            "type": "string"
                        },
                        {
                            "internalType": "address[]",
                            "name": "collaborators",
                            "type": "address[]"
                        },
                        {
                            "internalType": "uint16[]",
                            "name": "percentageContributions",
                            "type": "uint16[]"
                        },
                        {
                            "internalType": "uint16",
                            "name": "resaleRoyaltyPercentage",
                            "type": "uint16"
                        },
                        {
                            "internalType": "bool",
                            "name": "onSale",
                            "type": "bool"
                        },
                        {
                            "internalType": "uint256",
                            "name": "unlockTimestamp",
                            "type": "uint256"
                        }
                    ],
                    "internalType": "struct TrackNftCreationData",
                    "name": "data",
                    "type": "tuple"
                }
            ],
            "name": "mintTrackNFT",
            "outputs": [],
            "stateMutability": "nonpayable",
            "type": "function"
        },
        {
            "inputs": [
                {
                    "internalType": "uint256",
                    "name": "tokenId",
                    "type": "uint256"
                }
            ],
            "name": "ownerOf",
            "outputs": [
                {
                    "internalType": "address",
                    "name": "",
                    "type": "address"
                }
            ],
            "stateMutability": "view",
            "type": "function"
        },
        {
            "inputs": [],
            "name": "pause",
            "outputs": [],
            "stateMutability": "nonpayable",
            "type": "function"
        },
        {
            "inputs": [],
            "name": "paused",
            "outputs": [
                {
                    "internalType": "bool",
                    "name": "",
                    "type": "bool"
                }
            ],
            "stateMutability": "view",
            "type": "function"
        },
        {
            "inputs": [
                {
                    "internalType": "uint256",
                    "name": "tokenId",
                    "type": "uint256"
                },
                {
                    "internalType": "uint256",
                    "name": "trackId",
                    "type": "uint256"
                },
                {
                    "internalType": "address payable",
                    "name": "referrer",
                    "type": "address"
                }
            ],
            "name": "purchaseTrackNFT",
            "outputs": [],
            "stateMutability": "payable",
            "type": "function"
        },
        {
            "inputs": [
                {
                    "internalType": "address",
                    "name": "from",
                    "type": "address"
                },
                {
                    "internalType": "address",
                    "name": "to",
                    "type": "address"
                },
                {
                    "internalType": "uint256[]",
                    "name": "ids",
                    "type": "uint256[]"
                },
                {
                    "internalType": "uint256[]",
                    "name": "amounts",
                    "type": "uint256[]"
                },
                {
                    "internalType": "bytes",
                    "name": "data",
                    "type": "bytes"
                }
            ],
            "name": "safeBatchTransferFrom",
            "outputs": [],
            "stateMutability": "nonpayable",
            "type": "function"
        },
        {
            "inputs": [
                {
                    "internalType": "address",
                    "name": "from",
                    "type": "address"
                },
                {
                    "internalType": "address",
                    "name": "to",
                    "type": "address"
                },
                {
                    "internalType": "uint256",
                    "name": "id",
                    "type": "uint256"
                },
                {
                    "internalType": "uint256",
                    "name": "amount",
                    "type": "uint256"
                },
                {
                    "internalType": "bytes",
                    "name": "data",
                    "type": "bytes"
                }
            ],
            "name": "safeTransferFrom",
            "outputs": [],
            "stateMutability": "nonpayable",
            "type": "function"
        },
        {
            "inputs": [
                {
                    "internalType": "address",
                    "name": "operator",
                    "type": "address"
                },
                {
                    "internalType": "bool",
                    "name": "approved",
                    "type": "bool"
                }
            ],
            "name": "setApprovalForAll",
            "outputs": [],
            "stateMutability": "nonpayable",
            "type": "function"
        },
        {
            "inputs": [
                {
                    "internalType": "bytes4",
                    "name": "interfaceId",
                    "type": "bytes4"
                }
            ],
            "name": "supportsInterface",
            "outputs": [
                {
                    "internalType": "bool",
                    "name": "",
                    "type": "bool"
                }
            ],
            "stateMutability": "view",
            "type": "function"
        },
        {
            "inputs": [
                {
                    "internalType": "uint256",
                    "name": "tokenId",
                    "type": "uint256"
                }
            ],
            "name": "toggleOnSale",
            "outputs": [],
            "stateMutability": "nonpayable",
            "type": "function"
        },
        {
            "inputs": [],
            "name": "unpause",
            "outputs": [],
            "stateMutability": "nonpayable",
            "type": "function"
        },
        {
            "inputs": [
                {
                    "internalType": "uint256",
                    "name": "_tokenId",
                    "type": "uint256"
                },
                {
                    "internalType": "string",
                    "name": "_comment",
                    "type": "string"
                }
            ],
            "name": "updateCommentOnToken",
            "outputs": [],
            "stateMutability": "nonpayable",
            "type": "function"
        },
        {
            "inputs": [
                {
                    "internalType": "uint256",
                    "name": "tokenId",
                    "type": "uint256"
                },
                {
                    "internalType": "uint256",
                    "name": "newPrice",
                    "type": "uint256"
                }
            ],
            "name": "updatePrice",
            "outputs": [],
            "stateMutability": "nonpayable",
            "type": "function"
        },
        {
            "inputs": [
                {
                    "internalType": "string",
                    "name": "newURI",
                    "type": "string"
                }
            ],
            "name": "updateURI",
            "outputs": [],
            "stateMutability": "nonpayable",
            "type": "function"
        },
        {
            "inputs": [
                {
                    "internalType": "uint256",
                    "name": "mxvTokenId",
                    "type": "uint256"
                }
            ],
            "name": "uri",
            "outputs": [
                {
                    "internalType": "string",
                    "name": "",
                    "type": "string"
                }
            ],
            "stateMutability": "view",
            "type": "function"
        }
    ],
    "bytecode": "0x60806040523480156200001157600080fd5b506040516200599b3803806200599b8339818101604052810190620000379190620003a1565b816040516020016200004a919062000472565b6040516020818303038152906040526200006a81620000a860201b60201c565b506000601160006101000a81548160ff0219169083151502179055506001601281905550620000a08282620000c460201b60201c565b505062000647565b8060109080519060200190620000c09291906200027f565b5050565b6040518060400160405280600a81526020017f4d75736978766572736500000000000000000000000000000000000000000000815250600080019080519060200190620001139291906200027f565b506040518060400160405280600381526020017f4d5856000000000000000000000000000000000000000000000000000000000081525060006001019080519060200190620001649291906200027f565b506001600060040160006101000a81548160ff021916908360ff16021790555030600060040160016101000a81548173ffffffffffffffffffffffffffffffffffffffff021916908373ffffffffffffffffffffffffffffffffffffffff160217905550600a600060040160156101000a81548160ff021916908360ff1602179055508060006002019080519060200190620002029291906200027f565b5081600060030190805190602001906200021e9291906200027f565b507f9f2df0fed2c77648de5860a4cc508cd0818c85b8b8a1ab4ceeef8d981c8956a66000600601819055506200027b8260405160200162000260919062000472565b604051602081830303815290604052620000a860201b60201c565b5050565b8280546200028d9062000543565b90600052602060002090601f016020900481019282620002b15760008555620002fd565b82601f10620002cc57805160ff1916838001178555620002fd565b82800160010185558215620002fd579182015b82811115620002fc578251825591602001919060010190620002df565b5b5090506200030c919062000310565b5090565b5b808211156200032b57600081600090555060010162000311565b5090565b6000620003466200034084620004c1565b62000498565b9050828152602081018484840111156200035f57600080fd5b6200036c8482856200050d565b509392505050565b600082601f8301126200038657600080fd5b8151620003988482602086016200032f565b91505092915050565b60008060408385031215620003b557600080fd5b600083015167ffffffffffffffff811115620003d057600080fd5b620003de8582860162000374565b925050602083015167ffffffffffffffff811115620003fc57600080fd5b6200040a8582860162000374565b9150509250929050565b60006200042182620004f7565b6200042d818562000502565b93506200043f8185602086016200050d565b80840191505092915050565b60006200045a60048362000502565b915062000467826200061e565b600482019050919050565b600062000480828462000414565b91506200048d826200044b565b915081905092915050565b6000620004a4620004b7565b9050620004b2828262000579565b919050565b6000604051905090565b600067ffffffffffffffff821115620004df57620004de620005de565b5b620004ea826200060d565b9050602081019050919050565b600081519050919050565b600081905092915050565b60005b838110156200052d57808201518184015260208101905062000510565b838111156200053d576000848401525b50505050565b600060028204905060018216806200055c57607f821691505b60208210811415620005735762000572620005af565b5b50919050565b62000584826200060d565b810181811067ffffffffffffffff82111715620005a657620005a5620005de565b5b80604052505050565b7f4e487b7100000000000000000000000000000000000000000000000000000000600052602260045260246000fd5b7f4e487b7100000000000000000000000000000000000000000000000000000000600052604160045260246000fd5b6000601f19601f8301169050919050565b7f7b69647d00000000000000000000000000000000000000000000000000000000600082015250565b61534480620006576000396000f3fe6080604052600436106101135760003560e01c806382367b2d116100a0578063cfcc9f7f11610064578063cfcc9f7f14610398578063d6189025146103b4578063e985e9c5146103dd578063ee169bd31461041a578063f242432a1461044357610113565b806382367b2d146102dd5780638456cb5914610306578063a22cb4651461031d578063c30f4a5a14610346578063c6f8532d1461036f57610113565b80633f4ba83a116100e75780633f4ba83a146101f85780634e1273f41461020f5780635c975abb1461024c5780636352211e1461027757806378981a73146102b457610113565b8062fdd58e1461011857806301ffc9a7146101555780630e89341c146101925780632eb2c2d6146101cf575b600080fd5b34801561012457600080fd5b5061013f600480360381019061013a919061331b565b61046c565b60405161014c91906144de565b60405180910390f35b34801561016157600080fd5b5061017c600480360381019061017791906133ec565b610536565b6040516101899190614208565b60405180910390f35b34801561019e57600080fd5b506101b960048036038101906101b49190613596565b610618565b6040516101c69190614223565b60405180910390f35b3480156101db57600080fd5b506101f660048036038101906101f19190613191565b6106d2565b005b34801561020457600080fd5b5061020d610773565b005b34801561021b57600080fd5b5061023660048036038101906102319190613357565b61078d565b60405161024391906141af565b60405180910390f35b34801561025857600080fd5b5061026161093e565b60405161026e9190614208565b60405180910390f35b34801561028357600080fd5b5061029e60048036038101906102999190613596565b610955565b6040516102ab9190613fa9565b60405180910390f35b3480156102c057600080fd5b506102db60048036038101906102d6919061352c565b6109ef565b005b3480156102e957600080fd5b5061030460048036038101906102ff9190613613565b610f21565b005b34801561031257600080fd5b5061031b611098565b005b34801561032957600080fd5b50610344600480360381019061033f91906132df565b6110b2565b005b34801561035257600080fd5b5061036d6004803603810190610368919061343e565b6110c8565b005b34801561037b57600080fd5b50610396600480360381019061039191906135bf565b6110dc565b005b6103b260048036038101906103ad919061368b565b611255565b005b3480156103c057600080fd5b506103db60048036038101906103d691906134c0565b61186e565b005b3480156103e957600080fd5b5061040460048036038101906103ff9190613155565b611a17565b6040516104119190614208565b60405180910390f35b34801561042657600080fd5b50610441600480360381019061043c9190613596565b611aab565b005b34801561044f57600080fd5b5061046a60048036038101906104659190613250565b611bca565b005b60008073ffffffffffffffffffffffffffffffffffffffff168373ffffffffffffffffffffffffffffffffffffffff1614156104dd576040517f08c379a00000000000000000000000000000000000000000000000000000000081526004016104d49061431c565b60405180910390fd5b600e600083815260200190815260200160002060008473ffffffffffffffffffffffffffffffffffffffff1673ffffffffffffffffffffffffffffffffffffffff16815260200190815260200160002054905092915050565b60007fd9b67a26000000000000000000000000000000000000000000000000000000007bffffffffffffffffffffffffffffffffffffffffffffffffffffffff1916827bffffffffffffffffffffffffffffffffffffffffffffffffffffffff1916148061060157507f0e89341c000000000000000000000000000000000000000000000000000000007bffffffffffffffffffffffffffffffffffffffffffffffffffffffff1916827bffffffffffffffffffffffffffffffffffffffffffffffffffffffff1916145b80610611575061061082611c6b565b5b9050919050565b606060008211801561063657506106326000600701611cd5565b8211155b610675576040517f08c379a000000000000000000000000000000000000000000000000000000000815260040161066c906143bc565b60405180910390fd5b60006003016000600901600080600a0160008681526020019081526020016000206000015481526020019081526020016000206000016040516020016106bc929190613f85565b6040516020818303038152906040529050919050565b6106da611ce3565b73ffffffffffffffffffffffffffffffffffffffff168573ffffffffffffffffffffffffffffffffffffffff161480610720575061071f8561071a611ce3565b611a17565b5b61075f576040517f08c379a00000000000000000000000000000000000000000000000000000000081526004016107569061429c565b60405180910390fd5b61076c8585858585611ceb565b5050505050565b61077b61205c565b6107836120a5565b61078b612140565b565b606081518351146107d3576040517f08c379a00000000000000000000000000000000000000000000000000000000081526004016107ca9061441c565b60405180910390fd5b6000835167ffffffffffffffff811115610816577f4e487b7100000000000000000000000000000000000000000000000000000000600052604160045260246000fd5b6040519080825280602002602001820160405280156108445781602001602082028036833780820191505090505b50905060005b8451811015610933576108dd85828151811061088f577f4e487b7100000000000000000000000000000000000000000000000000000000600052603260045260246000fd5b60200260200101518583815181106108d0577f4e487b7100000000000000000000000000000000000000000000000000000000600052603260045260246000fd5b602002602001015161046c565b828281518110610916577f4e487b7100000000000000000000000000000000000000000000000000000000600052603260045260246000fd5b6020026020010181815250508061092c90614c05565b905061084a565b508091505092915050565b6000601160009054906101000a900460ff16905090565b60008082118015610972575061096e6000600701611cd5565b8211155b6109b1576040517f08c379a00000000000000000000000000000000000000000000000000000000081526004016109a8906143bc565b60405180910390fd5b6000600b01600083815260200190815260200160002060009054906101000a900473ffffffffffffffffffffffffffffffffffffffff169050919050565b6109f76121a3565b60026012541415610a3d576040517f08c379a0000000000000000000000000000000000000000000000000000000008152600401610a349061447c565b60405180910390fd5b600260128190555073__$5fb119e9dd3bfa8403a9274d94a0e1d1ed$__63b4196759826040518263ffffffff1660e01b8152600401610a7c91906144bc565b60006040518083038186803b158015610a9457600080fd5b505af4158015610aa8573d6000803e3d6000fd5b50505050610ac4600160006008016121ed90919063ffffffff16565b73__$5fb119e9dd3bfa8403a9274d94a0e1d1ed$__635c868675610aeb6000600801611cd5565b838060800190610afb919061460c565b858060a00190610b0b9190614663565b6000600c016040518763ffffffff1660e01b8152600401610b319695949392919061454c565b60006040518083038186803b158015610b4957600080fd5b505af4158015610b5d573d6000803e3d6000fd5b50505050604051806101000160405280828060400190610b7d91906146ba565b8080601f016020809104026020016040519081016040528093929190818152602001838380828437600081840152601f19601f820116905080830192505050505050508152602001828060600190610bd591906146ba565b8080601f016020809104026020016040519081016040528093929190818152602001838380828437600081840152601f19601f8201169050808301925050505050505081526020013373ffffffffffffffffffffffffffffffffffffffff1681526020018260c0016020810190610c4c919061356d565b61ffff1681526020018261010001358152602001826020013581526020016001610c796000600701611cd5565b610c839190614a76565b8152602001826000016020810190610c9b919061356d565b61ffff16610cac6000600701611cd5565b610cb69190614a76565b81525060006009016000610ccd6000600801611cd5565b81526020019081526020016000206000820151816000019080519060200190610cf7929190612d75565b506020820151816001019080519060200190610d14929190612d75565b5060408201518160020160006101000a81548173ffffffffffffffffffffffffffffffffffffffff021916908373ffffffffffffffffffffffffffffffffffffffff16021790555060608201518160020160146101000a81548161ffff021916908361ffff1602179055506080820151816003015560a0820151816004015560c0820151816005015560e0820151816006015590505060005b816000016020810190610dc0919061356d565b61ffff16811015610e7057610de3600160006007016121ed90919063ffffffff16565b610df06000600701611cd5565b610dfd6000600801611cd5565b3373ffffffffffffffffffffffffffffffffffffffff167ff6665b7e151bd911df3c92fad49c355b0a6a4441132b4f725fb666c310ec5e058560200135600186610e479190614a76565b604051610e559291906145a3565b60405180910390a48080610e6890614c05565b915050610dad565b50808060400190610e8191906146ba565b604051610e8f929190613f4a565b6040518091039020610ea46000600801611cd5565b3373ffffffffffffffffffffffffffffffffffffffff167f25abfec7f7045e31f84e0010b649542f93c0d3c38065bcd920fd2022b107ec7c610ee96000600701611cd5565b8560200135868060400190610efe91906146ba565b604051610f0e94939291906145cc565b60405180910390a4600160128190555050565b610f296121a3565b60026012541415610f6f576040517f08c379a0000000000000000000000000000000000000000000000000000000008152600401610f669061447c565b60405180910390fd5b600260128190555060008073__$5fb119e9dd3bfa8403a9274d94a0e1d1ed$__6322997d56600060040160019054906101000a900473ffffffffffffffffffffffffffffffffffffffff16866000600a018760006007016040518663ffffffff1660e01b8152600401610fe6959493929190613fc4565b604080518083038186803b158015610ffd57600080fd5b505af4158015611011573d6000803e3d6000fd5b505050506040513d601f19601f82011682018060405250810190611035919061364f565b91509150833373ffffffffffffffffffffffffffffffffffffffff167f89ef1bf2373367c2626c5a62e7a9eb1645310f8a9ae5f544086c984a11122fa184846040516110829291906145a3565b60405180910390a3505060016012819055505050565b6110a06121a3565b6110a86120a5565b6110b0612246565b565b6110c46110bd611ce3565b83836122a9565b5050565b6110d06120a5565b6110d981612416565b50565b6110e46121a3565b6002601254141561112a576040517f08c379a00000000000000000000000000000000000000000000000000000000081526004016111219061447c565b60405180910390fd5b6002601281905550600073__$5fb119e9dd3bfa8403a9274d94a0e1d1ed$__63e5ef4468600060040160019054906101000a900473ffffffffffffffffffffffffffffffffffffffff1685856000600d0160006007016040518663ffffffff1660e01b81526004016111a095949392919061406a565b60006040518083038186803b1580156111b857600080fd5b505af41580156111cc573d6000803e3d6000fd5b505050506040513d6000823e3d601f19601f820116820180604052508101906111f5919061347f565b9050823373ffffffffffffffffffffffffffffffffffffffff167f2e13edb1190206fc67476dcaa4c4c9991f8ee62db6d4bf10d2cb03c8974cee428385604051611240929190614245565b60405180910390a35060016012819055505050565b61125d6121a3565b600260125414156112a3576040517f08c379a000000000000000000000000000000000000000000000000000000000815260040161129a9061447c565b60405180910390fd5b60026012819055506000821180156112c757506112c36000600801611cd5565b8211155b611306576040517f08c379a00000000000000000000000000000000000000000000000000000000081526004016112fd906143dc565b60405180910390fd5b600061131184610955565b905060008060090160008581526020019081526020016000206040518061010001604052908160008201805461134690614ba2565b80601f016020809104026020016040519081016040528092919081815260200182805461137290614ba2565b80156113bf5780601f10611394576101008083540402835291602001916113bf565b820191906000526020600020905b8154815290600101906020018083116113a257829003601f168201915b505050505081526020016001820180546113d890614ba2565b80601f016020809104026020016040519081016040528092919081815260200182805461140490614ba2565b80156114515780601f1061142657610100808354040283529160200191611451565b820191906000526020600020905b81548152906001019060200180831161143457829003601f168201915b505050505081526020016002820160009054906101000a900473ffffffffffffffffffffffffffffffffffffffff1673ffffffffffffffffffffffffffffffffffffffff1673ffffffffffffffffffffffffffffffffffffffff1681526020016002820160149054906101000a900461ffff1661ffff1661ffff16815260200160038201548152602001600482015481526020016005820154815260200160068201548152505090508060c00151851015801561151257508060e001518511155b611551576040517f08c379a00000000000000000000000000000000000000000000000000000000081526004016115489061449c565b60405180910390fd5b600073ffffffffffffffffffffffffffffffffffffffff168273ffffffffffffffffffffffffffffffffffffffff161480156115a55750600080600a01600087815260200190815260200160002060000154145b156116bc576115ca816040015186600160405180602001604052806000815250612430565b80604001516000600b01600087815260200190815260200160002060006101000a81548173ffffffffffffffffffffffffffffffffffffffff021916908373ffffffffffffffffffffffffffffffffffffffff16021790555060405180608001604052808581526020018260a001518152602001600115158152602001600015158152506000600a016000878152602001908152602001600020600082015181600001556020820151816001015560408201518160020160006101000a81548160ff02191690831515021790555060608201518160020160016101000a81548160ff0219169083151502179055509050505b60008073ffffffffffffffffffffffffffffffffffffffff168473ffffffffffffffffffffffffffffffffffffffff16146116f5578390505b6116fe86610955565b925073__$5fb119e9dd3bfa8403a9274d94a0e1d1ed$__633b8a23c3878360006009016000600a0160006007016040518663ffffffff1660e01b815260040161174b9594939291906144f9565b60006040518083038186803b15801561176357600080fd5b505af4158015611777573d6000803e3d6000fd5b505050506117988333886001604051806020016040528060008152506125e2565b336000600b01600088815260200190815260200160002060006101000a81548173ffffffffffffffffffffffffffffffffffffffff021916908373ffffffffffffffffffffffffffffffffffffffff1602179055503373ffffffffffffffffffffffffffffffffffffffff168173ffffffffffffffffffffffffffffffffffffffff16877f42bef846c5ea007c8d0175954362da29e871e87797692fadbf68f6e6347af824863460405161184d929190614186565b60405180910390a461185e86611aab565b5050506001601281905550505050565b6040518060400160405280600a81526020017f4d757369787665727365000000000000000000000000000000000000000000008152506000800190805190602001906118bb929190612d75565b506040518060400160405280600381526020017f4d585600000000000000000000000000000000000000000000000000000000008152506000600101908051906020019061190a929190612d75565b506001600060040160006101000a81548160ff021916908360ff16021790555030600060040160016101000a81548173ffffffffffffffffffffffffffffffffffffffff021916908373ffffffffffffffffffffffffffffffffffffffff160217905550600a600060040160156101000a81548160ff021916908360ff16021790555080600060020190805190602001906119a6929190612d75565b5081600060030190805190602001906119c0929190612d75565b507f9f2df0fed2c77648de5860a4cc508cd0818c85b8b8a1ab4ceeef8d981c8956a6600060060181905550611a13826040516020016119ff9190613f63565b604051602081830303815290604052612416565b5050565b6000600f60008473ffffffffffffffffffffffffffffffffffffffff1673ffffffffffffffffffffffffffffffffffffffff16815260200190815260200160002060008373ffffffffffffffffffffffffffffffffffffffff1673ffffffffffffffffffffffffffffffffffffffff16815260200190815260200160002060009054906101000a900460ff16905092915050565b611ab36121a3565b600073__$5fb119e9dd3bfa8403a9274d94a0e1d1ed$__634ceeab12600060040160019054906101000a900473ffffffffffffffffffffffffffffffffffffffff168460006009016000600a0160006007016040518663ffffffff1660e01b8152600401611b25959493929190614017565b60206040518083038186803b158015611b3d57600080fd5b505af4158015611b51573d6000803e3d6000fd5b505050506040513d601f19601f82011682018060405250810190611b7591906133c3565b9050813373ffffffffffffffffffffffffffffffffffffffff167f28262f8ffb8cdeb21437c7fa8c9951c1f5350a6cac1ba7559391a5190a34be4d83604051611bbe9190614208565b60405180910390a35050565b611bd2611ce3565b73ffffffffffffffffffffffffffffffffffffffff168573ffffffffffffffffffffffffffffffffffffffff161480611c185750611c1785611c12611ce3565b611a17565b5b611c57576040517f08c379a0000000000000000000000000000000000000000000000000000000008152600401611c4e9061429c565b60405180910390fd5b611c6485858585856125e2565b5050505050565b60007f01ffc9a7000000000000000000000000000000000000000000000000000000007bffffffffffffffffffffffffffffffffffffffffffffffffffffffff1916827bffffffffffffffffffffffffffffffffffffffffffffffffffffffff1916149050919050565b600081600001549050919050565b600033905090565b8151835114611d2f576040517f08c379a0000000000000000000000000000000000000000000000000000000008152600401611d269061443c565b60405180910390fd5b600073ffffffffffffffffffffffffffffffffffffffff168473ffffffffffffffffffffffffffffffffffffffff161415611d9f576040517f08c379a0000000000000000000000000000000000000000000000000000000008152600401611d969061437c565b60405180910390fd5b6000611da9611ce3565b9050611db9818787878787612881565b60005b8451811015611fb9576000858281518110611e00577f4e487b7100000000000000000000000000000000000000000000000000000000600052603260045260246000fd5b602002602001015190506000858381518110611e45577f4e487b7100000000000000000000000000000000000000000000000000000000600052603260045260246000fd5b602002602001015190506000600e600084815260200190815260200160002060008b73ffffffffffffffffffffffffffffffffffffffff1673ffffffffffffffffffffffffffffffffffffffff16815260200190815260200160002054905081811015611ee7576040517f08c379a0000000000000000000000000000000000000000000000000000000008152600401611ede9061439c565b60405180910390fd5b818103600e600085815260200190815260200160002060008c73ffffffffffffffffffffffffffffffffffffffff1673ffffffffffffffffffffffffffffffffffffffff1681526020019081526020016000208190555081600e600085815260200190815260200160002060008b73ffffffffffffffffffffffffffffffffffffffff1673ffffffffffffffffffffffffffffffffffffffff1681526020019081526020016000206000828254611f9e9190614a76565b9250508190555050505080611fb290614c05565b9050611dbc565b508473ffffffffffffffffffffffffffffffffffffffff168673ffffffffffffffffffffffffffffffffffffffff168273ffffffffffffffffffffffffffffffffffffffff167f4a39dc06d4c0dbc64b70af90fd698a233a518aa5d07e595d983b8c0526c8f7fb87876040516120309291906141d1565b60405180910390a4612046818787878787612889565b612054818787878787612891565b505050505050565b61206461093e565b6120a3576040517f08c379a000000000000000000000000000000000000000000000000000000000815260040161209a906142dc565b60405180910390fd5b565b6120ad612a78565b60040160009054906101000a900473ffffffffffffffffffffffffffffffffffffffff1673ffffffffffffffffffffffffffffffffffffffff163373ffffffffffffffffffffffffffffffffffffffff161461213e576040517f08c379a0000000000000000000000000000000000000000000000000000000008152600401612135906142fc565b60405180910390fd5b565b61214861205c565b6000601160006101000a81548160ff0219169083151502179055507f5db9ee0a495bf2e6ff9c91a7834c1ba4fdd244a5e8aa4e537bd38aeae4b073aa61218c611ce3565b6040516121999190613fa9565b60405180910390a1565b6121ab61093e565b156121eb576040517f08c379a00000000000000000000000000000000000000000000000000000000081526004016121e29061435c565b60405180910390fd5b565b60008111612230576040517f08c379a00000000000000000000000000000000000000000000000000000000081526004016122279061433c565b60405180910390fd5b8082600001600082825401925050819055505050565b61224e6121a3565b6001601160006101000a81548160ff0219169083151502179055507f62e78cea01bee320cd4e420270b5ea74000d11b0c9f74754ebdbfc544b05a258612292611ce3565b60405161229f9190613fa9565b60405180910390a1565b8173ffffffffffffffffffffffffffffffffffffffff168373ffffffffffffffffffffffffffffffffffffffff161415612318576040517f08c379a000000000000000000000000000000000000000000000000000000000815260040161230f906143fc565b60405180910390fd5b80600f60008573ffffffffffffffffffffffffffffffffffffffff1673ffffffffffffffffffffffffffffffffffffffff16815260200190815260200160002060008473ffffffffffffffffffffffffffffffffffffffff1673ffffffffffffffffffffffffffffffffffffffff16815260200190815260200160002060006101000a81548160ff0219169083151502179055508173ffffffffffffffffffffffffffffffffffffffff168373ffffffffffffffffffffffffffffffffffffffff167f17307eab39ab6107e8899845ad3d59bd9653f200f220920489ca2b5937696c31836040516124099190614208565b60405180910390a3505050565b806010908051906020019061242c929190612d75565b5050565b600073ffffffffffffffffffffffffffffffffffffffff168473ffffffffffffffffffffffffffffffffffffffff1614156124a0576040517f08c379a00000000000000000000000000000000000000000000000000000000081526004016124979061445c565b60405180910390fd5b60006124aa611ce3565b905060006124b785612aa5565b905060006124c485612aa5565b90506124d583600089858589612881565b84600e600088815260200190815260200160002060008973ffffffffffffffffffffffffffffffffffffffff1673ffffffffffffffffffffffffffffffffffffffff16815260200190815260200160002060008282546125359190614a76565b925050819055508673ffffffffffffffffffffffffffffffffffffffff16600073ffffffffffffffffffffffffffffffffffffffff168473ffffffffffffffffffffffffffffffffffffffff167fc3d58168c5ae7397731d063d5bbf3d657854427343f4c083240f7aacaa2d0f6289896040516125b39291906145a3565b60405180910390a46125ca83600089858589612889565b6125d983600089898989612b6b565b50505050505050565b600073ffffffffffffffffffffffffffffffffffffffff168473ffffffffffffffffffffffffffffffffffffffff161415612652576040517f08c379a00000000000000000000000000000000000000000000000000000000081526004016126499061437c565b60405180910390fd5b600061265c611ce3565b9050600061266985612aa5565b9050600061267685612aa5565b9050612686838989858589612881565b6000600e600088815260200190815260200160002060008a73ffffffffffffffffffffffffffffffffffffffff1673ffffffffffffffffffffffffffffffffffffffff1681526020019081526020016000205490508581101561271e576040517f08c379a00000000000000000000000000000000000000000000000000000000081526004016127159061439c565b60405180910390fd5b858103600e600089815260200190815260200160002060008b73ffffffffffffffffffffffffffffffffffffffff1673ffffffffffffffffffffffffffffffffffffffff1681526020019081526020016000208190555085600e600089815260200190815260200160002060008a73ffffffffffffffffffffffffffffffffffffffff1673ffffffffffffffffffffffffffffffffffffffff16815260200190815260200160002060008282546127d59190614a76565b925050819055508773ffffffffffffffffffffffffffffffffffffffff168973ffffffffffffffffffffffffffffffffffffffff168573ffffffffffffffffffffffffffffffffffffffff167fc3d58168c5ae7397731d063d5bbf3d657854427343f4c083240f7aacaa2d0f628a8a6040516128529291906145a3565b60405180910390a4612868848a8a86868a612889565b612876848a8a8a8a8a612b6b565b505050505050505050565b505050505050565b505050505050565b6128b08473ffffffffffffffffffffffffffffffffffffffff16612d52565b15612a70578373ffffffffffffffffffffffffffffffffffffffff1663bc197c8187878686866040518663ffffffff1660e01b81526004016128f69594939291906140c4565b602060405180830381600087803b15801561291057600080fd5b505af192505050801561294157506040513d601f19601f8201168201806040525081019061293e9190613415565b60015b6129e75761294d614cdb565b806308c379a014156129aa57506129626151ee565b8061296d57506129ac565b806040517f08c379a00000000000000000000000000000000000000000000000000000000081526004016129a19190614223565b60405180910390fd5b505b6040517f08c379a00000000000000000000000000000000000000000000000000000000081526004016129de9061427c565b60405180910390fd5b63bc197c8160e01b7bffffffffffffffffffffffffffffffffffffffffffffffffffffffff1916817bffffffffffffffffffffffffffffffffffffffffffffffffffffffff191614612a6e576040517f08c379a0000000000000000000000000000000000000000000000000000000008152600401612a65906142bc565b60405180910390fd5b505b505050505050565b6000807f7ebe20acead178826e523aa23b9f2d4ec9903a0a82ea2ad143a2aab72ae49df190508091505090565b60606000600167ffffffffffffffff811115612aea577f4e487b7100000000000000000000000000000000000000000000000000000000600052604160045260246000fd5b604051908082528060200260200182016040528015612b185781602001602082028036833780820191505090505b5090508281600081518110612b56577f4e487b7100000000000000000000000000000000000000000000000000000000600052603260045260246000fd5b60200260200101818152505080915050919050565b612b8a8473ffffffffffffffffffffffffffffffffffffffff16612d52565b15612d4a578373ffffffffffffffffffffffffffffffffffffffff1663f23a6e6187878686866040518663ffffffff1660e01b8152600401612bd095949392919061412c565b602060405180830381600087803b158015612bea57600080fd5b505af1925050508015612c1b57506040513d601f19601f82011682018060405250810190612c189190613415565b60015b612cc157612c27614cdb565b806308c379a01415612c845750612c3c6151ee565b80612c475750612c86565b806040517f08c379a0000000000000000000000000000000000000000000000000000000008152600401612c7b9190614223565b60405180910390fd5b505b6040517f08c379a0000000000000000000000000000000000000000000000000000000008152600401612cb89061427c565b60405180910390fd5b63f23a6e6160e01b7bffffffffffffffffffffffffffffffffffffffffffffffffffffffff1916817bffffffffffffffffffffffffffffffffffffffffffffffffffffffff191614612d48576040517f08c379a0000000000000000000000000000000000000000000000000000000008152600401612d3f906142bc565b60405180910390fd5b505b505050505050565b6000808273ffffffffffffffffffffffffffffffffffffffff163b119050919050565b828054612d8190614ba2565b90600052602060002090601f016020900481019282612da35760008555612dea565b82601f10612dbc57805160ff1916838001178555612dea565b82800160010185558215612dea579182015b82811115612de9578251825591602001919060010190612dce565b5b509050612df79190612dfb565b5090565b5b80821115612e14576000816000905550600101612dfc565b5090565b6000612e2b612e2684614736565b614711565b90508083825260208201905082856020860282011115612e4a57600080fd5b60005b85811015612e7a5781612e608882612faa565b845260208401935060208301925050600181019050612e4d565b5050509392505050565b6000612e97612e9284614762565b614711565b90508083825260208201905082856020860282011115612eb657600080fd5b60005b85811015612ee65781612ecc888261312b565b845260208401935060208301925050600181019050612eb9565b5050509392505050565b6000612f03612efe8461478e565b614711565b905082815260208101848484011115612f1b57600080fd5b612f26848285614b60565b509392505050565b6000612f41612f3c846147bf565b614711565b905082815260208101848484011115612f5957600080fd5b612f64848285614b60565b509392505050565b6000612f7f612f7a846147bf565b614711565b905082815260208101848484011115612f9757600080fd5b612fa2848285614b6f565b509392505050565b600081359050612fb981615284565b92915050565b600081359050612fce8161529b565b92915050565b600082601f830112612fe557600080fd5b8135612ff5848260208601612e18565b91505092915050565b600082601f83011261300f57600080fd5b813561301f848260208601612e84565b91505092915050565b600081359050613037816152b2565b92915050565b60008151905061304c816152b2565b92915050565b600081359050613061816152c9565b92915050565b600081519050613076816152c9565b92915050565b600082601f83011261308d57600080fd5b813561309d848260208601612ef0565b91505092915050565b600082601f8301126130b757600080fd5b81356130c7848260208601612f2e565b91505092915050565b600082601f8301126130e157600080fd5b81516130f1848260208601612f6c565b91505092915050565b6000610120828403121561310d57600080fd5b81905092915050565b600081359050613125816152e0565b92915050565b60008135905061313a816152f7565b92915050565b60008151905061314f816152f7565b92915050565b6000806040838503121561316857600080fd5b600061317685828601612faa565b925050602061318785828601612faa565b9150509250929050565b600080600080600060a086880312156131a957600080fd5b60006131b788828901612faa565b95505060206131c888828901612faa565b945050604086013567ffffffffffffffff8111156131e557600080fd5b6131f188828901612ffe565b935050606086013567ffffffffffffffff81111561320e57600080fd5b61321a88828901612ffe565b925050608086013567ffffffffffffffff81111561323757600080fd5b6132438882890161307c565b9150509295509295909350565b600080600080600060a0868803121561326857600080fd5b600061327688828901612faa565b955050602061328788828901612faa565b94505060406132988882890161312b565b93505060606132a98882890161312b565b925050608086013567ffffffffffffffff8111156132c657600080fd5b6132d28882890161307c565b9150509295509295909350565b600080604083850312156132f257600080fd5b600061330085828601612faa565b925050602061331185828601613028565b9150509250929050565b6000806040838503121561332e57600080fd5b600061333c85828601612faa565b925050602061334d8582860161312b565b9150509250929050565b6000806040838503121561336a57600080fd5b600083013567ffffffffffffffff81111561338457600080fd5b61339085828601612fd4565b925050602083013567ffffffffffffffff8111156133ad57600080fd5b6133b985828601612ffe565b9150509250929050565b6000602082840312156133d557600080fd5b60006133e38482850161303d565b91505092915050565b6000602082840312156133fe57600080fd5b600061340c84828501613052565b91505092915050565b60006020828403121561342757600080fd5b600061343584828501613067565b91505092915050565b60006020828403121561345057600080fd5b600082013567ffffffffffffffff81111561346a57600080fd5b613476848285016130a6565b91505092915050565b60006020828403121561349157600080fd5b600082015167ffffffffffffffff8111156134ab57600080fd5b6134b7848285016130d0565b91505092915050565b600080604083850312156134d357600080fd5b600083013567ffffffffffffffff8111156134ed57600080fd5b6134f9858286016130a6565b925050602083013567ffffffffffffffff81111561351657600080fd5b613522858286016130a6565b9150509250929050565b60006020828403121561353e57600080fd5b600082013567ffffffffffffffff81111561355857600080fd5b613564848285016130fa565b91505092915050565b60006020828403121561357f57600080fd5b600061358d84828501613116565b91505092915050565b6000602082840312156135a857600080fd5b60006135b68482850161312b565b91505092915050565b600080604083850312156135d257600080fd5b60006135e08582860161312b565b925050602083013567ffffffffffffffff8111156135fd57600080fd5b613609858286016130a6565b9150509250929050565b6000806040838503121561362657600080fd5b60006136348582860161312b565b92505060206136458582860161312b565b9150509250929050565b6000806040838503121561366257600080fd5b600061367085828601613140565b925050602061368185828601613140565b9150509250929050565b6000806000606084860312156136a057600080fd5b60006136ae8682870161312b565b93505060206136bf8682870161312b565b92505060406136d086828701612fbf565b9150509250925092565b60006136e68383613740565b60208301905092915050565b60006136fe8383613eff565b60208301905092915050565b60006137168383613f0e565b60208301905092915050565b61372b81614ade565b82525050565b61373a81614acc565b82525050565b61374981614acc565b82525050565b600061375b8385614871565b9350613766826147f0565b8060005b8581101561379f5761377c8284614915565b61378688826136da565b97506137918361484a565b92505060018101905061376a565b5085925050509392505050565b60006137b88385614882565b93506137c3826147f0565b8060005b858110156137fc576137d98284614915565b6137e388826136da565b97506137ee8361484a565b9250506001810190506137c7565b5085925050509392505050565b60006138158385614893565b9350613820826147fa565b8060005b85811015613859576138368284614a48565b61384088826136f2565b975061384b83614857565b925050600181019050613824565b5085925050509392505050565b600061387283856148a4565b935061387d826147fa565b8060005b858110156138b6576138938284614a48565b61389d88826136f2565b97506138a883614857565b925050600181019050613881565b5085925050509392505050565b60006138ce82614829565b6138d881856148b5565b93506138e383614804565b8060005b838110156139145781516138fb888261370a565b975061390683614864565b9250506001810190506138e7565b5085935050505092915050565b61392a81614af0565b82525050565b61393981614af0565b82525050565b600061394a82614834565b61395481856148c6565b9350613964818560208601614b6f565b61396d81614cfd565b840191505092915050565b8082525050565b8082525050565b8082525050565b8082525050565b60006139a083856148d7565b93506139ad838584614b60565b6139b683614cfd565b840190509392505050565b60006139cd83856148f9565b93506139da838584614b60565b6139e383614cfd565b840190509392505050565b60006139fa838561490a565b9350613a07838584614b60565b82840190509392505050565b6000613a1e8261483f565b613a2881856148d7565b9350613a38818560208601614b6f565b613a4181614cfd565b840191505092915050565b6000613a578261483f565b613a6181856148e8565b9350613a71818560208601614b6f565b613a7a81614cfd565b840191505092915050565b6000613a908261483f565b613a9a818561490a565b9350613aaa818560208601614b6f565b80840191505092915050565b60008154613ac381614ba2565b613acd818661490a565b94506001821660008114613ae85760018114613af957613b2c565b60ff19831686528186019350613b2c565b613b0285614814565b60005b83811015613b2457815481890152600182019150602081019050613b05565b838801955050505b50505092915050565b6000613b426034836148d7565b9150613b4d82614d1b565b604082019050919050565b6000613b65602f836148d7565b9150613b7082614d6a565b604082019050919050565b6000613b886028836148d7565b9150613b9382614db9565b604082019050919050565b6000613bab6014836148d7565b9150613bb682614e08565b602082019050919050565b6000613bce6022836148d7565b9150613bd982614e31565b604082019050919050565b6000613bf1602a836148d7565b9150613bfc82614e80565b604082019050919050565b6000613c146032836148d7565b9150613c1f82614ecf565b604082019050919050565b6000613c376010836148d7565b9150613c4282614f1e565b602082019050919050565b6000613c5a6025836148d7565b9150613c6582614f47565b604082019050919050565b6000613c7d602a836148d7565b9150613c8882614f96565b604082019050919050565b6000613ca06009836148d7565b9150613cab82614fe5565b602082019050919050565b6000613cc36009836148d7565b9150613cce8261500e565b602082019050919050565b6000613ce660048361490a565b9150613cf182615037565b600482019050919050565b6000613d096029836148d7565b9150613d1482615060565b604082019050919050565b6000613d2c6029836148d7565b9150613d37826150af565b604082019050919050565b6000613d4f6028836148d7565b9150613d5a826150fe565b604082019050919050565b6000613d726021836148d7565b9150613d7d8261514d565b604082019050919050565b6000613d95601f836148d7565b9150613da08261519c565b602082019050919050565b6000613db8601d836148d7565b9150613dc3826151c5565b602082019050919050565b8082525050565b60006101208301613de96000840184614a48565b613df66000860182613eff565b50613e046020840184614a5f565b613e116020860182613f3b565b50613e1f60408401846149f1565b8583036040870152613e328382846139c1565b92505050613e4360608401846149f1565b8583036060870152613e568382846139c1565b92505050613e67608084018461492c565b8583036080870152613e7a8382846137ac565b92505050613e8b60a0840184614983565b85830360a0870152613e9e838284613866565b92505050613eaf60c0840184614a48565b613ebc60c0860182613eff565b50613eca60e08401846149da565b613ed760e0860182613930565b50613ee6610100840184614a5f565b613ef4610100860182613f3b565b508091505092915050565b613f0881614b28565b82525050565b613f1781614b56565b82525050565b613f2681614b56565b82525050565b613f3581614b56565b82525050565b613f4481614b56565b82525050565b6000613f578284866139ee565b91508190509392505050565b6000613f6f8284613a85565b9150613f7a82613cd9565b915081905092915050565b6000613f918285613ab6565b9150613f9d8284613ab6565b91508190509392505050565b6000602082019050613fbe6000830184613731565b92915050565b600060a082019050613fd96000830188613722565b613fe66020830187613f2c565b613ff36040830186613986565b6140006060830185613f2c565b61400d6080830184613dce565b9695505050505050565b600060a08201905061402c6000830188613722565b6140396020830187613f2c565b614046604083018661398d565b6140536060830185613986565b6140606080830184613dce565b9695505050505050565b600060a08201905061407f6000830188613722565b61408c6020830187613f2c565b818103604083015261409e8186613a4c565b90506140ad606083018561397f565b6140ba6080830184613dce565b9695505050505050565b600060a0820190506140d96000830188613731565b6140e66020830187613731565b81810360408301526140f881866138c3565b9050818103606083015261410c81856138c3565b90508181036080830152614120818461393f565b90509695505050505050565b600060a0820190506141416000830188613731565b61414e6020830187613731565b61415b6040830186613f1d565b6141686060830185613f1d565b818103608083015261417a818461393f565b90509695505050505050565b600060408201905061419b6000830185613731565b6141a86020830184613f1d565b9392505050565b600060208201905081810360008301526141c981846138c3565b905092915050565b600060408201905081810360008301526141eb81856138c3565b905081810360208301526141ff81846138c3565b90509392505050565b600060208201905061421d6000830184613921565b92915050565b6000602082019050818103600083015261423d8184613a13565b905092915050565b6000604082019050818103600083015261425f8185613a13565b905081810360208301526142738184613a13565b90509392505050565b6000602082019050818103600083015261429581613b35565b9050919050565b600060208201905081810360008301526142b581613b58565b9050919050565b600060208201905081810360008301526142d581613b7b565b9050919050565b600060208201905081810360008301526142f581613b9e565b9050919050565b6000602082019050818103600083015261431581613bc1565b9050919050565b6000602082019050818103600083015261433581613be4565b9050919050565b6000602082019050818103600083015261435581613c07565b9050919050565b6000602082019050818103600083015261437581613c2a565b9050919050565b6000602082019050818103600083015261439581613c4d565b9050919050565b600060208201905081810360008301526143b581613c70565b9050919050565b600060208201905081810360008301526143d581613c93565b9050919050565b600060208201905081810360008301526143f581613cb6565b9050919050565b6000602082019050818103600083015261441581613cfc565b9050919050565b6000602082019050818103600083015261443581613d1f565b9050919050565b6000602082019050818103600083015261445581613d42565b9050919050565b6000602082019050818103600083015261447581613d65565b9050919050565b6000602082019050818103600083015261449581613d88565b9050919050565b600060208201905081810360008301526144b581613dab565b9050919050565b600060208201905081810360008301526144d68184613dd5565b905092915050565b60006020820190506144f36000830184613f1d565b92915050565b600060a08201905061450e6000830188613f2c565b61451b6020830187613722565b614528604083018661398d565b6145356060830185613986565b6145426080830184613dce565b9695505050505050565b60006080820190506145616000830189613f2c565b818103602083015261457481878961374f565b90508181036040830152614589818587613809565b90506145986060830184613978565b979650505050505050565b60006040820190506145b86000830185613f1d565b6145c56020830184613f1d565b9392505050565b60006060820190506145e16000830187613f1d565b6145ee6020830186613f1d565b8181036040830152614601818486613994565b905095945050505050565b6000808335600160200384360303811261462557600080fd5b80840192508235915067ffffffffffffffff82111561464357600080fd5b60208301925060208202360383131561465b57600080fd5b509250929050565b6000808335600160200384360303811261467c57600080fd5b80840192508235915067ffffffffffffffff82111561469a57600080fd5b6020830192506020820236038313156146b257600080fd5b509250929050565b600080833560016020038436030381126146d357600080fd5b80840192508235915067ffffffffffffffff8211156146f157600080fd5b60208301925060018202360383131561470957600080fd5b509250929050565b600061471b61472c565b90506147278282614bd4565b919050565b6000604051905090565b600067ffffffffffffffff82111561475157614750614cac565b5b602082029050602081019050919050565b600067ffffffffffffffff82111561477d5761477c614cac565b5b602082029050602081019050919050565b600067ffffffffffffffff8211156147a9576147a8614cac565b5b6147b282614cfd565b9050602081019050919050565b600067ffffffffffffffff8211156147da576147d9614cac565b5b6147e382614cfd565b9050602081019050919050565b6000819050919050565b6000819050919050565b6000819050602082019050919050565b60008190508160005260206000209050919050565b600081519050919050565b600081519050919050565b600081519050919050565b6000602082019050919050565b6000602082019050919050565b6000602082019050919050565b600082825260208201905092915050565b600082825260208201905092915050565b600082825260208201905092915050565b600082825260208201905092915050565b600082825260208201905092915050565b600082825260208201905092915050565b600082825260208201905092915050565b600082825260208201905092915050565b600082825260208201905092915050565b600081905092915050565b60006149246020840184612faa565b905092915050565b6000808335600160200384360303811261494557600080fd5b83810192508235915060208301925067ffffffffffffffff82111561496957600080fd5b60208202360384131561497b57600080fd5b509250929050565b6000808335600160200384360303811261499c57600080fd5b83810192508235915060208301925067ffffffffffffffff8211156149c057600080fd5b6020820236038413156149d257600080fd5b509250929050565b60006149e96020840184613028565b905092915050565b60008083356001602003843603038112614a0a57600080fd5b83810192508235915060208301925067ffffffffffffffff821115614a2e57600080fd5b600182023603841315614a4057600080fd5b509250929050565b6000614a576020840184613116565b905092915050565b6000614a6e602084018461312b565b905092915050565b6000614a8182614b56565b9150614a8c83614b56565b9250827fffffffffffffffffffffffffffffffffffffffffffffffffffffffffffffffff03821115614ac157614ac0614c4e565b5b828201905092915050565b6000614ad782614b36565b9050919050565b6000614ae982614b36565b9050919050565b60008115159050919050565b60007fffffffff0000000000000000000000000000000000000000000000000000000082169050919050565b600061ffff82169050919050565b600073ffffffffffffffffffffffffffffffffffffffff82169050919050565b6000819050919050565b82818337600083830152505050565b60005b83811015614b8d578082015181840152602081019050614b72565b83811115614b9c576000848401525b50505050565b60006002820490506001821680614bba57607f821691505b60208210811415614bce57614bcd614c7d565b5b50919050565b614bdd82614cfd565b810181811067ffffffffffffffff82111715614bfc57614bfb614cac565b5b80604052505050565b6000614c1082614b56565b91507fffffffffffffffffffffffffffffffffffffffffffffffffffffffffffffffff821415614c4357614c42614c4e565b5b600182019050919050565b7f4e487b7100000000000000000000000000000000000000000000000000000000600052601160045260246000fd5b7f4e487b7100000000000000000000000000000000000000000000000000000000600052602260045260246000fd5b7f4e487b7100000000000000000000000000000000000000000000000000000000600052604160045260246000fd5b600060033d1115614cfa5760046000803e614cf7600051614d0e565b90505b90565b6000601f19601f8301169050919050565b60008160e01c9050919050565b7f455243313135353a207472616e7366657220746f206e6f6e204552433131353560008201527f526563656976657220696d706c656d656e746572000000000000000000000000602082015250565b7f455243313135353a2063616c6c6572206973206e6f7420746f6b656e206f776e60008201527f6572206e6f7220617070726f7665640000000000000000000000000000000000602082015250565b7f455243313135353a204552433131353552656365697665722072656a6563746560008201527f6420746f6b656e73000000000000000000000000000000000000000000000000602082015250565b7f5061757361626c653a206e6f7420706175736564000000000000000000000000600082015250565b7f4c69624469616d6f6e643a204d75737420626520636f6e7472616374206f776e60008201527f6572000000000000000000000000000000000000000000000000000000000000602082015250565b7f455243313135353a2061646472657373207a65726f206973206e6f742061207660008201527f616c6964206f776e657200000000000000000000000000000000000000000000602082015250565b7f436f756e7465723a20696e6372656d656e7420616d6f756e742073686f756c6460008201527f2062652067726561746572207468616e20300000000000000000000000000000602082015250565b7f5061757361626c653a2070617573656400000000000000000000000000000000600082015250565b7f455243313135353a207472616e7366657220746f20746865207a65726f20616460008201527f6472657373000000000000000000000000000000000000000000000000000000602082015250565b7f455243313135353a20696e73756666696369656e742062616c616e636520666f60008201527f72207472616e7366657200000000000000000000000000000000000000000000602082015250565b7f546f6b656e20444e450000000000000000000000000000000000000000000000600082015250565b7f547261636b20444e450000000000000000000000000000000000000000000000600082015250565b7f7b69647d00000000000000000000000000000000000000000000000000000000600082015250565b7f455243313135353a2073657474696e6720617070726f76616c2073746174757360008201527f20666f722073656c660000000000000000000000000000000000000000000000602082015250565b7f455243313135353a206163636f756e747320616e6420696473206c656e67746860008201527f206d69736d617463680000000000000000000000000000000000000000000000602082015250565b7f455243313135353a2069647320616e6420616d6f756e7473206c656e6774682060008201527f6d69736d61746368000000000000000000000000000000000000000000000000602082015250565b7f455243313135353a206d696e7420746f20746865207a65726f2061646472657360008201527f7300000000000000000000000000000000000000000000000000000000000000602082015250565b7f5265656e7472616e637947756172643a207265656e7472616e742063616c6c00600082015250565b7f746f6b656e4964206d69736d61746368207769746820747261636b4964000000600082015250565b600060443d10156151fe57615281565b61520661472c565b60043d036004823e80513d602482011167ffffffffffffffff8211171561522e575050615281565b808201805167ffffffffffffffff81111561524c5750505050615281565b80602083010160043d038501811115615269575050505050615281565b61527882602001850186614bd4565b82955050505050505b90565b61528d81614acc565b811461529857600080fd5b50565b6152a481614ade565b81146152af57600080fd5b50565b6152bb81614af0565b81146152c657600080fd5b50565b6152d281614afc565b81146152dd57600080fd5b50565b6152e981614b28565b81146152f457600080fd5b50565b61530081614b56565b811461530b57600080fd5b5056fea2646970667358221220f3a5b7ed613fe4f173d672701a307ee13d91e0904ec341176f34b9986c40295564736f6c63430008040033",
    "linkReferences": {
        "contracts/Musixverse/libraries/LibMusixverse.sol": {
            "LibMusixverse": [
                {
                    "length": 20,
                    "start": 4254
                },
                {
                    "length": 20,
                    "start": 4381
                },
                {
                    "length": 20,
                    "start": 5587
                },
                {
                    "length": 20,
                    "start": 6029
                },
                {
                    "length": 20,
                    "start": 7513
                },
                {
                    "length": 20,
                    "start": 8462
                }
            ]
        }
    },
    "deployedLinkReferences": {
        "contracts/Musixverse/libraries/LibMusixverse.sol": {
            "LibMusixverse": [
                {
                    "length": 20,
                    "start": 2631
                },
                {
                    "length": 20,
                    "start": 2758
                },
                {
                    "length": 20,
                    "start": 3964
                },
                {
                    "length": 20,
                    "start": 4406
                },
                {
                    "length": 20,
                    "start": 5890
                },
                {
                    "length": 20,
                    "start": 6839
                }
            ]
        }
    }
}