{
  "_format": "hh-sol-artifact-1",
  "contractName": "MusixverseFacet",
  "sourceName": "contracts/Musixverse/facets/MusixverseFacet.sol",
  "abi": [
    {
      "inputs": [
        {
          "internalType": "string",
          "name": "baseURI_",
          "type": "string"
        },
        {
          "internalType": "string",
          "name": "contractURI_",
          "type": "string"
        }
      ],
      "stateMutability": "nonpayable",
      "type": "constructor"
    },
    {
      "anonymous": false,
      "inputs": [
        {
          "indexed": true,
          "internalType": "address",
          "name": "account",
          "type": "address"
        },
        {
          "indexed": true,
          "internalType": "address",
          "name": "operator",
          "type": "address"
        },
        {
          "indexed": false,
          "internalType": "bool",
          "name": "approved",
          "type": "bool"
        }
      ],
      "name": "ApprovalForAll",
      "type": "event"
    },
    {
      "anonymous": false,
      "inputs": [
        {
          "indexed": true,
          "internalType": "address",
          "name": "caller",
          "type": "address"
        },
        {
          "indexed": true,
          "internalType": "address",
          "name": "artistAddress",
          "type": "address"
        },
        {
          "indexed": false,
          "internalType": "string",
          "name": "username",
          "type": "string"
        },
        {
          "indexed": true,
          "internalType": "string",
          "name": "indexedUsername",
          "type": "string"
        }
      ],
      "name": "ArtistVerified",
      "type": "event"
    },
    {
      "anonymous": false,
      "inputs": [
        {
          "indexed": false,
          "internalType": "address",
          "name": "account",
          "type": "address"
        }
      ],
      "name": "Paused",
      "type": "event"
    },
    {
      "anonymous": false,
      "inputs": [
        {
          "indexed": true,
          "internalType": "address",
          "name": "caller",
          "type": "address"
        },
        {
          "indexed": true,
          "internalType": "uint256",
          "name": "tokenId",
          "type": "uint256"
        },
        {
          "indexed": false,
          "internalType": "string",
          "name": "previousComment",
          "type": "string"
        },
        {
          "indexed": false,
          "internalType": "string",
          "name": "newComment",
          "type": "string"
        }
      ],
      "name": "TokenCommentUpdated",
      "type": "event"
    },
    {
      "anonymous": false,
      "inputs": [
        {
          "indexed": true,
          "internalType": "address",
          "name": "creator",
          "type": "address"
        },
        {
          "indexed": true,
          "internalType": "uint256",
          "name": "trackId",
          "type": "uint256"
        },
        {
          "indexed": true,
          "internalType": "uint256",
          "name": "tokenId",
          "type": "uint256"
        },
        {
          "indexed": false,
          "internalType": "uint256",
          "name": "price",
          "type": "uint256"
        },
        {
          "indexed": false,
          "internalType": "uint256",
          "name": "localTokenId",
          "type": "uint256"
        }
      ],
      "name": "TokenCreated",
      "type": "event"
    },
    {
      "anonymous": false,
      "inputs": [
        {
          "indexed": true,
          "internalType": "address",
          "name": "caller",
          "type": "address"
        },
        {
          "indexed": true,
          "internalType": "uint256",
          "name": "tokenId",
          "type": "uint256"
        },
        {
          "indexed": false,
          "internalType": "bool",
          "name": "onSale",
          "type": "bool"
        }
      ],
      "name": "TokenOnSaleUpdated",
      "type": "event"
    },
    {
      "anonymous": false,
      "inputs": [
        {
          "indexed": true,
          "internalType": "address",
          "name": "caller",
          "type": "address"
        },
        {
          "indexed": true,
          "internalType": "uint256",
          "name": "tokenId",
          "type": "uint256"
        },
        {
          "indexed": false,
          "internalType": "uint256",
          "name": "oldPrice",
          "type": "uint256"
        },
        {
          "indexed": false,
          "internalType": "uint256",
          "name": "newPrice",
          "type": "uint256"
        }
      ],
      "name": "TokenPriceUpdated",
      "type": "event"
    },
    {
      "anonymous": false,
      "inputs": [
        {
          "indexed": true,
          "internalType": "uint256",
          "name": "tokenId",
          "type": "uint256"
        },
        {
          "indexed": true,
          "internalType": "address",
          "name": "referrer",
          "type": "address"
        },
        {
          "indexed": false,
          "internalType": "uint256",
          "name": "referralFee",
          "type": "uint256"
        },
        {
          "indexed": false,
          "internalType": "uint256",
          "name": "platformFee",
          "type": "uint256"
        },
        {
          "indexed": false,
          "internalType": "uint256",
          "name": "royaltyAmount",
          "type": "uint256"
        },
        {
          "indexed": false,
          "internalType": "address",
          "name": "previousOwner",
          "type": "address"
        },
        {
          "indexed": false,
          "internalType": "uint256",
          "name": "valueToPreviousOwner",
          "type": "uint256"
        },
        {
          "indexed": true,
          "internalType": "address",
          "name": "newOwner",
          "type": "address"
        },
        {
          "indexed": false,
          "internalType": "uint256",
          "name": "price",
          "type": "uint256"
        }
      ],
      "name": "TokenPurchased",
      "type": "event"
    },
    {
      "anonymous": false,
      "inputs": [
        {
          "indexed": true,
          "internalType": "address",
          "name": "creator",
          "type": "address"
        },
        {
          "indexed": true,
          "internalType": "uint256",
          "name": "trackId",
          "type": "uint256"
        },
        {
          "indexed": false,
          "internalType": "uint256",
          "name": "maxTokenId",
          "type": "uint256"
        },
        {
          "indexed": false,
          "internalType": "uint256",
          "name": "price",
          "type": "uint256"
        },
        {
          "indexed": false,
          "internalType": "string",
          "name": "URIHash",
          "type": "string"
        },
        {
          "indexed": true,
          "internalType": "string",
          "name": "indexedURIHash",
          "type": "string"
        }
      ],
      "name": "TrackMinted",
      "type": "event"
    },
    {
      "anonymous": false,
      "inputs": [
        {
          "indexed": true,
          "internalType": "address",
          "name": "operator",
          "type": "address"
        },
        {
          "indexed": true,
          "internalType": "address",
          "name": "from",
          "type": "address"
        },
        {
          "indexed": true,
          "internalType": "address",
          "name": "to",
          "type": "address"
        },
        {
          "indexed": false,
          "internalType": "uint256[]",
          "name": "ids",
          "type": "uint256[]"
        },
        {
          "indexed": false,
          "internalType": "uint256[]",
          "name": "values",
          "type": "uint256[]"
        }
      ],
      "name": "TransferBatch",
      "type": "event"
    },
    {
      "anonymous": false,
      "inputs": [
        {
          "indexed": true,
          "internalType": "address",
          "name": "operator",
          "type": "address"
        },
        {
          "indexed": true,
          "internalType": "address",
          "name": "from",
          "type": "address"
        },
        {
          "indexed": true,
          "internalType": "address",
          "name": "to",
          "type": "address"
        },
        {
          "indexed": false,
          "internalType": "uint256",
          "name": "id",
          "type": "uint256"
        },
        {
          "indexed": false,
          "internalType": "uint256",
          "name": "value",
          "type": "uint256"
        }
      ],
      "name": "TransferSingle",
      "type": "event"
    },
    {
      "anonymous": false,
      "inputs": [
        {
          "indexed": false,
          "internalType": "string",
          "name": "value",
          "type": "string"
        },
        {
          "indexed": true,
          "internalType": "uint256",
          "name": "id",
          "type": "uint256"
        }
      ],
      "name": "URI",
      "type": "event"
    },
    {
      "anonymous": false,
      "inputs": [
        {
          "indexed": false,
          "internalType": "address",
          "name": "account",
          "type": "address"
        }
      ],
      "name": "Unpaused",
      "type": "event"
    },
    {
      "inputs": [
        {
          "internalType": "string",
          "name": "baseURI_",
          "type": "string"
        },
        {
          "internalType": "string",
          "name": "contractURI_",
          "type": "string"
        }
      ],
      "name": "__Musixverse_init_unchained",
      "outputs": [],
      "stateMutability": "nonpayable",
      "type": "function"
    },
    {
      "inputs": [
        {
          "internalType": "address",
          "name": "account",
          "type": "address"
        },
        {
          "internalType": "uint256",
          "name": "id",
          "type": "uint256"
        }
      ],
      "name": "balanceOf",
      "outputs": [
        {
          "internalType": "uint256",
          "name": "",
          "type": "uint256"
        }
      ],
      "stateMutability": "view",
      "type": "function"
    },
    {
      "inputs": [
        {
          "internalType": "address[]",
          "name": "accounts",
          "type": "address[]"
        },
        {
          "internalType": "uint256[]",
          "name": "ids",
          "type": "uint256[]"
        }
      ],
      "name": "balanceOfBatch",
      "outputs": [
        {
          "internalType": "uint256[]",
          "name": "",
          "type": "uint256[]"
        }
      ],
      "stateMutability": "view",
      "type": "function"
    },
    {
      "inputs": [
        {
          "internalType": "address",
          "name": "account",
          "type": "address"
        },
        {
          "internalType": "address",
          "name": "operator",
          "type": "address"
        }
      ],
      "name": "isApprovedForAll",
      "outputs": [
        {
          "internalType": "bool",
          "name": "",
          "type": "bool"
        }
      ],
      "stateMutability": "view",
      "type": "function"
    },
    {
      "inputs": [
        {
          "components": [
            {
              "internalType": "uint16",
              "name": "amount",
              "type": "uint16"
            },
            {
              "internalType": "uint256",
              "name": "price",
              "type": "uint256"
            },
            {
              "internalType": "string",
              "name": "URIHash",
              "type": "string"
            },
            {
              "internalType": "string",
              "name": "unlockableContentURIHash",
              "type": "string"
            },
            {
              "internalType": "address[]",
              "name": "collaborators",
              "type": "address[]"
            },
            {
              "internalType": "uint16[]",
              "name": "percentageContributions",
              "type": "uint16[]"
            },
            {
              "internalType": "uint16",
              "name": "resaleRoyaltyPercentage",
              "type": "uint16"
            },
            {
              "internalType": "bool",
              "name": "onSale",
              "type": "bool"
            },
            {
              "internalType": "uint256",
              "name": "unlockTimestamp",
              "type": "uint256"
            }
          ],
          "internalType": "struct TrackNftCreationData",
          "name": "data",
          "type": "tuple"
        }
      ],
      "name": "mintTrackNFT",
      "outputs": [],
      "stateMutability": "nonpayable",
      "type": "function"
    },
    {
      "inputs": [
        {
          "internalType": "uint256",
          "name": "tokenId",
          "type": "uint256"
        }
      ],
      "name": "ownerOf",
      "outputs": [
        {
          "internalType": "address",
          "name": "",
          "type": "address"
        }
      ],
      "stateMutability": "view",
      "type": "function"
    },
    {
      "inputs": [],
      "name": "pause",
      "outputs": [],
      "stateMutability": "nonpayable",
      "type": "function"
    },
    {
      "inputs": [],
      "name": "paused",
      "outputs": [
        {
          "internalType": "bool",
          "name": "",
          "type": "bool"
        }
      ],
      "stateMutability": "view",
      "type": "function"
    },
    {
      "inputs": [
        {
          "internalType": "uint256",
          "name": "tokenId",
          "type": "uint256"
        },
        {
          "internalType": "uint256",
          "name": "trackId",
          "type": "uint256"
        },
        {
          "internalType": "address payable",
          "name": "referrer",
          "type": "address"
        }
      ],
      "name": "purchaseTrackNFT",
      "outputs": [],
      "stateMutability": "payable",
      "type": "function"
    },
    {
      "inputs": [
        {
          "internalType": "address",
          "name": "from",
          "type": "address"
        },
        {
          "internalType": "address",
          "name": "to",
          "type": "address"
        },
        {
          "internalType": "uint256[]",
          "name": "ids",
          "type": "uint256[]"
        },
        {
          "internalType": "uint256[]",
          "name": "amounts",
          "type": "uint256[]"
        },
        {
          "internalType": "bytes",
          "name": "data",
          "type": "bytes"
        }
      ],
      "name": "safeBatchTransferFrom",
      "outputs": [],
      "stateMutability": "nonpayable",
      "type": "function"
    },
    {
      "inputs": [
        {
          "internalType": "address",
          "name": "from",
          "type": "address"
        },
        {
          "internalType": "address",
          "name": "to",
          "type": "address"
        },
        {
          "internalType": "uint256",
          "name": "id",
          "type": "uint256"
        },
        {
          "internalType": "uint256",
          "name": "amount",
          "type": "uint256"
        },
        {
          "internalType": "bytes",
          "name": "data",
          "type": "bytes"
        }
      ],
      "name": "safeTransferFrom",
      "outputs": [],
      "stateMutability": "nonpayable",
      "type": "function"
    },
    {
      "inputs": [
        {
          "internalType": "address",
          "name": "operator",
          "type": "address"
        },
        {
          "internalType": "bool",
          "name": "approved",
          "type": "bool"
        }
      ],
      "name": "setApprovalForAll",
      "outputs": [],
      "stateMutability": "nonpayable",
      "type": "function"
    },
    {
      "inputs": [
        {
          "internalType": "bytes4",
          "name": "interfaceId",
          "type": "bytes4"
        }
      ],
      "name": "supportsInterface",
      "outputs": [
        {
          "internalType": "bool",
          "name": "",
          "type": "bool"
        }
      ],
      "stateMutability": "view",
      "type": "function"
    },
    {
      "inputs": [
        {
          "internalType": "uint256",
          "name": "tokenId",
          "type": "uint256"
        }
      ],
      "name": "toggleOnSale",
      "outputs": [],
      "stateMutability": "nonpayable",
      "type": "function"
    },
    {
      "inputs": [],
      "name": "unpause",
      "outputs": [],
      "stateMutability": "nonpayable",
      "type": "function"
    },
    {
      "inputs": [
        {
          "internalType": "uint256",
          "name": "_tokenId",
          "type": "uint256"
        },
        {
          "internalType": "string",
          "name": "_comment",
          "type": "string"
        }
      ],
      "name": "updateCommentOnToken",
      "outputs": [],
      "stateMutability": "nonpayable",
      "type": "function"
    },
    {
      "inputs": [
        {
          "internalType": "uint256",
          "name": "tokenId",
          "type": "uint256"
        },
        {
          "internalType": "uint256",
          "name": "newPrice",
          "type": "uint256"
        }
      ],
      "name": "updatePrice",
      "outputs": [],
      "stateMutability": "nonpayable",
      "type": "function"
    },
    {
      "inputs": [
        {
          "internalType": "string",
          "name": "newURI",
          "type": "string"
        }
      ],
      "name": "updateURI",
      "outputs": [],
      "stateMutability": "nonpayable",
      "type": "function"
    },
    {
      "inputs": [
        {
          "internalType": "uint256",
          "name": "mxvTokenId",
          "type": "uint256"
        }
      ],
      "name": "uri",
      "outputs": [
        {
          "internalType": "string",
          "name": "",
          "type": "string"
        }
      ],
      "stateMutability": "view",
      "type": "function"
    }
  ],
  "bytecode": "0x60806040523480156200001157600080fd5b5060405162005aad38038062005aad8339818101604052810190620000379190620003a1565b816040516020016200004a919062000472565b6040516020818303038152906040526200006a81620000a860201b60201c565b506000601160006101000a81548160ff0219169083151502179055506001601281905550620000a08282620000c460201b60201c565b505062000647565b8060109080519060200190620000c09291906200027f565b5050565b6040518060400160405280600a81526020017f4d75736978766572736500000000000000000000000000000000000000000000815250600080019080519060200190620001139291906200027f565b506040518060400160405280600381526020017f4d5856000000000000000000000000000000000000000000000000000000000081525060006001019080519060200190620001649291906200027f565b506001600060040160006101000a81548160ff021916908360ff16021790555030600060040160016101000a81548173ffffffffffffffffffffffffffffffffffffffff021916908373ffffffffffffffffffffffffffffffffffffffff160217905550600a600060040160156101000a81548160ff021916908360ff1602179055508060006002019080519060200190620002029291906200027f565b5081600060030190805190602001906200021e9291906200027f565b507f9f2df0fed2c77648de5860a4cc508cd0818c85b8b8a1ab4ceeef8d981c8956a66000600601819055506200027b8260405160200162000260919062000472565b604051602081830303815290604052620000a860201b60201c565b5050565b8280546200028d9062000543565b90600052602060002090601f016020900481019282620002b15760008555620002fd565b82601f10620002cc57805160ff1916838001178555620002fd565b82800160010185558215620002fd579182015b82811115620002fc578251825591602001919060010190620002df565b5b5090506200030c919062000310565b5090565b5b808211156200032b57600081600090555060010162000311565b5090565b6000620003466200034084620004c1565b62000498565b9050828152602081018484840111156200035f57600080fd5b6200036c8482856200050d565b509392505050565b600082601f8301126200038657600080fd5b8151620003988482602086016200032f565b91505092915050565b60008060408385031215620003b557600080fd5b600083015167ffffffffffffffff811115620003d057600080fd5b620003de8582860162000374565b925050602083015167ffffffffffffffff811115620003fc57600080fd5b6200040a8582860162000374565b9150509250929050565b60006200042182620004f7565b6200042d818562000502565b93506200043f8185602086016200050d565b80840191505092915050565b60006200045a60048362000502565b915062000467826200061e565b600482019050919050565b600062000480828462000414565b91506200048d826200044b565b915081905092915050565b6000620004a4620004b7565b9050620004b2828262000579565b919050565b6000604051905090565b600067ffffffffffffffff821115620004df57620004de620005de565b5b620004ea826200060d565b9050602081019050919050565b600081519050919050565b600081905092915050565b60005b838110156200052d57808201518184015260208101905062000510565b838111156200053d576000848401525b50505050565b600060028204905060018216806200055c57607f821691505b60208210811415620005735762000572620005af565b5b50919050565b62000584826200060d565b810181811067ffffffffffffffff82111715620005a657620005a5620005de565b5b80604052505050565b7f4e487b7100000000000000000000000000000000000000000000000000000000600052602260045260246000fd5b7f4e487b7100000000000000000000000000000000000000000000000000000000600052604160045260246000fd5b6000601f19601f8301169050919050565b7f7b69647d00000000000000000000000000000000000000000000000000000000600082015250565b61545680620006576000396000f3fe6080604052600436106101135760003560e01c806382367b2d116100a0578063cfcc9f7f11610064578063cfcc9f7f14610398578063d6189025146103b4578063e985e9c5146103dd578063ee169bd31461041a578063f242432a1461044357610113565b806382367b2d146102dd5780638456cb5914610306578063a22cb4651461031d578063c30f4a5a14610346578063c6f8532d1461036f57610113565b80633f4ba83a116100e75780633f4ba83a146101f85780634e1273f41461020f5780635c975abb1461024c5780636352211e1461027757806378981a73146102b457610113565b8062fdd58e1461011857806301ffc9a7146101555780630e89341c146101925780632eb2c2d6146101cf575b600080fd5b34801561012457600080fd5b5061013f600480360381019061013a91906133cc565b61046c565b60405161014c919061458f565b60405180910390f35b34801561016157600080fd5b5061017c6004803603810190610177919061349d565b610536565b60405161018991906142b9565b60405180910390f35b34801561019e57600080fd5b506101b960048036038101906101b49190613670565b610618565b6040516101c691906142d4565b60405180910390f35b3480156101db57600080fd5b506101f660048036038101906101f19190613242565b6106d2565b005b34801561020457600080fd5b5061020d610773565b005b34801561021b57600080fd5b5061023660048036038101906102319190613408565b61078d565b6040516102439190614260565b60405180910390f35b34801561025857600080fd5b5061026161093e565b60405161026e91906142b9565b60405180910390f35b34801561028357600080fd5b5061029e60048036038101906102999190613670565b610955565b6040516102ab9190614083565b60405180910390f35b3480156102c057600080fd5b506102db60048036038101906102d691906135dd565b6109ef565b005b3480156102e957600080fd5b5061030460048036038101906102ff91906136ed565b610f21565b005b34801561031257600080fd5b5061031b611098565b005b34801561032957600080fd5b50610344600480360381019061033f9190613390565b6110b2565b005b34801561035257600080fd5b5061036d600480360381019061036891906134ef565b6110c8565b005b34801561037b57600080fd5b5061039660048036038101906103919190613699565b6110dc565b005b6103b260048036038101906103ad9190613765565b611255565b005b3480156103c057600080fd5b506103db60048036038101906103d69190613571565b6118ab565b005b3480156103e957600080fd5b5061040460048036038101906103ff9190613206565b611a54565b60405161041191906142b9565b60405180910390f35b34801561042657600080fd5b50610441600480360381019061043c9190613670565b611ae8565b005b34801561044f57600080fd5b5061046a60048036038101906104659190613301565b611c07565b005b60008073ffffffffffffffffffffffffffffffffffffffff168373ffffffffffffffffffffffffffffffffffffffff1614156104dd576040517f08c379a00000000000000000000000000000000000000000000000000000000081526004016104d4906143cd565b60405180910390fd5b600e600083815260200190815260200160002060008473ffffffffffffffffffffffffffffffffffffffff1673ffffffffffffffffffffffffffffffffffffffff16815260200190815260200160002054905092915050565b60007fd9b67a26000000000000000000000000000000000000000000000000000000007bffffffffffffffffffffffffffffffffffffffffffffffffffffffff1916827bffffffffffffffffffffffffffffffffffffffffffffffffffffffff1916148061060157507f0e89341c000000000000000000000000000000000000000000000000000000007bffffffffffffffffffffffffffffffffffffffffffffffffffffffff1916827bffffffffffffffffffffffffffffffffffffffffffffffffffffffff1916145b80610611575061061082611ca8565b5b9050919050565b606060008211801561063657506106326000600701611d12565b8211155b610675576040517f08c379a000000000000000000000000000000000000000000000000000000000815260040161066c9061446d565b60405180910390fd5b60006003016000600901600080600a0160008681526020019081526020016000206000015481526020019081526020016000206000016040516020016106bc92919061405f565b6040516020818303038152906040529050919050565b6106da611d20565b73ffffffffffffffffffffffffffffffffffffffff168573ffffffffffffffffffffffffffffffffffffffff161480610720575061071f8561071a611d20565b611a54565b5b61075f576040517f08c379a00000000000000000000000000000000000000000000000000000000081526004016107569061434d565b60405180910390fd5b61076c8585858585611d28565b5050505050565b61077b612099565b6107836120e2565b61078b61217d565b565b606081518351146107d3576040517f08c379a00000000000000000000000000000000000000000000000000000000081526004016107ca906144cd565b60405180910390fd5b6000835167ffffffffffffffff811115610816577f4e487b7100000000000000000000000000000000000000000000000000000000600052604160045260246000fd5b6040519080825280602002602001820160405280156108445781602001602082028036833780820191505090505b50905060005b8451811015610933576108dd85828151811061088f577f4e487b7100000000000000000000000000000000000000000000000000000000600052603260045260246000fd5b60200260200101518583815181106108d0577f4e487b7100000000000000000000000000000000000000000000000000000000600052603260045260246000fd5b602002602001015161046c565b828281518110610916577f4e487b7100000000000000000000000000000000000000000000000000000000600052603260045260246000fd5b6020026020010181815250508061092c90614d17565b905061084a565b508091505092915050565b6000601160009054906101000a900460ff16905090565b60008082118015610972575061096e6000600701611d12565b8211155b6109b1576040517f08c379a00000000000000000000000000000000000000000000000000000000081526004016109a89061446d565b60405180910390fd5b6000600b01600083815260200190815260200160002060009054906101000a900473ffffffffffffffffffffffffffffffffffffffff169050919050565b6109f76121e0565b60026012541415610a3d576040517f08c379a0000000000000000000000000000000000000000000000000000000008152600401610a349061452d565b60405180910390fd5b600260128190555073__$5fb119e9dd3bfa8403a9274d94a0e1d1ed$__63b4196759826040518263ffffffff1660e01b8152600401610a7c919061456d565b60006040518083038186803b158015610a9457600080fd5b505af4158015610aa8573d6000803e3d6000fd5b50505050610ac46001600060080161222a90919063ffffffff16565b73__$5fb119e9dd3bfa8403a9274d94a0e1d1ed$__635c868675610aeb6000600801611d12565b838060800190610afb919061471e565b858060a00190610b0b9190614775565b6000600c016040518763ffffffff1660e01b8152600401610b31969594939291906145fd565b60006040518083038186803b158015610b4957600080fd5b505af4158015610b5d573d6000803e3d6000fd5b50505050604051806101000160405280828060400190610b7d91906147cc565b8080601f016020809104026020016040519081016040528093929190818152602001838380828437600081840152601f19601f820116905080830192505050505050508152602001828060600190610bd591906147cc565b8080601f016020809104026020016040519081016040528093929190818152602001838380828437600081840152601f19601f8201169050808301925050505050505081526020013373ffffffffffffffffffffffffffffffffffffffff1681526020018260c0016020810190610c4c9190613647565b61ffff1681526020018261010001358152602001826020013581526020016001610c796000600701611d12565b610c839190614b88565b8152602001826000016020810190610c9b9190613647565b61ffff16610cac6000600701611d12565b610cb69190614b88565b81525060006009016000610ccd6000600801611d12565b81526020019081526020016000206000820151816000019080519060200190610cf7929190612db2565b506020820151816001019080519060200190610d14929190612db2565b5060408201518160020160006101000a81548173ffffffffffffffffffffffffffffffffffffffff021916908373ffffffffffffffffffffffffffffffffffffffff16021790555060608201518160020160146101000a81548161ffff021916908361ffff1602179055506080820151816003015560a0820151816004015560c0820151816005015560e0820151816006015590505060005b816000016020810190610dc09190613647565b61ffff16811015610e7057610de36001600060070161222a90919063ffffffff16565b610df06000600701611d12565b610dfd6000600801611d12565b3373ffffffffffffffffffffffffffffffffffffffff167ff6665b7e151bd911df3c92fad49c355b0a6a4441132b4f725fb666c310ec5e058560200135600186610e479190614b88565b604051610e55929190614654565b60405180910390a48080610e6890614d17565b915050610dad565b50808060400190610e8191906147cc565b604051610e8f929190614024565b6040518091039020610ea46000600801611d12565b3373ffffffffffffffffffffffffffffffffffffffff167f25abfec7f7045e31f84e0010b649542f93c0d3c38065bcd920fd2022b107ec7c610ee96000600701611d12565b8560200135868060400190610efe91906147cc565b604051610f0e949392919061467d565b60405180910390a4600160128190555050565b610f296121e0565b60026012541415610f6f576040517f08c379a0000000000000000000000000000000000000000000000000000000008152600401610f669061452d565b60405180910390fd5b600260128190555060008073__$5fb119e9dd3bfa8403a9274d94a0e1d1ed$__6322997d56600060040160019054906101000a900473ffffffffffffffffffffffffffffffffffffffff16866000600a018760006007016040518663ffffffff1660e01b8152600401610fe695949392919061409e565b604080518083038186803b158015610ffd57600080fd5b505af4158015611011573d6000803e3d6000fd5b505050506040513d601f19601f820116820180604052508101906110359190613729565b91509150833373ffffffffffffffffffffffffffffffffffffffff167f89ef1bf2373367c2626c5a62e7a9eb1645310f8a9ae5f544086c984a11122fa18484604051611082929190614654565b60405180910390a3505060016012819055505050565b6110a06121e0565b6110a86120e2565b6110b0612283565b565b6110c46110bd611d20565b83836122e6565b5050565b6110d06120e2565b6110d981612453565b50565b6110e46121e0565b6002601254141561112a576040517f08c379a00000000000000000000000000000000000000000000000000000000081526004016111219061452d565b60405180910390fd5b6002601281905550600073__$5fb119e9dd3bfa8403a9274d94a0e1d1ed$__63e5ef4468600060040160019054906101000a900473ffffffffffffffffffffffffffffffffffffffff1685856000600d0160006007016040518663ffffffff1660e01b81526004016111a0959493929190614144565b60006040518083038186803b1580156111b857600080fd5b505af41580156111cc573d6000803e3d6000fd5b505050506040513d6000823e3d601f19601f820116820180604052508101906111f59190613530565b9050823373ffffffffffffffffffffffffffffffffffffffff167f2e13edb1190206fc67476dcaa4c4c9991f8ee62db6d4bf10d2cb03c8974cee4283856040516112409291906142f6565b60405180910390a35060016012819055505050565b61125d6121e0565b600260125414156112a3576040517f08c379a000000000000000000000000000000000000000000000000000000000815260040161129a9061452d565b60405180910390fd5b60026012819055506000821180156112c757506112c36000600801611d12565b8211155b611306576040517f08c379a00000000000000000000000000000000000000000000000000000000081526004016112fd9061448d565b60405180910390fd5b600061131184610955565b905060008060090160008581526020019081526020016000206040518061010001604052908160008201805461134690614cb4565b80601f016020809104026020016040519081016040528092919081815260200182805461137290614cb4565b80156113bf5780601f10611394576101008083540402835291602001916113bf565b820191906000526020600020905b8154815290600101906020018083116113a257829003601f168201915b505050505081526020016001820180546113d890614cb4565b80601f016020809104026020016040519081016040528092919081815260200182805461140490614cb4565b80156114515780601f1061142657610100808354040283529160200191611451565b820191906000526020600020905b81548152906001019060200180831161143457829003601f168201915b505050505081526020016002820160009054906101000a900473ffffffffffffffffffffffffffffffffffffffff1673ffffffffffffffffffffffffffffffffffffffff1673ffffffffffffffffffffffffffffffffffffffff1681526020016002820160149054906101000a900461ffff1661ffff1661ffff16815260200160038201548152602001600482015481526020016005820154815260200160068201548152505090508060c00151851015801561151257508060e001518511155b611551576040517f08c379a00000000000000000000000000000000000000000000000000000000081526004016115489061454d565b60405180910390fd5b600073ffffffffffffffffffffffffffffffffffffffff168273ffffffffffffffffffffffffffffffffffffffff161480156115a55750600080600a01600087815260200190815260200160002060000154145b156116bc576115ca81604001518660016040518060200160405280600081525061246d565b80604001516000600b01600087815260200190815260200160002060006101000a81548173ffffffffffffffffffffffffffffffffffffffff021916908373ffffffffffffffffffffffffffffffffffffffff16021790555060405180608001604052808581526020018260a001518152602001600115158152602001600015158152506000600a016000878152602001908152602001600020600082015181600001556020820151816001015560408201518160020160006101000a81548160ff02191690831515021790555060608201518160020160016101000a81548160ff0219169083151502179055509050505b60008073ffffffffffffffffffffffffffffffffffffffff168473ffffffffffffffffffffffffffffffffffffffff16146116f5578390505b6116fe86610955565b9250600073__$5fb119e9dd3bfa8403a9274d94a0e1d1ed$__633b8a23c3888460006009016000600a0160006007016040518663ffffffff1660e01b815260040161174d9594939291906145aa565b60806040518083038186803b15801561176557600080fd5b505af4158015611779573d6000803e3d6000fd5b505050506040513d601f19601f8201168201806040525081019061179d919061361e565b90506117bc84338960016040518060200160405280600081525061261f565b336000600b01600089815260200190815260200160002060006101000a81548173ffffffffffffffffffffffffffffffffffffffff021916908373ffffffffffffffffffffffffffffffffffffffff1602179055503373ffffffffffffffffffffffffffffffffffffffff168273ffffffffffffffffffffffffffffffffffffffff16887f60ffbd4985fbc0e523f97f71a0c98343dba8995837eb3847a3cd2692864dc4e38460000151856020015186604001518a886060015134604051611889969594939291906146bd565b60405180910390a461189a87611ae8565b505050506001601281905550505050565b6040518060400160405280600a81526020017f4d757369787665727365000000000000000000000000000000000000000000008152506000800190805190602001906118f8929190612db2565b506040518060400160405280600381526020017f4d5856000000000000000000000000000000000000000000000000000000000081525060006001019080519060200190611947929190612db2565b506001600060040160006101000a81548160ff021916908360ff16021790555030600060040160016101000a81548173ffffffffffffffffffffffffffffffffffffffff021916908373ffffffffffffffffffffffffffffffffffffffff160217905550600a600060040160156101000a81548160ff021916908360ff16021790555080600060020190805190602001906119e3929190612db2565b5081600060030190805190602001906119fd929190612db2565b507f9f2df0fed2c77648de5860a4cc508cd0818c85b8b8a1ab4ceeef8d981c8956a6600060060181905550611a5082604051602001611a3c919061403d565b604051602081830303815290604052612453565b5050565b6000600f60008473ffffffffffffffffffffffffffffffffffffffff1673ffffffffffffffffffffffffffffffffffffffff16815260200190815260200160002060008373ffffffffffffffffffffffffffffffffffffffff1673ffffffffffffffffffffffffffffffffffffffff16815260200190815260200160002060009054906101000a900460ff16905092915050565b611af06121e0565b600073__$5fb119e9dd3bfa8403a9274d94a0e1d1ed$__634ceeab12600060040160019054906101000a900473ffffffffffffffffffffffffffffffffffffffff168460006009016000600a0160006007016040518663ffffffff1660e01b8152600401611b629594939291906140f1565b60206040518083038186803b158015611b7a57600080fd5b505af4158015611b8e573d6000803e3d6000fd5b505050506040513d601f19601f82011682018060405250810190611bb29190613474565b9050813373ffffffffffffffffffffffffffffffffffffffff167f28262f8ffb8cdeb21437c7fa8c9951c1f5350a6cac1ba7559391a5190a34be4d83604051611bfb91906142b9565b60405180910390a35050565b611c0f611d20565b73ffffffffffffffffffffffffffffffffffffffff168573ffffffffffffffffffffffffffffffffffffffff161480611c555750611c5485611c4f611d20565b611a54565b5b611c94576040517f08c379a0000000000000000000000000000000000000000000000000000000008152600401611c8b9061434d565b60405180910390fd5b611ca1858585858561261f565b5050505050565b60007f01ffc9a7000000000000000000000000000000000000000000000000000000007bffffffffffffffffffffffffffffffffffffffffffffffffffffffff1916827bffffffffffffffffffffffffffffffffffffffffffffffffffffffff1916149050919050565b600081600001549050919050565b600033905090565b8151835114611d6c576040517f08c379a0000000000000000000000000000000000000000000000000000000008152600401611d63906144ed565b60405180910390fd5b600073ffffffffffffffffffffffffffffffffffffffff168473ffffffffffffffffffffffffffffffffffffffff161415611ddc576040517f08c379a0000000000000000000000000000000000000000000000000000000008152600401611dd39061442d565b60405180910390fd5b6000611de6611d20565b9050611df68187878787876128be565b60005b8451811015611ff6576000858281518110611e3d577f4e487b7100000000000000000000000000000000000000000000000000000000600052603260045260246000fd5b602002602001015190506000858381518110611e82577f4e487b7100000000000000000000000000000000000000000000000000000000600052603260045260246000fd5b602002602001015190506000600e600084815260200190815260200160002060008b73ffffffffffffffffffffffffffffffffffffffff1673ffffffffffffffffffffffffffffffffffffffff16815260200190815260200160002054905081811015611f24576040517f08c379a0000000000000000000000000000000000000000000000000000000008152600401611f1b9061444d565b60405180910390fd5b818103600e600085815260200190815260200160002060008c73ffffffffffffffffffffffffffffffffffffffff1673ffffffffffffffffffffffffffffffffffffffff1681526020019081526020016000208190555081600e600085815260200190815260200160002060008b73ffffffffffffffffffffffffffffffffffffffff1673ffffffffffffffffffffffffffffffffffffffff1681526020019081526020016000206000828254611fdb9190614b88565b9250508190555050505080611fef90614d17565b9050611df9565b508473ffffffffffffffffffffffffffffffffffffffff168673ffffffffffffffffffffffffffffffffffffffff168273ffffffffffffffffffffffffffffffffffffffff167f4a39dc06d4c0dbc64b70af90fd698a233a518aa5d07e595d983b8c0526c8f7fb878760405161206d929190614282565b60405180910390a46120838187878787876128c6565b6120918187878787876128ce565b505050505050565b6120a161093e565b6120e0576040517f08c379a00000000000000000000000000000000000000000000000000000000081526004016120d79061438d565b60405180910390fd5b565b6120ea612ab5565b60040160009054906101000a900473ffffffffffffffffffffffffffffffffffffffff1673ffffffffffffffffffffffffffffffffffffffff163373ffffffffffffffffffffffffffffffffffffffff161461217b576040517f08c379a0000000000000000000000000000000000000000000000000000000008152600401612172906143ad565b60405180910390fd5b565b612185612099565b6000601160006101000a81548160ff0219169083151502179055507f5db9ee0a495bf2e6ff9c91a7834c1ba4fdd244a5e8aa4e537bd38aeae4b073aa6121c9611d20565b6040516121d69190614083565b60405180910390a1565b6121e861093e565b15612228576040517f08c379a000000000000000000000000000000000000000000000000000000000815260040161221f9061440d565b60405180910390fd5b565b6000811161226d576040517f08c379a0000000000000000000000000000000000000000000000000000000008152600401612264906143ed565b60405180910390fd5b8082600001600082825401925050819055505050565b61228b6121e0565b6001601160006101000a81548160ff0219169083151502179055507f62e78cea01bee320cd4e420270b5ea74000d11b0c9f74754ebdbfc544b05a2586122cf611d20565b6040516122dc9190614083565b60405180910390a1565b8173ffffffffffffffffffffffffffffffffffffffff168373ffffffffffffffffffffffffffffffffffffffff161415612355576040517f08c379a000000000000000000000000000000000000000000000000000000000815260040161234c906144ad565b60405180910390fd5b80600f60008573ffffffffffffffffffffffffffffffffffffffff1673ffffffffffffffffffffffffffffffffffffffff16815260200190815260200160002060008473ffffffffffffffffffffffffffffffffffffffff1673ffffffffffffffffffffffffffffffffffffffff16815260200190815260200160002060006101000a81548160ff0219169083151502179055508173ffffffffffffffffffffffffffffffffffffffff168373ffffffffffffffffffffffffffffffffffffffff167f17307eab39ab6107e8899845ad3d59bd9653f200f220920489ca2b5937696c318360405161244691906142b9565b60405180910390a3505050565b8060109080519060200190612469929190612db2565b5050565b600073ffffffffffffffffffffffffffffffffffffffff168473ffffffffffffffffffffffffffffffffffffffff1614156124dd576040517f08c379a00000000000000000000000000000000000000000000000000000000081526004016124d49061450d565b60405180910390fd5b60006124e7611d20565b905060006124f485612ae2565b9050600061250185612ae2565b9050612512836000898585896128be565b84600e600088815260200190815260200160002060008973ffffffffffffffffffffffffffffffffffffffff1673ffffffffffffffffffffffffffffffffffffffff16815260200190815260200160002060008282546125729190614b88565b925050819055508673ffffffffffffffffffffffffffffffffffffffff16600073ffffffffffffffffffffffffffffffffffffffff168473ffffffffffffffffffffffffffffffffffffffff167fc3d58168c5ae7397731d063d5bbf3d657854427343f4c083240f7aacaa2d0f6289896040516125f0929190614654565b60405180910390a4612607836000898585896128c6565b61261683600089898989612ba8565b50505050505050565b600073ffffffffffffffffffffffffffffffffffffffff168473ffffffffffffffffffffffffffffffffffffffff16141561268f576040517f08c379a00000000000000000000000000000000000000000000000000000000081526004016126869061442d565b60405180910390fd5b6000612699611d20565b905060006126a685612ae2565b905060006126b385612ae2565b90506126c38389898585896128be565b6000600e600088815260200190815260200160002060008a73ffffffffffffffffffffffffffffffffffffffff1673ffffffffffffffffffffffffffffffffffffffff1681526020019081526020016000205490508581101561275b576040517f08c379a00000000000000000000000000000000000000000000000000000000081526004016127529061444d565b60405180910390fd5b858103600e600089815260200190815260200160002060008b73ffffffffffffffffffffffffffffffffffffffff1673ffffffffffffffffffffffffffffffffffffffff1681526020019081526020016000208190555085600e600089815260200190815260200160002060008a73ffffffffffffffffffffffffffffffffffffffff1673ffffffffffffffffffffffffffffffffffffffff16815260200190815260200160002060008282546128129190614b88565b925050819055508773ffffffffffffffffffffffffffffffffffffffff168973ffffffffffffffffffffffffffffffffffffffff168573ffffffffffffffffffffffffffffffffffffffff167fc3d58168c5ae7397731d063d5bbf3d657854427343f4c083240f7aacaa2d0f628a8a60405161288f929190614654565b60405180910390a46128a5848a8a86868a6128c6565b6128b3848a8a8a8a8a612ba8565b505050505050505050565b505050505050565b505050505050565b6128ed8473ffffffffffffffffffffffffffffffffffffffff16612d8f565b15612aad578373ffffffffffffffffffffffffffffffffffffffff1663bc197c8187878686866040518663ffffffff1660e01b815260040161293395949392919061419e565b602060405180830381600087803b15801561294d57600080fd5b505af192505050801561297e57506040513d601f19601f8201168201806040525081019061297b91906134c6565b60015b612a245761298a614ded565b806308c379a014156129e7575061299f615300565b806129aa57506129e9565b806040517f08c379a00000000000000000000000000000000000000000000000000000000081526004016129de91906142d4565b60405180910390fd5b505b6040517f08c379a0000000000000000000000000000000000000000000000000000000008152600401612a1b9061432d565b60405180910390fd5b63bc197c8160e01b7bffffffffffffffffffffffffffffffffffffffffffffffffffffffff1916817bffffffffffffffffffffffffffffffffffffffffffffffffffffffff191614612aab576040517f08c379a0000000000000000000000000000000000000000000000000000000008152600401612aa29061436d565b60405180910390fd5b505b505050505050565b6000807f7ebe20acead178826e523aa23b9f2d4ec9903a0a82ea2ad143a2aab72ae49df190508091505090565b60606000600167ffffffffffffffff811115612b27577f4e487b7100000000000000000000000000000000000000000000000000000000600052604160045260246000fd5b604051908082528060200260200182016040528015612b555781602001602082028036833780820191505090505b5090508281600081518110612b93577f4e487b7100000000000000000000000000000000000000000000000000000000600052603260045260246000fd5b60200260200101818152505080915050919050565b612bc78473ffffffffffffffffffffffffffffffffffffffff16612d8f565b15612d87578373ffffffffffffffffffffffffffffffffffffffff1663f23a6e6187878686866040518663ffffffff1660e01b8152600401612c0d959493929190614206565b602060405180830381600087803b158015612c2757600080fd5b505af1925050508015612c5857506040513d601f19601f82011682018060405250810190612c5591906134c6565b60015b612cfe57612c64614ded565b806308c379a01415612cc15750612c79615300565b80612c845750612cc3565b806040517f08c379a0000000000000000000000000000000000000000000000000000000008152600401612cb891906142d4565b60405180910390fd5b505b6040517f08c379a0000000000000000000000000000000000000000000000000000000008152600401612cf59061432d565b60405180910390fd5b63f23a6e6160e01b7bffffffffffffffffffffffffffffffffffffffffffffffffffffffff1916817bffffffffffffffffffffffffffffffffffffffffffffffffffffffff191614612d85576040517f08c379a0000000000000000000000000000000000000000000000000000000008152600401612d7c9061436d565b60405180910390fd5b505b505050505050565b6000808273ffffffffffffffffffffffffffffffffffffffff163b119050919050565b828054612dbe90614cb4565b90600052602060002090601f016020900481019282612de05760008555612e27565b82601f10612df957805160ff1916838001178555612e27565b82800160010185558215612e27579182015b82811115612e26578251825591602001919060010190612e0b565b5b509050612e349190612e38565b5090565b5b80821115612e51576000816000905550600101612e39565b5090565b6000612e68612e6384614848565b614823565b90508083825260208201905082856020860282011115612e8757600080fd5b60005b85811015612eb75781612e9d8882612fe7565b845260208401935060208301925050600181019050612e8a565b5050509392505050565b6000612ed4612ecf84614874565b614823565b90508083825260208201905082856020860282011115612ef357600080fd5b60005b85811015612f235781612f0988826131dc565b845260208401935060208301925050600181019050612ef6565b5050509392505050565b6000612f40612f3b846148a0565b614823565b905082815260208101848484011115612f5857600080fd5b612f63848285614c72565b509392505050565b6000612f7e612f79846148d1565b614823565b905082815260208101848484011115612f9657600080fd5b612fa1848285614c72565b509392505050565b6000612fbc612fb7846148d1565b614823565b905082815260208101848484011115612fd457600080fd5b612fdf848285614c81565b509392505050565b600081359050612ff681615396565b92915050565b60008135905061300b816153ad565b92915050565b600082601f83011261302257600080fd5b8135613032848260208601612e55565b91505092915050565b600082601f83011261304c57600080fd5b813561305c848260208601612ec1565b91505092915050565b600081359050613074816153c4565b92915050565b600081519050613089816153c4565b92915050565b60008135905061309e816153db565b92915050565b6000815190506130b3816153db565b92915050565b600082601f8301126130ca57600080fd5b81356130da848260208601612f2d565b91505092915050565b600082601f8301126130f457600080fd5b8135613104848260208601612f6b565b91505092915050565b600082601f83011261311e57600080fd5b815161312e848260208601612fa9565b91505092915050565b6000610120828403121561314a57600080fd5b81905092915050565b60006080828403121561316557600080fd5b61316f6080614823565b9050600061317f848285016131f1565b6000830152506020613193848285016131f1565b60208301525060406131a7848285016131f1565b60408301525060606131bb848285016131f1565b60608301525092915050565b6000813590506131d6816153f2565b92915050565b6000813590506131eb81615409565b92915050565b60008151905061320081615409565b92915050565b6000806040838503121561321957600080fd5b600061322785828601612fe7565b925050602061323885828601612fe7565b9150509250929050565b600080600080600060a0868803121561325a57600080fd5b600061326888828901612fe7565b955050602061327988828901612fe7565b945050604086013567ffffffffffffffff81111561329657600080fd5b6132a28882890161303b565b935050606086013567ffffffffffffffff8111156132bf57600080fd5b6132cb8882890161303b565b925050608086013567ffffffffffffffff8111156132e857600080fd5b6132f4888289016130b9565b9150509295509295909350565b600080600080600060a0868803121561331957600080fd5b600061332788828901612fe7565b955050602061333888828901612fe7565b9450506040613349888289016131dc565b935050606061335a888289016131dc565b925050608086013567ffffffffffffffff81111561337757600080fd5b613383888289016130b9565b9150509295509295909350565b600080604083850312156133a357600080fd5b60006133b185828601612fe7565b92505060206133c285828601613065565b9150509250929050565b600080604083850312156133df57600080fd5b60006133ed85828601612fe7565b92505060206133fe858286016131dc565b9150509250929050565b6000806040838503121561341b57600080fd5b600083013567ffffffffffffffff81111561343557600080fd5b61344185828601613011565b925050602083013567ffffffffffffffff81111561345e57600080fd5b61346a8582860161303b565b9150509250929050565b60006020828403121561348657600080fd5b60006134948482850161307a565b91505092915050565b6000602082840312156134af57600080fd5b60006134bd8482850161308f565b91505092915050565b6000602082840312156134d857600080fd5b60006134e6848285016130a4565b91505092915050565b60006020828403121561350157600080fd5b600082013567ffffffffffffffff81111561351b57600080fd5b613527848285016130e3565b91505092915050565b60006020828403121561354257600080fd5b600082015167ffffffffffffffff81111561355c57600080fd5b6135688482850161310d565b91505092915050565b6000806040838503121561358457600080fd5b600083013567ffffffffffffffff81111561359e57600080fd5b6135aa858286016130e3565b925050602083013567ffffffffffffffff8111156135c757600080fd5b6135d3858286016130e3565b9150509250929050565b6000602082840312156135ef57600080fd5b600082013567ffffffffffffffff81111561360957600080fd5b61361584828501613137565b91505092915050565b60006080828403121561363057600080fd5b600061363e84828501613153565b91505092915050565b60006020828403121561365957600080fd5b6000613667848285016131c7565b91505092915050565b60006020828403121561368257600080fd5b6000613690848285016131dc565b91505092915050565b600080604083850312156136ac57600080fd5b60006136ba858286016131dc565b925050602083013567ffffffffffffffff8111156136d757600080fd5b6136e3858286016130e3565b9150509250929050565b6000806040838503121561370057600080fd5b600061370e858286016131dc565b925050602061371f858286016131dc565b9150509250929050565b6000806040838503121561373c57600080fd5b600061374a858286016131f1565b925050602061375b858286016131f1565b9150509250929050565b60008060006060848603121561377a57600080fd5b6000613788868287016131dc565b9350506020613799868287016131dc565b92505060406137aa86828701612ffc565b9150509250925092565b60006137c0838361381a565b60208301905092915050565b60006137d88383613fd9565b60208301905092915050565b60006137f08383613fe8565b60208301905092915050565b61380581614bf0565b82525050565b61381481614bde565b82525050565b61382381614bde565b82525050565b60006138358385614983565b935061384082614902565b8060005b85811015613879576138568284614a27565b61386088826137b4565b975061386b8361495c565b925050600181019050613844565b5085925050509392505050565b60006138928385614994565b935061389d82614902565b8060005b858110156138d6576138b38284614a27565b6138bd88826137b4565b97506138c88361495c565b9250506001810190506138a1565b5085925050509392505050565b60006138ef83856149a5565b93506138fa8261490c565b8060005b85811015613933576139108284614b5a565b61391a88826137cc565b975061392583614969565b9250506001810190506138fe565b5085925050509392505050565b600061394c83856149b6565b93506139578261490c565b8060005b858110156139905761396d8284614b5a565b61397788826137cc565b975061398283614969565b92505060018101905061395b565b5085925050509392505050565b60006139a88261493b565b6139b281856149c7565b93506139bd83614916565b8060005b838110156139ee5781516139d588826137e4565b97506139e083614976565b9250506001810190506139c1565b5085935050505092915050565b613a0481614c02565b82525050565b613a1381614c02565b82525050565b6000613a2482614946565b613a2e81856149d8565b9350613a3e818560208601614c81565b613a4781614e0f565b840191505092915050565b8082525050565b8082525050565b8082525050565b8082525050565b6000613a7a83856149e9565b9350613a87838584614c72565b613a9083614e0f565b840190509392505050565b6000613aa78385614a0b565b9350613ab4838584614c72565b613abd83614e0f565b840190509392505050565b6000613ad48385614a1c565b9350613ae1838584614c72565b82840190509392505050565b6000613af882614951565b613b0281856149e9565b9350613b12818560208601614c81565b613b1b81614e0f565b840191505092915050565b6000613b3182614951565b613b3b81856149fa565b9350613b4b818560208601614c81565b613b5481614e0f565b840191505092915050565b6000613b6a82614951565b613b748185614a1c565b9350613b84818560208601614c81565b80840191505092915050565b60008154613b9d81614cb4565b613ba78186614a1c565b94506001821660008114613bc25760018114613bd357613c06565b60ff19831686528186019350613c06565b613bdc85614926565b60005b83811015613bfe57815481890152600182019150602081019050613bdf565b838801955050505b50505092915050565b6000613c1c6034836149e9565b9150613c2782614e2d565b604082019050919050565b6000613c3f602f836149e9565b9150613c4a82614e7c565b604082019050919050565b6000613c626028836149e9565b9150613c6d82614ecb565b604082019050919050565b6000613c856014836149e9565b9150613c9082614f1a565b602082019050919050565b6000613ca86022836149e9565b9150613cb382614f43565b604082019050919050565b6000613ccb602a836149e9565b9150613cd682614f92565b604082019050919050565b6000613cee6032836149e9565b9150613cf982614fe1565b604082019050919050565b6000613d116010836149e9565b9150613d1c82615030565b602082019050919050565b6000613d346025836149e9565b9150613d3f82615059565b604082019050919050565b6000613d57602a836149e9565b9150613d62826150a8565b604082019050919050565b6000613d7a6009836149e9565b9150613d85826150f7565b602082019050919050565b6000613d9d6009836149e9565b9150613da882615120565b602082019050919050565b6000613dc0600483614a1c565b9150613dcb82615149565b600482019050919050565b6000613de36029836149e9565b9150613dee82615172565b604082019050919050565b6000613e066029836149e9565b9150613e11826151c1565b604082019050919050565b6000613e296028836149e9565b9150613e3482615210565b604082019050919050565b6000613e4c6021836149e9565b9150613e578261525f565b604082019050919050565b6000613e6f601f836149e9565b9150613e7a826152ae565b602082019050919050565b6000613e92601d836149e9565b9150613e9d826152d7565b602082019050919050565b8082525050565b60006101208301613ec36000840184614b5a565b613ed06000860182613fd9565b50613ede6020840184614b71565b613eeb6020860182614015565b50613ef96040840184614b03565b8583036040870152613f0c838284613a9b565b92505050613f1d6060840184614b03565b8583036060870152613f30838284613a9b565b92505050613f416080840184614a3e565b8583036080870152613f54838284613886565b92505050613f6560a0840184614a95565b85830360a0870152613f78838284613940565b92505050613f8960c0840184614b5a565b613f9660c0860182613fd9565b50613fa460e0840184614aec565b613fb160e0860182613a0a565b50613fc0610100840184614b71565b613fce610100860182614015565b508091505092915050565b613fe281614c3a565b82525050565b613ff181614c68565b82525050565b61400081614c68565b82525050565b61400f81614c68565b82525050565b61401e81614c68565b82525050565b6000614031828486613ac8565b91508190509392505050565b60006140498284613b5f565b915061405482613db3565b915081905092915050565b600061406b8285613b90565b91506140778284613b90565b91508190509392505050565b6000602082019050614098600083018461380b565b92915050565b600060a0820190506140b360008301886137fc565b6140c06020830187614006565b6140cd6040830186613a60565b6140da6060830185614006565b6140e76080830184613ea8565b9695505050505050565b600060a08201905061410660008301886137fc565b6141136020830187614006565b6141206040830186613a67565b61412d6060830185613a60565b61413a6080830184613ea8565b9695505050505050565b600060a08201905061415960008301886137fc565b6141666020830187614006565b81810360408301526141788186613b26565b90506141876060830185613a59565b6141946080830184613ea8565b9695505050505050565b600060a0820190506141b3600083018861380b565b6141c0602083018761380b565b81810360408301526141d2818661399d565b905081810360608301526141e6818561399d565b905081810360808301526141fa8184613a19565b90509695505050505050565b600060a08201905061421b600083018861380b565b614228602083018761380b565b6142356040830186613ff7565b6142426060830185613ff7565b81810360808301526142548184613a19565b90509695505050505050565b6000602082019050818103600083015261427a818461399d565b905092915050565b6000604082019050818103600083015261429c818561399d565b905081810360208301526142b0818461399d565b90509392505050565b60006020820190506142ce60008301846139fb565b92915050565b600060208201905081810360008301526142ee8184613aed565b905092915050565b600060408201905081810360008301526143108185613aed565b905081810360208301526143248184613aed565b90509392505050565b6000602082019050818103600083015261434681613c0f565b9050919050565b6000602082019050818103600083015261436681613c32565b9050919050565b6000602082019050818103600083015261438681613c55565b9050919050565b600060208201905081810360008301526143a681613c78565b9050919050565b600060208201905081810360008301526143c681613c9b565b9050919050565b600060208201905081810360008301526143e681613cbe565b9050919050565b6000602082019050818103600083015261440681613ce1565b9050919050565b6000602082019050818103600083015261442681613d04565b9050919050565b6000602082019050818103600083015261444681613d27565b9050919050565b6000602082019050818103600083015261446681613d4a565b9050919050565b6000602082019050818103600083015261448681613d6d565b9050919050565b600060208201905081810360008301526144a681613d90565b9050919050565b600060208201905081810360008301526144c681613dd6565b9050919050565b600060208201905081810360008301526144e681613df9565b9050919050565b6000602082019050818103600083015261450681613e1c565b9050919050565b6000602082019050818103600083015261452681613e3f565b9050919050565b6000602082019050818103600083015261454681613e62565b9050919050565b6000602082019050818103600083015261456681613e85565b9050919050565b600060208201905081810360008301526145878184613eaf565b905092915050565b60006020820190506145a46000830184613ff7565b92915050565b600060a0820190506145bf6000830188614006565b6145cc60208301876137fc565b6145d96040830186613a67565b6145e66060830185613a60565b6145f36080830184613ea8565b9695505050505050565b60006080820190506146126000830189614006565b8181036020830152614625818789613829565b9050818103604083015261463a8185876138e3565b90506146496060830184613a52565b979650505050505050565b60006040820190506146696000830185613ff7565b6146766020830184613ff7565b9392505050565b60006060820190506146926000830187613ff7565b61469f6020830186613ff7565b81810360408301526146b2818486613a6e565b905095945050505050565b600060c0820190506146d26000830189613ff7565b6146df6020830188613ff7565b6146ec6040830187613ff7565b6146f9606083018661380b565b6147066080830185613ff7565b61471360a0830184613ff7565b979650505050505050565b6000808335600160200384360303811261473757600080fd5b80840192508235915067ffffffffffffffff82111561475557600080fd5b60208301925060208202360383131561476d57600080fd5b509250929050565b6000808335600160200384360303811261478e57600080fd5b80840192508235915067ffffffffffffffff8211156147ac57600080fd5b6020830192506020820236038313156147c457600080fd5b509250929050565b600080833560016020038436030381126147e557600080fd5b80840192508235915067ffffffffffffffff82111561480357600080fd5b60208301925060018202360383131561481b57600080fd5b509250929050565b600061482d61483e565b90506148398282614ce6565b919050565b6000604051905090565b600067ffffffffffffffff82111561486357614862614dbe565b5b602082029050602081019050919050565b600067ffffffffffffffff82111561488f5761488e614dbe565b5b602082029050602081019050919050565b600067ffffffffffffffff8211156148bb576148ba614dbe565b5b6148c482614e0f565b9050602081019050919050565b600067ffffffffffffffff8211156148ec576148eb614dbe565b5b6148f582614e0f565b9050602081019050919050565b6000819050919050565b6000819050919050565b6000819050602082019050919050565b60008190508160005260206000209050919050565b600081519050919050565b600081519050919050565b600081519050919050565b6000602082019050919050565b6000602082019050919050565b6000602082019050919050565b600082825260208201905092915050565b600082825260208201905092915050565b600082825260208201905092915050565b600082825260208201905092915050565b600082825260208201905092915050565b600082825260208201905092915050565b600082825260208201905092915050565b600082825260208201905092915050565b600082825260208201905092915050565b600081905092915050565b6000614a366020840184612fe7565b905092915050565b60008083356001602003843603038112614a5757600080fd5b83810192508235915060208301925067ffffffffffffffff821115614a7b57600080fd5b602082023603841315614a8d57600080fd5b509250929050565b60008083356001602003843603038112614aae57600080fd5b83810192508235915060208301925067ffffffffffffffff821115614ad257600080fd5b602082023603841315614ae457600080fd5b509250929050565b6000614afb6020840184613065565b905092915050565b60008083356001602003843603038112614b1c57600080fd5b83810192508235915060208301925067ffffffffffffffff821115614b4057600080fd5b600182023603841315614b5257600080fd5b509250929050565b6000614b6960208401846131c7565b905092915050565b6000614b8060208401846131dc565b905092915050565b6000614b9382614c68565b9150614b9e83614c68565b9250827fffffffffffffffffffffffffffffffffffffffffffffffffffffffffffffffff03821115614bd357614bd2614d60565b5b828201905092915050565b6000614be982614c48565b9050919050565b6000614bfb82614c48565b9050919050565b60008115159050919050565b60007fffffffff0000000000000000000000000000000000000000000000000000000082169050919050565b600061ffff82169050919050565b600073ffffffffffffffffffffffffffffffffffffffff82169050919050565b6000819050919050565b82818337600083830152505050565b60005b83811015614c9f578082015181840152602081019050614c84565b83811115614cae576000848401525b50505050565b60006002820490506001821680614ccc57607f821691505b60208210811415614ce057614cdf614d8f565b5b50919050565b614cef82614e0f565b810181811067ffffffffffffffff82111715614d0e57614d0d614dbe565b5b80604052505050565b6000614d2282614c68565b91507fffffffffffffffffffffffffffffffffffffffffffffffffffffffffffffffff821415614d5557614d54614d60565b5b600182019050919050565b7f4e487b7100000000000000000000000000000000000000000000000000000000600052601160045260246000fd5b7f4e487b7100000000000000000000000000000000000000000000000000000000600052602260045260246000fd5b7f4e487b7100000000000000000000000000000000000000000000000000000000600052604160045260246000fd5b600060033d1115614e0c5760046000803e614e09600051614e20565b90505b90565b6000601f19601f8301169050919050565b60008160e01c9050919050565b7f455243313135353a207472616e7366657220746f206e6f6e204552433131353560008201527f526563656976657220696d706c656d656e746572000000000000000000000000602082015250565b7f455243313135353a2063616c6c6572206973206e6f7420746f6b656e206f776e60008201527f6572206e6f7220617070726f7665640000000000000000000000000000000000602082015250565b7f455243313135353a204552433131353552656365697665722072656a6563746560008201527f6420746f6b656e73000000000000000000000000000000000000000000000000602082015250565b7f5061757361626c653a206e6f7420706175736564000000000000000000000000600082015250565b7f4c69624469616d6f6e643a204d75737420626520636f6e7472616374206f776e60008201527f6572000000000000000000000000000000000000000000000000000000000000602082015250565b7f455243313135353a2061646472657373207a65726f206973206e6f742061207660008201527f616c6964206f776e657200000000000000000000000000000000000000000000602082015250565b7f436f756e7465723a20696e6372656d656e7420616d6f756e742073686f756c6460008201527f2062652067726561746572207468616e20300000000000000000000000000000602082015250565b7f5061757361626c653a2070617573656400000000000000000000000000000000600082015250565b7f455243313135353a207472616e7366657220746f20746865207a65726f20616460008201527f6472657373000000000000000000000000000000000000000000000000000000602082015250565b7f455243313135353a20696e73756666696369656e742062616c616e636520666f60008201527f72207472616e7366657200000000000000000000000000000000000000000000602082015250565b7f546f6b656e20444e450000000000000000000000000000000000000000000000600082015250565b7f547261636b20444e450000000000000000000000000000000000000000000000600082015250565b7f7b69647d00000000000000000000000000000000000000000000000000000000600082015250565b7f455243313135353a2073657474696e6720617070726f76616c2073746174757360008201527f20666f722073656c660000000000000000000000000000000000000000000000602082015250565b7f455243313135353a206163636f756e747320616e6420696473206c656e67746860008201527f206d69736d617463680000000000000000000000000000000000000000000000602082015250565b7f455243313135353a2069647320616e6420616d6f756e7473206c656e6774682060008201527f6d69736d61746368000000000000000000000000000000000000000000000000602082015250565b7f455243313135353a206d696e7420746f20746865207a65726f2061646472657360008201527f7300000000000000000000000000000000000000000000000000000000000000602082015250565b7f5265656e7472616e637947756172643a207265656e7472616e742063616c6c00600082015250565b7f746f6b656e4964206d69736d61746368207769746820747261636b4964000000600082015250565b600060443d101561531057615393565b61531861483e565b60043d036004823e80513d602482011167ffffffffffffffff82111715615340575050615393565b808201805167ffffffffffffffff81111561535e5750505050615393565b80602083010160043d03850181111561537b575050505050615393565b61538a82602001850186614ce6565b82955050505050505b90565b61539f81614bde565b81146153aa57600080fd5b50565b6153b681614bf0565b81146153c157600080fd5b50565b6153cd81614c02565b81146153d857600080fd5b50565b6153e481614c0e565b81146153ef57600080fd5b50565b6153fb81614c3a565b811461540657600080fd5b50565b61541281614c68565b811461541d57600080fd5b5056fea264697066735822122033b89715adc10f553ba8628e097ea897707f7f7077a4f56cd2ad03bf2c3939a764736f6c63430008040033",
  "linkReferences": {
    "contracts/Musixverse/libraries/LibMusixverse.sol": {
      "LibMusixverse": [
        {
          "length": 20,
          "start": 4254
        },
        {
          "length": 20,
          "start": 4381
        },
        {
          "length": 20,
          "start": 5587
        },
        {
          "length": 20,
          "start": 6029
        },
        {
          "length": 20,
          "start": 7515
        },
        {
          "length": 20,
          "start": 8523
        }
      ]
    }
  },
  "deployedLinkReferences": {
    "contracts/Musixverse/libraries/LibMusixverse.sol": {
      "LibMusixverse": [
        {
          "length": 20,
          "start": 2631
        },
        {
          "length": 20,
          "start": 2758
        },
        {
          "length": 20,
          "start": 3964
        },
        {
          "length": 20,
          "start": 4406
        },
        {
          "length": 20,
          "start": 5892
        },
        {
          "length": 20,
          "start": 6900
        }
      ]
    }
  }
}