{
  "_format": "hh-sol-artifact-1",
  "contractName": "MusixverseSettersFacet",
  "sourceName": "contracts/Musixverse/facets/MusixverseSettersFacet.sol",
  "abi": [
    {
      "anonymous": false,
      "inputs": [
        {
          "indexed": true,
          "internalType": "address",
          "name": "caller",
          "type": "address"
        },
        {
          "indexed": true,
          "internalType": "address",
          "name": "artistAddress",
          "type": "address"
        },
        {
          "indexed": true,
          "internalType": "string",
          "name": "username",
          "type": "string"
        }
      ],
      "name": "ArtistVerified",
      "type": "event"
    },
    {
      "anonymous": false,
      "inputs": [
        {
          "indexed": true,
          "internalType": "bytes32",
          "name": "role",
          "type": "bytes32"
        },
        {
          "indexed": true,
          "internalType": "bytes32",
          "name": "previousAdminRole",
          "type": "bytes32"
        },
        {
          "indexed": true,
          "internalType": "bytes32",
          "name": "newAdminRole",
          "type": "bytes32"
        }
      ],
      "name": "RoleAdminChanged",
      "type": "event"
    },
    {
      "anonymous": false,
      "inputs": [
        {
          "indexed": true,
          "internalType": "bytes32",
          "name": "role",
          "type": "bytes32"
        },
        {
          "indexed": true,
          "internalType": "address",
          "name": "account",
          "type": "address"
        },
        {
          "indexed": true,
          "internalType": "address",
          "name": "sender",
          "type": "address"
        }
      ],
      "name": "RoleGranted",
      "type": "event"
    },
    {
      "anonymous": false,
      "inputs": [
        {
          "indexed": true,
          "internalType": "bytes32",
          "name": "role",
          "type": "bytes32"
        },
        {
          "indexed": true,
          "internalType": "address",
          "name": "account",
          "type": "address"
        },
        {
          "indexed": true,
          "internalType": "address",
          "name": "sender",
          "type": "address"
        }
      ],
      "name": "RoleRevoked",
      "type": "event"
    },
    {
      "anonymous": false,
      "inputs": [
        {
          "indexed": true,
          "internalType": "address",
          "name": "caller",
          "type": "address"
        },
        {
          "indexed": true,
          "internalType": "uint256",
          "name": "tokenId",
          "type": "uint256"
        },
        {
          "indexed": false,
          "internalType": "string",
          "name": "previousComment",
          "type": "string"
        },
        {
          "indexed": false,
          "internalType": "string",
          "name": "newComment",
          "type": "string"
        }
      ],
      "name": "TokenCommentUpdated",
      "type": "event"
    },
    {
      "anonymous": false,
      "inputs": [
        {
          "indexed": true,
          "internalType": "address",
          "name": "creator",
          "type": "address"
        },
        {
          "indexed": true,
          "internalType": "uint256",
          "name": "trackId",
          "type": "uint256"
        },
        {
          "indexed": true,
          "internalType": "uint256",
          "name": "tokenId",
          "type": "uint256"
        },
        {
          "indexed": false,
          "internalType": "uint256",
          "name": "price",
          "type": "uint256"
        },
        {
          "indexed": false,
          "internalType": "uint256",
          "name": "localTokenId",
          "type": "uint256"
        }
      ],
      "name": "TokenCreated",
      "type": "event"
    },
    {
      "anonymous": false,
      "inputs": [
        {
          "indexed": true,
          "internalType": "address",
          "name": "caller",
          "type": "address"
        },
        {
          "indexed": true,
          "internalType": "uint256",
          "name": "tokenId",
          "type": "uint256"
        },
        {
          "indexed": false,
          "internalType": "bool",
          "name": "onSale",
          "type": "bool"
        }
      ],
      "name": "TokenOnSaleUpdated",
      "type": "event"
    },
    {
      "anonymous": false,
      "inputs": [
        {
          "indexed": true,
          "internalType": "address",
          "name": "caller",
          "type": "address"
        },
        {
          "indexed": true,
          "internalType": "uint256",
          "name": "tokenId",
          "type": "uint256"
        },
        {
          "indexed": false,
          "internalType": "uint256",
          "name": "oldPrice",
          "type": "uint256"
        },
        {
          "indexed": false,
          "internalType": "uint256",
          "name": "newPrice",
          "type": "uint256"
        }
      ],
      "name": "TokenPriceUpdated",
      "type": "event"
    },
    {
      "anonymous": false,
      "inputs": [
        {
          "indexed": true,
          "internalType": "uint256",
          "name": "tokenId",
          "type": "uint256"
        },
        {
          "indexed": true,
          "internalType": "address",
          "name": "referrer",
          "type": "address"
        },
        {
          "indexed": false,
          "internalType": "address",
          "name": "previousOwner",
          "type": "address"
        },
        {
          "indexed": true,
          "internalType": "address",
          "name": "newOwner",
          "type": "address"
        },
        {
          "indexed": false,
          "internalType": "uint256",
          "name": "price",
          "type": "uint256"
        }
      ],
      "name": "TokenPurchased",
      "type": "event"
    },
    {
      "anonymous": false,
      "inputs": [
        {
          "indexed": true,
          "internalType": "address",
          "name": "creator",
          "type": "address"
        },
        {
          "indexed": true,
          "internalType": "uint256",
          "name": "trackId",
          "type": "uint256"
        },
        {
          "indexed": false,
          "internalType": "uint256",
          "name": "maxTokenId",
          "type": "uint256"
        },
        {
          "indexed": false,
          "internalType": "uint256",
          "name": "price",
          "type": "uint256"
        },
        {
          "indexed": true,
          "internalType": "string",
          "name": "URIHash",
          "type": "string"
        }
      ],
      "name": "TrackMinted",
      "type": "event"
    },
    {
      "inputs": [],
      "name": "DEFAULT_ADMIN_ROLE",
      "outputs": [
        {
          "internalType": "bytes32",
          "name": "",
          "type": "bytes32"
        }
      ],
      "stateMutability": "view",
      "type": "function"
    },
    {
      "inputs": [
        {
          "internalType": "bytes32",
          "name": "role",
          "type": "bytes32"
        }
      ],
      "name": "getRoleAdmin",
      "outputs": [
        {
          "internalType": "bytes32",
          "name": "",
          "type": "bytes32"
        }
      ],
      "stateMutability": "view",
      "type": "function"
    },
    {
      "inputs": [
        {
          "internalType": "address",
          "name": "adminAddress",
          "type": "address"
        }
      ],
      "name": "grantAdminRole",
      "outputs": [],
      "stateMutability": "nonpayable",
      "type": "function"
    },
    {
      "inputs": [
        {
          "internalType": "bytes32",
          "name": "role",
          "type": "bytes32"
        },
        {
          "internalType": "address",
          "name": "account",
          "type": "address"
        }
      ],
      "name": "grantRole",
      "outputs": [],
      "stateMutability": "nonpayable",
      "type": "function"
    },
    {
      "inputs": [
        {
          "internalType": "bytes32",
          "name": "role",
          "type": "bytes32"
        },
        {
          "internalType": "address",
          "name": "account",
          "type": "address"
        }
      ],
      "name": "hasRole",
      "outputs": [
        {
          "internalType": "bool",
          "name": "",
          "type": "bool"
        }
      ],
      "stateMutability": "view",
      "type": "function"
    },
    {
      "inputs": [
        {
          "internalType": "bytes32",
          "name": "role",
          "type": "bytes32"
        },
        {
          "internalType": "address",
          "name": "account",
          "type": "address"
        }
      ],
      "name": "renounceRole",
      "outputs": [],
      "stateMutability": "nonpayable",
      "type": "function"
    },
    {
      "inputs": [
        {
          "internalType": "bytes32",
          "name": "role",
          "type": "bytes32"
        },
        {
          "internalType": "address",
          "name": "account",
          "type": "address"
        }
      ],
      "name": "revokeRole",
      "outputs": [],
      "stateMutability": "nonpayable",
      "type": "function"
    },
    {
      "inputs": [
        {
          "internalType": "bytes4",
          "name": "interfaceId",
          "type": "bytes4"
        }
      ],
      "name": "supportsInterface",
      "outputs": [
        {
          "internalType": "bool",
          "name": "",
          "type": "bool"
        }
      ],
      "stateMutability": "view",
      "type": "function"
    },
    {
      "inputs": [
        {
          "internalType": "string",
          "name": "newURI",
          "type": "string"
        }
      ],
      "name": "updateBaseURI",
      "outputs": [],
      "stateMutability": "nonpayable",
      "type": "function"
    },
    {
      "inputs": [
        {
          "internalType": "string",
          "name": "newURI",
          "type": "string"
        }
      ],
      "name": "updateContractURI",
      "outputs": [],
      "stateMutability": "nonpayable",
      "type": "function"
    },
    {
      "inputs": [
        {
          "internalType": "string",
          "name": "newName",
          "type": "string"
        }
      ],
      "name": "updateName",
      "outputs": [],
      "stateMutability": "nonpayable",
      "type": "function"
    },
    {
      "inputs": [
        {
          "internalType": "uint8",
          "name": "newPlatformFeePercentage",
          "type": "uint8"
        }
      ],
      "name": "updatePlatformFeePercentage",
      "outputs": [],
      "stateMutability": "nonpayable",
      "type": "function"
    },
    {
      "inputs": [
        {
          "internalType": "uint8",
          "name": "newReferralCutPercentage",
          "type": "uint8"
        }
      ],
      "name": "updateReferralCutPercentage",
      "outputs": [],
      "stateMutability": "nonpayable",
      "type": "function"
    },
    {
      "inputs": [
        {
          "internalType": "string",
          "name": "newSymbol",
          "type": "string"
        }
      ],
      "name": "updateSymbol",
      "outputs": [],
      "stateMutability": "nonpayable",
      "type": "function"
    },
    {
      "inputs": [
        {
          "internalType": "address",
          "name": "artistAddress",
          "type": "address"
        },
        {
          "internalType": "string",
          "name": "username",
          "type": "string"
        }
      ],
      "name": "verifyArtistAndGrantMinterRole",
      "outputs": [],
      "stateMutability": "nonpayable",
      "type": "function"
    }
  ],
  "bytecode": "0x608060405234801561001057600080fd5b50611783806100206000396000f3fe608060405234801561001057600080fd5b50600436106100f55760003560e01c80637e5b1e2411610097578063a0b873f211610066578063a0b873f21461026a578063a217fddf14610286578063c634b78e146102a4578063d547741f146102c0576100f5565b80637e5b1e24146101e657806384da92a71461020257806391d148541461021e578063931688cb1461024e576100f5565b80632f2ff15d116100d35780632f2ff15d1461017657806336568abe14610192578063537f5312146101ae57806377d6e620146101ca576100f5565b806301ffc9a7146100fa578063217cdd6d1461012a578063248a9ca314610146575b600080fd5b610114600480360381019061010f9190610f74565b6102dc565b60405161012191906111b2565b60405180910390f35b610144600480360381019061013f9190610fde565b610356565b005b610160600480360381019061015b9190610f0f565b61037f565b60405161016d91906111cd565b60405180910390f35b610190600480360381019061018b9190610f38565b61039f565b005b6101ac60048036038101906101a79190610f38565b6103c0565b005b6101c860048036038101906101c39190610f9d565b610443565b005b6101e460048036038101906101df9190610ebb565b610468565b005b61020060048036038101906101fb9190610f9d565b610539565b005b61021c60048036038101906102179190610f9d565b61055e565b005b61023860048036038101906102339190610f38565b610582565b60405161024591906111b2565b60405180910390f35b61026860048036038101906102639190610f9d565b6105ed565b005b610284600480360381019061027f9190610fde565b610612565b005b61028e61063b565b60405161029b91906111cd565b60405180910390f35b6102be60048036038101906102b99190610e92565b610642565b005b6102da60048036038101906102d59190610f38565b61065c565b005b60007f7965db0b000000000000000000000000000000000000000000000000000000007bffffffffffffffffffffffffffffffffffffffffffffffffffffffff1916827bffffffffffffffffffffffffffffffffffffffffffffffffffffffff1916148061034f575061034e8261067d565b5b9050919050565b61035e6106e7565b80600060040160156101000a81548160ff021916908360ff16021790555050565b6000600e6000838152602001908152602001600020600101549050919050565b6103a88261037f565b6103b181610782565b6103bb8383610796565b505050565b6103c8610877565b73ffffffffffffffffffffffffffffffffffffffff168173ffffffffffffffffffffffffffffffffffffffff1614610435576040517f08c379a000000000000000000000000000000000000000000000000000000000815260040161042c9061126a565b60405180910390fd5b61043f828261087f565b5050565b61044b6106e7565b8060006001019080519060200190610464929190610d33565b5050565b61047760006005015433610582565b6104b6576040517f08c379a00000000000000000000000000000000000000000000000000000000081526004016104ad9061124a565b60405180910390fd5b6104c560006006015483610961565b806040516104d39190611161565b60405180910390208273ffffffffffffffffffffffffffffffffffffffff163373ffffffffffffffffffffffffffffffffffffffff167fa8f60f477376a901ad895ea806a73a909ebe3c9f6c7d8a042dd6b32b05b923af60405160405180910390a45050565b6105416106e7565b806000600201908051906020019061055a929190610d33565b5050565b6105666106e7565b8060008001908051906020019061057e929190610d33565b5050565b6000600e600084815260200190815260200160002060000160008373ffffffffffffffffffffffffffffffffffffffff1673ffffffffffffffffffffffffffffffffffffffff16815260200190815260200160002060009054906101000a900460ff16905092915050565b6105f56106e7565b806000600301908051906020019061060e929190610d33565b5050565b61061a6106e7565b80600060040160006101000a81548160ff021916908360ff16021790555050565b6000801b81565b61064a6106e7565b61065960006005015482610961565b50565b6106658261037f565b61066e81610782565b610678838361087f565b505050565b60007f01ffc9a7000000000000000000000000000000000000000000000000000000007bffffffffffffffffffffffffffffffffffffffffffffffffffffffff1916827bffffffffffffffffffffffffffffffffffffffffffffffffffffffff1916149050919050565b6106ef61096f565b60040160009054906101000a900473ffffffffffffffffffffffffffffffffffffffff1673ffffffffffffffffffffffffffffffffffffffff163373ffffffffffffffffffffffffffffffffffffffff1614610780576040517f08c379a00000000000000000000000000000000000000000000000000000000081526004016107779061122a565b60405180910390fd5b565b6107938161078e610877565b61099c565b50565b6107a08282610582565b610873576001600e600084815260200190815260200160002060000160008373ffffffffffffffffffffffffffffffffffffffff1673ffffffffffffffffffffffffffffffffffffffff16815260200190815260200160002060006101000a81548160ff021916908315150217905550610818610877565b73ffffffffffffffffffffffffffffffffffffffff168173ffffffffffffffffffffffffffffffffffffffff16837f2f8788117e7eff1d82e926ec794901d17c78024a50270940304540a733656f0d60405160405180910390a45b5050565b600033905090565b6108898282610582565b1561095d576000600e600084815260200190815260200160002060000160008373ffffffffffffffffffffffffffffffffffffffff1673ffffffffffffffffffffffffffffffffffffffff16815260200190815260200160002060006101000a81548160ff021916908315150217905550610902610877565b73ffffffffffffffffffffffffffffffffffffffff168173ffffffffffffffffffffffffffffffffffffffff16837ff6391f5c32d9c69d2a47ea670b442974b53935d1edc7fd64eb21e047a839171b60405160405180910390a45b5050565b61096b8282610796565b5050565b6000807f7ebe20acead178826e523aa23b9f2d4ec9903a0a82ea2ad143a2aab72ae49df190508091505090565b6109a68282610582565b610a35576109cb8173ffffffffffffffffffffffffffffffffffffffff166014610a39565b6109d98360001c6020610a39565b6040516020016109ea929190611178565b6040516020818303038152906040526040517f08c379a0000000000000000000000000000000000000000000000000000000008152600401610a2c91906111e8565b60405180910390fd5b5050565b606060006002836002610a4c919061135d565b610a569190611307565b67ffffffffffffffff811115610a95577f4e487b7100000000000000000000000000000000000000000000000000000000600052604160045260246000fd5b6040519080825280601f01601f191660200182016040528015610ac75781602001600182028036833780820191505090505b5090507f300000000000000000000000000000000000000000000000000000000000000081600081518110610b25577f4e487b7100000000000000000000000000000000000000000000000000000000600052603260045260246000fd5b60200101907effffffffffffffffffffffffffffffffffffffffffffffffffffffffffffff1916908160001a9053507f780000000000000000000000000000000000000000000000000000000000000081600181518110610baf577f4e487b7100000000000000000000000000000000000000000000000000000000600052603260045260246000fd5b60200101907effffffffffffffffffffffffffffffffffffffffffffffffffffffffffffff1916908160001a90535060006001846002610bef919061135d565b610bf99190611307565b90505b6001811115610ce5577f3031323334353637383961626364656600000000000000000000000000000000600f861660108110610c61577f4e487b7100000000000000000000000000000000000000000000000000000000600052603260045260246000fd5b1a60f81b828281518110610c9e577f4e487b7100000000000000000000000000000000000000000000000000000000600052603260045260246000fd5b60200101907effffffffffffffffffffffffffffffffffffffffffffffffffffffffffffff1916908160001a905350600485901c945080610cde90611484565b9050610bfc565b5060008414610d29576040517f08c379a0000000000000000000000000000000000000000000000000000000008152600401610d209061120a565b60405180910390fd5b8091505092915050565b828054610d3f906114ae565b90600052602060002090601f016020900481019282610d615760008555610da8565b82601f10610d7a57805160ff1916838001178555610da8565b82800160010185558215610da8579182015b82811115610da7578251825591602001919060010190610d8c565b5b509050610db59190610db9565b5090565b5b80821115610dd2576000816000905550600101610dba565b5090565b6000610de9610de4846112af565b61128a565b905082815260208101848484011115610e0157600080fd5b610e0c848285611442565b509392505050565b600081359050610e23816116f1565b92915050565b600081359050610e3881611708565b92915050565b600081359050610e4d8161171f565b92915050565b600082601f830112610e6457600080fd5b8135610e74848260208601610dd6565b91505092915050565b600081359050610e8c81611736565b92915050565b600060208284031215610ea457600080fd5b6000610eb284828501610e14565b91505092915050565b60008060408385031215610ece57600080fd5b6000610edc85828601610e14565b925050602083013567ffffffffffffffff811115610ef957600080fd5b610f0585828601610e53565b9150509250929050565b600060208284031215610f2157600080fd5b6000610f2f84828501610e29565b91505092915050565b60008060408385031215610f4b57600080fd5b6000610f5985828601610e29565b9250506020610f6a85828601610e14565b9150509250929050565b600060208284031215610f8657600080fd5b6000610f9484828501610e3e565b91505092915050565b600060208284031215610faf57600080fd5b600082013567ffffffffffffffff811115610fc957600080fd5b610fd584828501610e53565b91505092915050565b600060208284031215610ff057600080fd5b6000610ffe84828501610e7d565b91505092915050565b611010816113c9565b82525050565b61101f816113d5565b82525050565b6000611030826112e0565b61103a81856112eb565b935061104a818560208601611451565b6110538161159e565b840191505092915050565b6000611069826112e0565b61107381856112fc565b9350611083818560208601611451565b80840191505092915050565b600061109c6020836112eb565b91506110a7826115af565b602082019050919050565b60006110bf6022836112eb565b91506110ca826115d8565b604082019050919050565b60006110e2601f836112eb565b91506110ed82611627565b602082019050919050565b60006111056017836112fc565b915061111082611650565b601782019050919050565b60006111286011836112fc565b915061113382611679565b601182019050919050565b600061114b602f836112eb565b9150611156826116a2565b604082019050919050565b600061116d828461105e565b915081905092915050565b6000611183826110f8565b915061118f828561105e565b915061119a8261111b565b91506111a6828461105e565b91508190509392505050565b60006020820190506111c76000830184611007565b92915050565b60006020820190506111e26000830184611016565b92915050565b600060208201905081810360008301526112028184611025565b905092915050565b600060208201905081810360008301526112238161108f565b9050919050565b60006020820190508181036000830152611243816110b2565b9050919050565b60006020820190508181036000830152611263816110d5565b9050919050565b600060208201905081810360008301526112838161113e565b9050919050565b60006112946112a5565b90506112a082826114e0565b919050565b6000604051905090565b600067ffffffffffffffff8211156112ca576112c961156f565b5b6112d38261159e565b9050602081019050919050565b600081519050919050565b600082825260208201905092915050565b600081905092915050565b60006113128261142b565b915061131d8361142b565b9250827fffffffffffffffffffffffffffffffffffffffffffffffffffffffffffffffff0382111561135257611351611511565b5b828201905092915050565b60006113688261142b565b91506113738361142b565b9250817fffffffffffffffffffffffffffffffffffffffffffffffffffffffffffffffff04831182151516156113ac576113ab611511565b5b828202905092915050565b60006113c28261140b565b9050919050565b60008115159050919050565b6000819050919050565b60007fffffffff0000000000000000000000000000000000000000000000000000000082169050919050565b600073ffffffffffffffffffffffffffffffffffffffff82169050919050565b6000819050919050565b600060ff82169050919050565b82818337600083830152505050565b60005b8381101561146f578082015181840152602081019050611454565b8381111561147e576000848401525b50505050565b600061148f8261142b565b915060008214156114a3576114a2611511565b5b600182039050919050565b600060028204905060018216806114c657607f821691505b602082108114156114da576114d9611540565b5b50919050565b6114e98261159e565b810181811067ffffffffffffffff821117156115085761150761156f565b5b80604052505050565b7f4e487b7100000000000000000000000000000000000000000000000000000000600052601160045260246000fd5b7f4e487b7100000000000000000000000000000000000000000000000000000000600052602260045260246000fd5b7f4e487b7100000000000000000000000000000000000000000000000000000000600052604160045260246000fd5b6000601f19601f8301169050919050565b7f537472696e67733a20686578206c656e67746820696e73756666696369656e74600082015250565b7f4c69624469616d6f6e643a204d75737420626520636f6e7472616374206f776e60008201527f6572000000000000000000000000000000000000000000000000000000000000602082015250565b7f43616c6c657220646f6573206e6f7420686176652061646d696e20726f6c6500600082015250565b7f416363657373436f6e74726f6c3a206163636f756e7420000000000000000000600082015250565b7f206973206d697373696e6720726f6c6520000000000000000000000000000000600082015250565b7f416363657373436f6e74726f6c3a2063616e206f6e6c792072656e6f756e636560008201527f20726f6c657320666f722073656c660000000000000000000000000000000000602082015250565b6116fa816113b7565b811461170557600080fd5b50565b611711816113d5565b811461171c57600080fd5b50565b611728816113df565b811461173357600080fd5b50565b61173f81611435565b811461174a57600080fd5b5056fea2646970667358221220fca468e3948cf3b89cb745a3ea2319597c2d28fa8a4409907fbb90f79ca920b364736f6c63430008040033",
  "linkReferences": {},
  "deployedLinkReferences": {}
}