{
  "_format": "hh-sol-artifact-1",
  "contractName": "MusixverseSettersFacet",
  "sourceName": "contracts/Musixverse/facets/MusixverseSettersFacet.sol",
  "abi": [
    {
      "anonymous": false,
      "inputs": [
        {
          "indexed": true,
          "internalType": "address",
          "name": "caller",
          "type": "address"
        },
        {
          "indexed": true,
          "internalType": "address",
          "name": "artistAddress",
          "type": "address"
        },
        {
          "indexed": false,
          "internalType": "string",
          "name": "username",
          "type": "string"
        },
        {
          "indexed": true,
          "internalType": "string",
          "name": "indexedUsername",
          "type": "string"
        }
      ],
      "name": "ArtistVerified",
      "type": "event"
    },
    {
      "anonymous": false,
      "inputs": [
        {
          "indexed": true,
          "internalType": "bytes32",
          "name": "role",
          "type": "bytes32"
        },
        {
          "indexed": true,
          "internalType": "bytes32",
          "name": "previousAdminRole",
          "type": "bytes32"
        },
        {
          "indexed": true,
          "internalType": "bytes32",
          "name": "newAdminRole",
          "type": "bytes32"
        }
      ],
      "name": "RoleAdminChanged",
      "type": "event"
    },
    {
      "anonymous": false,
      "inputs": [
        {
          "indexed": true,
          "internalType": "bytes32",
          "name": "role",
          "type": "bytes32"
        },
        {
          "indexed": true,
          "internalType": "address",
          "name": "account",
          "type": "address"
        },
        {
          "indexed": true,
          "internalType": "address",
          "name": "sender",
          "type": "address"
        }
      ],
      "name": "RoleGranted",
      "type": "event"
    },
    {
      "anonymous": false,
      "inputs": [
        {
          "indexed": true,
          "internalType": "bytes32",
          "name": "role",
          "type": "bytes32"
        },
        {
          "indexed": true,
          "internalType": "address",
          "name": "account",
          "type": "address"
        },
        {
          "indexed": true,
          "internalType": "address",
          "name": "sender",
          "type": "address"
        }
      ],
      "name": "RoleRevoked",
      "type": "event"
    },
    {
      "anonymous": false,
      "inputs": [
        {
          "indexed": true,
          "internalType": "address",
          "name": "caller",
          "type": "address"
        },
        {
          "indexed": true,
          "internalType": "uint256",
          "name": "tokenId",
          "type": "uint256"
        },
        {
          "indexed": false,
          "internalType": "string",
          "name": "previousComment",
          "type": "string"
        },
        {
          "indexed": false,
          "internalType": "string",
          "name": "newComment",
          "type": "string"
        }
      ],
      "name": "TokenCommentUpdated",
      "type": "event"
    },
    {
      "anonymous": false,
      "inputs": [
        {
          "indexed": true,
          "internalType": "address",
          "name": "creator",
          "type": "address"
        },
        {
          "indexed": true,
          "internalType": "uint256",
          "name": "trackId",
          "type": "uint256"
        },
        {
          "indexed": true,
          "internalType": "uint256",
          "name": "tokenId",
          "type": "uint256"
        },
        {
          "indexed": false,
          "internalType": "uint256",
          "name": "price",
          "type": "uint256"
        },
        {
          "indexed": false,
          "internalType": "uint256",
          "name": "localTokenId",
          "type": "uint256"
        }
      ],
      "name": "TokenCreated",
      "type": "event"
    },
    {
      "anonymous": false,
      "inputs": [
        {
          "indexed": true,
          "internalType": "address",
          "name": "caller",
          "type": "address"
        },
        {
          "indexed": true,
          "internalType": "uint256",
          "name": "tokenId",
          "type": "uint256"
        },
        {
          "indexed": false,
          "internalType": "bool",
          "name": "onSale",
          "type": "bool"
        }
      ],
      "name": "TokenOnSaleUpdated",
      "type": "event"
    },
    {
      "anonymous": false,
      "inputs": [
        {
          "indexed": true,
          "internalType": "address",
          "name": "caller",
          "type": "address"
        },
        {
          "indexed": true,
          "internalType": "uint256",
          "name": "tokenId",
          "type": "uint256"
        },
        {
          "indexed": false,
          "internalType": "uint256",
          "name": "oldPrice",
          "type": "uint256"
        },
        {
          "indexed": false,
          "internalType": "uint256",
          "name": "newPrice",
          "type": "uint256"
        }
      ],
      "name": "TokenPriceUpdated",
      "type": "event"
    },
    {
      "anonymous": false,
      "inputs": [
        {
          "indexed": true,
          "internalType": "uint256",
          "name": "tokenId",
          "type": "uint256"
        },
        {
          "indexed": true,
          "internalType": "address",
          "name": "referrer",
          "type": "address"
        },
        {
          "indexed": false,
          "internalType": "uint256",
          "name": "referralFee",
          "type": "uint256"
        },
        {
          "indexed": false,
          "internalType": "uint256",
          "name": "platformFee",
          "type": "uint256"
        },
        {
          "indexed": false,
          "internalType": "uint256",
          "name": "royaltyAmount",
          "type": "uint256"
        },
        {
          "indexed": false,
          "internalType": "address",
          "name": "previousOwner",
          "type": "address"
        },
        {
          "indexed": false,
          "internalType": "uint256",
          "name": "valueToPreviousOwner",
          "type": "uint256"
        },
        {
          "indexed": true,
          "internalType": "address",
          "name": "newOwner",
          "type": "address"
        },
        {
          "indexed": false,
          "internalType": "uint256",
          "name": "price",
          "type": "uint256"
        }
      ],
      "name": "TokenPurchased",
      "type": "event"
    },
    {
      "anonymous": false,
      "inputs": [
        {
          "indexed": true,
          "internalType": "address",
          "name": "creator",
          "type": "address"
        },
        {
          "indexed": true,
          "internalType": "uint256",
          "name": "trackId",
          "type": "uint256"
        },
        {
          "indexed": false,
          "internalType": "uint256",
          "name": "maxTokenId",
          "type": "uint256"
        },
        {
          "indexed": false,
          "internalType": "uint256",
          "name": "price",
          "type": "uint256"
        },
        {
          "indexed": false,
          "internalType": "string",
          "name": "URIHash",
          "type": "string"
        },
        {
          "indexed": true,
          "internalType": "string",
          "name": "indexedURIHash",
          "type": "string"
        }
      ],
      "name": "TrackMinted",
      "type": "event"
    },
    {
      "inputs": [],
      "name": "DEFAULT_ADMIN_ROLE",
      "outputs": [
        {
          "internalType": "bytes32",
          "name": "",
          "type": "bytes32"
        }
      ],
      "stateMutability": "view",
      "type": "function"
    },
    {
      "inputs": [
        {
          "internalType": "bytes32",
          "name": "role",
          "type": "bytes32"
        }
      ],
      "name": "getRoleAdmin",
      "outputs": [
        {
          "internalType": "bytes32",
          "name": "",
          "type": "bytes32"
        }
      ],
      "stateMutability": "view",
      "type": "function"
    },
    {
      "inputs": [
        {
          "internalType": "address",
          "name": "adminAddress",
          "type": "address"
        }
      ],
      "name": "grantAdminRole",
      "outputs": [],
      "stateMutability": "nonpayable",
      "type": "function"
    },
    {
      "inputs": [
        {
          "internalType": "bytes32",
          "name": "role",
          "type": "bytes32"
        },
        {
          "internalType": "address",
          "name": "account",
          "type": "address"
        }
      ],
      "name": "grantRole",
      "outputs": [],
      "stateMutability": "nonpayable",
      "type": "function"
    },
    {
      "inputs": [
        {
          "internalType": "bytes32",
          "name": "role",
          "type": "bytes32"
        },
        {
          "internalType": "address",
          "name": "account",
          "type": "address"
        }
      ],
      "name": "hasRole",
      "outputs": [
        {
          "internalType": "bool",
          "name": "",
          "type": "bool"
        }
      ],
      "stateMutability": "view",
      "type": "function"
    },
    {
      "inputs": [
        {
          "internalType": "bytes32",
          "name": "role",
          "type": "bytes32"
        },
        {
          "internalType": "address",
          "name": "account",
          "type": "address"
        }
      ],
      "name": "renounceRole",
      "outputs": [],
      "stateMutability": "nonpayable",
      "type": "function"
    },
    {
      "inputs": [
        {
          "internalType": "bytes32",
          "name": "role",
          "type": "bytes32"
        },
        {
          "internalType": "address",
          "name": "account",
          "type": "address"
        }
      ],
      "name": "revokeRole",
      "outputs": [],
      "stateMutability": "nonpayable",
      "type": "function"
    },
    {
      "inputs": [
        {
          "internalType": "bytes4",
          "name": "interfaceId",
          "type": "bytes4"
        }
      ],
      "name": "supportsInterface",
      "outputs": [
        {
          "internalType": "bool",
          "name": "",
          "type": "bool"
        }
      ],
      "stateMutability": "view",
      "type": "function"
    },
    {
      "inputs": [
        {
          "internalType": "string",
          "name": "newURI",
          "type": "string"
        }
      ],
      "name": "updateBaseURI",
      "outputs": [],
      "stateMutability": "nonpayable",
      "type": "function"
    },
    {
      "inputs": [
        {
          "internalType": "string",
          "name": "newURI",
          "type": "string"
        }
      ],
      "name": "updateContractURI",
      "outputs": [],
      "stateMutability": "nonpayable",
      "type": "function"
    },
    {
      "inputs": [
        {
          "internalType": "string",
          "name": "newName",
          "type": "string"
        }
      ],
      "name": "updateName",
      "outputs": [],
      "stateMutability": "nonpayable",
      "type": "function"
    },
    {
      "inputs": [
        {
          "internalType": "uint8",
          "name": "newPlatformFeePercentage",
          "type": "uint8"
        }
      ],
      "name": "updatePlatformFeePercentage",
      "outputs": [],
      "stateMutability": "nonpayable",
      "type": "function"
    },
    {
      "inputs": [
        {
          "internalType": "uint8",
          "name": "newReferralCutPercentage",
          "type": "uint8"
        }
      ],
      "name": "updateReferralCutPercentage",
      "outputs": [],
      "stateMutability": "nonpayable",
      "type": "function"
    },
    {
      "inputs": [
        {
          "internalType": "string",
          "name": "newSymbol",
          "type": "string"
        }
      ],
      "name": "updateSymbol",
      "outputs": [],
      "stateMutability": "nonpayable",
      "type": "function"
    },
    {
      "inputs": [
        {
          "internalType": "address",
          "name": "artistAddress",
          "type": "address"
        },
        {
          "internalType": "string",
          "name": "username",
          "type": "string"
        }
      ],
      "name": "verifyArtistAndGrantMinterRole",
      "outputs": [],
      "stateMutability": "nonpayable",
      "type": "function"
    }
  ],
  "bytecode": "0x608060405234801561001057600080fd5b5061178e806100206000396000f3fe608060405234801561001057600080fd5b50600436106100f55760003560e01c80637e5b1e2411610097578063a0b873f211610066578063a0b873f21461026a578063a217fddf14610286578063c634b78e146102a4578063d547741f146102c0576100f5565b80637e5b1e24146101e657806384da92a71461020257806391d148541461021e578063931688cb1461024e576100f5565b80632f2ff15d116100d35780632f2ff15d1461017657806336568abe14610192578063537f5312146101ae57806377d6e620146101ca576100f5565b806301ffc9a7146100fa578063217cdd6d1461012a578063248a9ca314610146575b600080fd5b610114600480360381019061010f9190610f7f565b6102dc565b60405161012191906111bd565b60405180910390f35b610144600480360381019061013f9190610fe9565b610356565b005b610160600480360381019061015b9190610f1a565b61037f565b60405161016d91906111d8565b60405180910390f35b610190600480360381019061018b9190610f43565b61039f565b005b6101ac60048036038101906101a79190610f43565b6103c0565b005b6101c860048036038101906101c39190610fa8565b610443565b005b6101e460048036038101906101df9190610ec6565b610468565b005b61020060048036038101906101fb9190610fa8565b610544565b005b61021c60048036038101906102179190610fa8565b610569565b005b61023860048036038101906102339190610f43565b61058d565b60405161024591906111bd565b60405180910390f35b61026860048036038101906102639190610fa8565b6105f8565b005b610284600480360381019061027f9190610fe9565b61061d565b005b61028e610646565b60405161029b91906111d8565b60405180910390f35b6102be60048036038101906102b99190610e9d565b61064d565b005b6102da60048036038101906102d59190610f43565b610667565b005b60007f7965db0b000000000000000000000000000000000000000000000000000000007bffffffffffffffffffffffffffffffffffffffffffffffffffffffff1916827bffffffffffffffffffffffffffffffffffffffffffffffffffffffff1916148061034f575061034e82610688565b5b9050919050565b61035e6106f2565b80600060040160156101000a81548160ff021916908360ff16021790555050565b6000600e6000838152602001908152602001600020600101549050919050565b6103a88261037f565b6103b18161078d565b6103bb83836107a1565b505050565b6103c8610882565b73ffffffffffffffffffffffffffffffffffffffff168173ffffffffffffffffffffffffffffffffffffffff1614610435576040517f08c379a000000000000000000000000000000000000000000000000000000000815260040161042c90611275565b60405180910390fd5b61043f828261088a565b5050565b61044b6106f2565b8060006001019080519060200190610464929190610d3e565b5050565b6104776000600501543361058d565b6104b6576040517f08c379a00000000000000000000000000000000000000000000000000000000081526004016104ad90611255565b60405180910390fd5b6104c56000600601548361096c565b806040516104d3919061116c565b60405180910390208273ffffffffffffffffffffffffffffffffffffffff163373ffffffffffffffffffffffffffffffffffffffff167f0bf5444aa8771e95eaf4015341cc85284366059cc1053e8737e950ede60c7c408460405161053891906111f3565b60405180910390a45050565b61054c6106f2565b8060006002019080519060200190610565929190610d3e565b5050565b6105716106f2565b80600080019080519060200190610589929190610d3e565b5050565b6000600e600084815260200190815260200160002060000160008373ffffffffffffffffffffffffffffffffffffffff1673ffffffffffffffffffffffffffffffffffffffff16815260200190815260200160002060009054906101000a900460ff16905092915050565b6106006106f2565b8060006003019080519060200190610619929190610d3e565b5050565b6106256106f2565b80600060040160006101000a81548160ff021916908360ff16021790555050565b6000801b81565b6106556106f2565b6106646000600501548261096c565b50565b6106708261037f565b6106798161078d565b610683838361088a565b505050565b60007f01ffc9a7000000000000000000000000000000000000000000000000000000007bffffffffffffffffffffffffffffffffffffffffffffffffffffffff1916827bffffffffffffffffffffffffffffffffffffffffffffffffffffffff1916149050919050565b6106fa61097a565b60040160009054906101000a900473ffffffffffffffffffffffffffffffffffffffff1673ffffffffffffffffffffffffffffffffffffffff163373ffffffffffffffffffffffffffffffffffffffff161461078b576040517f08c379a000000000000000000000000000000000000000000000000000000000815260040161078290611235565b60405180910390fd5b565b61079e81610799610882565b6109a7565b50565b6107ab828261058d565b61087e576001600e600084815260200190815260200160002060000160008373ffffffffffffffffffffffffffffffffffffffff1673ffffffffffffffffffffffffffffffffffffffff16815260200190815260200160002060006101000a81548160ff021916908315150217905550610823610882565b73ffffffffffffffffffffffffffffffffffffffff168173ffffffffffffffffffffffffffffffffffffffff16837f2f8788117e7eff1d82e926ec794901d17c78024a50270940304540a733656f0d60405160405180910390a45b5050565b600033905090565b610894828261058d565b15610968576000600e600084815260200190815260200160002060000160008373ffffffffffffffffffffffffffffffffffffffff1673ffffffffffffffffffffffffffffffffffffffff16815260200190815260200160002060006101000a81548160ff02191690831515021790555061090d610882565b73ffffffffffffffffffffffffffffffffffffffff168173ffffffffffffffffffffffffffffffffffffffff16837ff6391f5c32d9c69d2a47ea670b442974b53935d1edc7fd64eb21e047a839171b60405160405180910390a45b5050565b61097682826107a1565b5050565b6000807f7ebe20acead178826e523aa23b9f2d4ec9903a0a82ea2ad143a2aab72ae49df190508091505090565b6109b1828261058d565b610a40576109d68173ffffffffffffffffffffffffffffffffffffffff166014610a44565b6109e48360001c6020610a44565b6040516020016109f5929190611183565b6040516020818303038152906040526040517f08c379a0000000000000000000000000000000000000000000000000000000008152600401610a3791906111f3565b60405180910390fd5b5050565b606060006002836002610a579190611368565b610a619190611312565b67ffffffffffffffff811115610aa0577f4e487b7100000000000000000000000000000000000000000000000000000000600052604160045260246000fd5b6040519080825280601f01601f191660200182016040528015610ad25781602001600182028036833780820191505090505b5090507f300000000000000000000000000000000000000000000000000000000000000081600081518110610b30577f4e487b7100000000000000000000000000000000000000000000000000000000600052603260045260246000fd5b60200101907effffffffffffffffffffffffffffffffffffffffffffffffffffffffffffff1916908160001a9053507f780000000000000000000000000000000000000000000000000000000000000081600181518110610bba577f4e487b7100000000000000000000000000000000000000000000000000000000600052603260045260246000fd5b60200101907effffffffffffffffffffffffffffffffffffffffffffffffffffffffffffff1916908160001a90535060006001846002610bfa9190611368565b610c049190611312565b90505b6001811115610cf0577f3031323334353637383961626364656600000000000000000000000000000000600f861660108110610c6c577f4e487b7100000000000000000000000000000000000000000000000000000000600052603260045260246000fd5b1a60f81b828281518110610ca9577f4e487b7100000000000000000000000000000000000000000000000000000000600052603260045260246000fd5b60200101907effffffffffffffffffffffffffffffffffffffffffffffffffffffffffffff1916908160001a905350600485901c945080610ce99061148f565b9050610c07565b5060008414610d34576040517f08c379a0000000000000000000000000000000000000000000000000000000008152600401610d2b90611215565b60405180910390fd5b8091505092915050565b828054610d4a906114b9565b90600052602060002090601f016020900481019282610d6c5760008555610db3565b82601f10610d8557805160ff1916838001178555610db3565b82800160010185558215610db3579182015b82811115610db2578251825591602001919060010190610d97565b5b509050610dc09190610dc4565b5090565b5b80821115610ddd576000816000905550600101610dc5565b5090565b6000610df4610def846112ba565b611295565b905082815260208101848484011115610e0c57600080fd5b610e1784828561144d565b509392505050565b600081359050610e2e816116fc565b92915050565b600081359050610e4381611713565b92915050565b600081359050610e588161172a565b92915050565b600082601f830112610e6f57600080fd5b8135610e7f848260208601610de1565b91505092915050565b600081359050610e9781611741565b92915050565b600060208284031215610eaf57600080fd5b6000610ebd84828501610e1f565b91505092915050565b60008060408385031215610ed957600080fd5b6000610ee785828601610e1f565b925050602083013567ffffffffffffffff811115610f0457600080fd5b610f1085828601610e5e565b9150509250929050565b600060208284031215610f2c57600080fd5b6000610f3a84828501610e34565b91505092915050565b60008060408385031215610f5657600080fd5b6000610f6485828601610e34565b9250506020610f7585828601610e1f565b9150509250929050565b600060208284031215610f9157600080fd5b6000610f9f84828501610e49565b91505092915050565b600060208284031215610fba57600080fd5b600082013567ffffffffffffffff811115610fd457600080fd5b610fe084828501610e5e565b91505092915050565b600060208284031215610ffb57600080fd5b600061100984828501610e88565b91505092915050565b61101b816113d4565b82525050565b61102a816113e0565b82525050565b600061103b826112eb565b61104581856112f6565b935061105581856020860161145c565b61105e816115a9565b840191505092915050565b6000611074826112eb565b61107e8185611307565b935061108e81856020860161145c565b80840191505092915050565b60006110a76020836112f6565b91506110b2826115ba565b602082019050919050565b60006110ca6022836112f6565b91506110d5826115e3565b604082019050919050565b60006110ed601f836112f6565b91506110f882611632565b602082019050919050565b6000611110601783611307565b915061111b8261165b565b601782019050919050565b6000611133601183611307565b915061113e82611684565b601182019050919050565b6000611156602f836112f6565b9150611161826116ad565b604082019050919050565b60006111788284611069565b915081905092915050565b600061118e82611103565b915061119a8285611069565b91506111a582611126565b91506111b18284611069565b91508190509392505050565b60006020820190506111d26000830184611012565b92915050565b60006020820190506111ed6000830184611021565b92915050565b6000602082019050818103600083015261120d8184611030565b905092915050565b6000602082019050818103600083015261122e8161109a565b9050919050565b6000602082019050818103600083015261124e816110bd565b9050919050565b6000602082019050818103600083015261126e816110e0565b9050919050565b6000602082019050818103600083015261128e81611149565b9050919050565b600061129f6112b0565b90506112ab82826114eb565b919050565b6000604051905090565b600067ffffffffffffffff8211156112d5576112d461157a565b5b6112de826115a9565b9050602081019050919050565b600081519050919050565b600082825260208201905092915050565b600081905092915050565b600061131d82611436565b915061132883611436565b9250827fffffffffffffffffffffffffffffffffffffffffffffffffffffffffffffffff0382111561135d5761135c61151c565b5b828201905092915050565b600061137382611436565b915061137e83611436565b9250817fffffffffffffffffffffffffffffffffffffffffffffffffffffffffffffffff04831182151516156113b7576113b661151c565b5b828202905092915050565b60006113cd82611416565b9050919050565b60008115159050919050565b6000819050919050565b60007fffffffff0000000000000000000000000000000000000000000000000000000082169050919050565b600073ffffffffffffffffffffffffffffffffffffffff82169050919050565b6000819050919050565b600060ff82169050919050565b82818337600083830152505050565b60005b8381101561147a57808201518184015260208101905061145f565b83811115611489576000848401525b50505050565b600061149a82611436565b915060008214156114ae576114ad61151c565b5b600182039050919050565b600060028204905060018216806114d157607f821691505b602082108114156114e5576114e461154b565b5b50919050565b6114f4826115a9565b810181811067ffffffffffffffff821117156115135761151261157a565b5b80604052505050565b7f4e487b7100000000000000000000000000000000000000000000000000000000600052601160045260246000fd5b7f4e487b7100000000000000000000000000000000000000000000000000000000600052602260045260246000fd5b7f4e487b7100000000000000000000000000000000000000000000000000000000600052604160045260246000fd5b6000601f19601f8301169050919050565b7f537472696e67733a20686578206c656e67746820696e73756666696369656e74600082015250565b7f4c69624469616d6f6e643a204d75737420626520636f6e7472616374206f776e60008201527f6572000000000000000000000000000000000000000000000000000000000000602082015250565b7f43616c6c657220646f6573206e6f7420686176652061646d696e20726f6c6500600082015250565b7f416363657373436f6e74726f6c3a206163636f756e7420000000000000000000600082015250565b7f206973206d697373696e6720726f6c6520000000000000000000000000000000600082015250565b7f416363657373436f6e74726f6c3a2063616e206f6e6c792072656e6f756e636560008201527f20726f6c657320666f722073656c660000000000000000000000000000000000602082015250565b611705816113c2565b811461171057600080fd5b50565b61171c816113e0565b811461172757600080fd5b50565b611733816113ea565b811461173e57600080fd5b50565b61174a81611440565b811461175557600080fd5b5056fea2646970667358221220edd1a74979e6ab9690aba7b7edca8d2e4800913d37d6d2bfa6e1466a20bb0ffd64736f6c63430008040033",
  "linkReferences": {},
  "deployedLinkReferences": {}
}